:020000040800F2
:10000000380D0020CD040008DD010008DF010008E4
:10001000E3010008E7010008EB0100080000000010
:10002000000000000000000000000000EF010008D8
:10003000F101000800000000F3010008F5010008CC
:10004000E7040008E7040008E7040008E7040008E4
:10005000E7040008E7040008E7040008E7040008D4
:10006000E7040008E7040008E7040008E7040008C4
:10007000E7040008E7040008E7040008E7040008B4
:10008000E7040008E7040008E7040008E7040008A4
:10009000E7040008E7040008E7040008E704000894
:1000A000E7040008E7040008E7040008E704000884
:1000B00027460008E7040008E7040008E7040008F2
:1000C000E7040008E7040008E7040008E704000864
:1000D000E7040008ED270008E7040008473200089D
:1000E000E7040008E7040008E704000800F002F84D
:1000F00000F05FF80AA090E8000C82448344AAF163
:100100000107DA4501D100F054F8AFF2090EBAE860
:100110000F0013F0010F18BFFB1A43F0010318473B
:1001200018780000387800000A444FF0000C10F8EE
:10013000013B13F0070408BF10F8014B1D1108BF65
:1001400010F8015B641E05D010F8016B641E01F805
:10015000016BF9D113F0080F1EBF10F8014BAD1C55
:100160000C1B09D16D1E58BF01F801CBFAD505E073
:1001700014F8016B01F8016B6D1EF9D59142D6D3CD
:10018000704700000023002400250026103A28BFF5
:1001900078C1FBD8520728BF30C148BF0B607047F9
:1001A000642904F05B86002070471FB51FBD10B5A1
:1001B00010BD04F02DFF1146FFF7F7FF00F00CF91A
:1001C00004F04BFF03B4FFF7F2FF03BC02F0B4FAF4
:1001D00030BF72B662B680F308887047704700BFC0
:1001E000FEE700BFFEE700BFFEE700BFFEE7704787
:1001F00070477047704700000CB5002001900090D8
:100200006C48006840F480306A49086000BF694863
:10021000006800F4003000900198401C01900098A4
:1002200018B90198B0F5A06FF1D16248006800F4E8
:10023000003010B10120009001E0002000900098F3
:10024000012843D15C48006840F010005A4908601A
:100250000846006820F0030008600846006840F087
:1002600002000860534840685249486008464068A8
:1002700048600846406840F480604860084640682E
:1002800020F47C1048600846406840F4E81048605C
:100290000846006840F08070086000BF454800686C
:1002A00000F000700028F9D04248406820F00300B8
:1002B000404948600846406840F00200486000BF7E
:1002C0003C48406800F00C000828F9D10CBD10B57E
:1002D000FFF792FF10BD10B53648006840F00100EE
:1002E000344908600846406834490840314948604C
:1002F00008460068324908402E49086008460068F0
:1003000020F4802008600846406820F4FE00486021
:100310004FF41F008860FFF7DAFF4FF000602949B3
:10032000086010BD10B5002100200022214B5B6841
:1003300003F00C0121B1042906D0082928D107E0D7
:10034000214B224C236027E01F4B204C236023E0ED
:10035000184B5B6803F47010164B5B6803F4803233
:10036000022303EB904022B9194B4343174C2360FF
:100370000DE0104B5B6803F4003323B1144B43438F
:10038000124C236003E0104B4343104C236003E006
:100390000D4B0E4C236000BF00BF064B5B68C3F3E0
:1003A00003130C4CE15C094B1B68CB40074C2360EA
:1003B00010BD000000100240002002400000FFF8C5
:1003C000FFFFF6FE08ED00E000127A0000000020BA
:1003D00000093D000400002000244FF4E13002F049
:1003E000BAF901F0E1FF012002F038F902F074FAE5
:1003F00002F042FA642002F014F802F039FD6420A1
:1004000002F00FF841F61F41632002F0E4FD8F2156
:1004100042F20F7002F068FE8F2142F20F7002F07C
:1004200007FE02F09FFF09E018A22421012002F03C
:10043000F0FC02F09EFBC82001F0F3FF03F02EF861
:100440000028F1D116A22421012002F0E2FC03F0E1
:10045000BBF81AE002F02DFB0446012C06D114492A
:100460001448006806F0CAF812490860124803F000
:100470008EF840B90020104981F820000FA23021E9
:10048000012002F0C6FC04F065FAE3E732344C3098
:100490003120436865636B204661696C65642100A7
:1004A00032344C3031205265616479210000000003
:1004B0000000204188000020C401002032344C306C
:1004C0003120444154412052454356000948804759
:1004D00009480047FEE7FEE7FEE7FEE7FEE7FEE726
:1004E000FEE7FEE7FEE7FEE704480549054A064B3E
:1004F00070470000D7020008ED0000083807002010
:10050000380D002038090020380900203149014306
:10051000314A1160704770B5002100230F22C47862
:1005200004B32D4C246804F4E064C4F5E064210AAB
:10053000C1F10403CA40447804FA03F184781440FA
:1005400021430901254C0678A155047804F01F05C4
:100550000124AC4005786D11AD0005F1E025C5F82A
:10056000004109E0047804F01F050124AC401C4D53
:100570000678761145F8264070BD1A4A0A400243B3
:10058000154B1B1F1A60704739B1134A121D1268B0
:100590000243114B1B1D1A6006E00F4A121D126820
:1005A00082430D4B1B1D1A607047042808D14FF081
:1005B000E021096941F004014FF0E022116107E0F8
:1005C0004FF0E021096921F004014FF0E0221161B0
:1005D000704700000000FA050CED00E000E400E0C8
:1005E00080E100E080FFFF1F10B5012000F014FC47
:1005F000002000F011FC10BD2A490860704729490D
:10060000091F086070472749843108607047014618
:100610000020254A10884FF67F4210400843224AA6
:1006200010807047014600201F4A10884FF68072E4
:10063000104008431C4A1080704708B50022009201
:10064000194A2C3A0092009A02440092009A1160D2
:1006500008BD08B501460020009013482C380090D2
:100660000098084400900098008808BD0D489C3010
:100670000068C0B270470C480830008840F00100A4
:1006800009490831088070470648A0300068C0B2A8
:10069000704705480830008840F0020002490831E0
:1006A0000880704704860D422C6C004010B504464B
:1006B000CC48844208D10121042000F093FB0021A2
:1006C000042000F08FFB46E0C748844208D1012196
:1006D000082000F087FB0021082000F083FB3AE0AF
:1006E000C248844208D10121102000F07BFB002188
:1006F000102000F077FB2EE0BD48844208D1012194
:10070000202000F06FFB0021202000F06BFB22E096
:10071000B848844208D10121402000F063FB002149
:10072000402000F05FFB16E0B348844208D101216D
:10073000802000F057FB0021802000F053FB0AE0EE
:10074000AE48844207D10121801500F04BFB002107
:10075000A01500F047FB10BD10B50121084600F0C0
:1007600041FB0021012000F03DFB10BD2DE9F041CF
:10077000024600250026002000230024002791F8CF
:1007800003C00CF00F0591F803C00CF0100CBCF185
:10079000000F03D091F802C04CEA050591F800C0A3
:1007A000BCF1000F31D0146800202BE04FF0010C99
:1007B0000CFA00F3B1F800C00CEA03069E4220D107
:1007C00083004FF00F0C0CFA03F7BC4305FA03FC4F
:1007D0004CEA040491F803C0BCF1280F06D14FF095
:1007E000010C0CFA00FCC2F814C00AE091F803C036
:1007F000BCF1480F05D14FF0010C0CFA00FCC2F817
:1008000010C0401C0828D1D31460B1F800C0BCF15E
:10081000FF0F34DD546800202EE000F1080C4FF08B
:10082000010808FA0CF3B1F800C00CEA03069E4276
:1008300021D183004FF00F0C0CFA03F7BC4305FAEB
:1008400003FC4CEA040491F803C0BCF1280F05D165
:1008500000F1080C08FA0CF8C2F8148091F803C0F3
:10086000BCF1480F07D100F1080C4FF0010808FA5D
:100870000CF8C2F81080401C0828CED35460BDE8A4
:10088000F0814FF6FF710180022181700421C17057
:1008900070470246002093680B400BB1012000E036
:1008A000002070470146886880B2704702460020E9
:1008B000D3680B400BB1012000E0002070470146D7
:1008C000C86880B2704701617047416170470AB1E2
:1008D000016100E041617047C16070474FF48032B0
:1008E0000A4382618161826182698269704702463E
:1008F0000020434B18684FF68073184040EA0210FE
:1009000008433F4B186070473E49C8617047F0B5D7
:100910000A46002300240021002500F00046B6F11D
:10092000004F02D1364EF16901E0354E7168C0F3D7
:10093000034583B200F44016B6F5401F08D121F0FC
:1009400070612F4E766826F070662D4F7E6012E043
:1009500000F48016B6F5801F06D1032606FA05F4CA
:10096000A14341F0706106E0460D360103FA06F638
:10097000B14341F0706122B1460D360103FA06F62B
:10098000314300F00046B6F1004F02D11C4EF16138
:1009900001E01B4E7160F0BD30B500228B071C0FCB
:1009A0000F2303FA04F2164B08338C1053F824304B
:1009B0009343134C08348D1044F8253023468C1093
:1009C00053F824308C07240F00FA04F423430C4C12
:1009D00008348D1044F8253030BD0A49DC310860F8
:1009E0007047000000080140000C01400010014069
:1009F0000014014000180140001C0140002001408B
:100A0000000001400000204210B50121080700F05D
:100A1000F6F900214FF0805000F0F1F910BD2A499D
:100A20000862704728490861704701460020274A3C
:100A3000106820F0E0000843106070472249A031A0
:100A40000860704710B502460020204B186820F05F
:100A50000300104318601E4B1B6843F004031C4C3A
:100A60002360012901D130BF00E020BF184B1B6873
:100A700023F00403164C236010BD1448006840F0B6
:100A80000400124908600846006840F0020008604F
:100A90000F48006840F004000D49086000BF00BF27
:100AA00030BF704701460020084A52680A400AB128
:100AB000012000E0002070470449096841EA8001F4
:100AC000024A11607047000000000E4200700040B2
:100AD00010ED00E0DF48006840F00100DD490860EB
:100AE00008464068DC490840DA4948600846006822
:100AF000DA490840D74908600846006820F4802099
:100B000008600846406820F4FE0048604FF41F006B
:100B100088607047CF49096821F48031CD4A11605F
:100B20001146096821F480211160B0F5803F03D09F
:100B3000B0F5802F0ED106E0C649096841F4803136
:100B4000C44A116007E0C349096841F4A021C14AC1
:100B5000116000E000BF00BF704710B501460022E1
:100B6000002300204A11012A02D1BA4C236806E072
:100B7000022A02D1B74C236A01E0B64C636A01F045
:100B80001F02012494401C400CB1012000E0002011
:100B900010BD38B5002000900024002500BF312092
:100BA000FFF7DBFF05460098401C00900098B0F569
:100BB000A06F01D0002DF2D03120FFF7CEFF08B199
:100BC000012400E00024204638BD01460020A14A4F
:100BD000106820F0F80040EAC10010607047A0499A
:100BE00008607047024600209A4B586820F47C1039
:100BF00042EA01031843974B5860704798490866CA
:100C0000704701460020934A506820F003000843D3
:100C1000506070478F48406800F00C0070470146F4
:100C200000208C4A506820F0F00008435060704764
:100C300001460020874A506820F4E0600843506075
:100C4000704701460020834A506820F4605040EA13
:100C5000C1005060704729B17E4A527A02437D4BF1
:100C60005A7204E07B4A527A82437A4B5A72704736
:100C70007B49D8310860704701460020754A5068AA
:100C800020F440400843506070470021714A2032F0
:100C90001170704A82F82010012802D004280AD16D
:100CA00004E001216B4A2032117005E00521694AF8
:100CB0002032117000E000BF00BF70476949086032
:100CC00070476449096A0143624A11627047654985
:100CD00044390860704730B5002100220024002309
:100CE0005C4D6D6805F00C0121B1042905D008297F
:100CF00023D105E05C4D056022E05B4D05601FE0FF
:100D0000544D6D6805F47012524D6D6805F48034D1
:100D1000022505EB92421CB9544D554305600BE08A
:100D20004C4D6D6805F400351DB1504D55430560BF
:100D300002E04D4D5543056002E04B4D056000BF9C
:100D400000BF444D6D6805F0F0010909484D6B5C2A
:100D50000568DD4045603F4D6D6805F4E061090AB6
:100D6000434D6B5C4568DD4085603A4D6D6805F428
:100D70006051C90A3E4D6B5C4568DD40C560354D2C
:100D80006D6805F44041890B3A4D6B5CC568B5FB55
:100D9000F3F5056130BD29B12E4A526902432D4B4E
:100DA0005A6104E02B4A526982432A4B5A617047C8
:100DB00029B1284A92690243264B9A6104E0254AE8
:100DC00092698243234B9A61704729B1214AD269C3
:100DD0000243204BDA6104E01E4AD26982431D4B74
:100DE000DA61704729B11B4AD2680243194BDA60B5
:100DF00004E0184AD2688243164BDA60704729B182
:100E0000144A12690243134B1A6104E0114A126931
:100E10008243104B1A61704712494039086070478D
:100E20000F49C86470470B49C87170470948406A48
:100E300040F0807007494862704701460020054A2B
:100E400092680A400AB1012000E000207047014981
:100E500088727047001002400000FFF8FFFFF6FEA6
:100E6000000042428004424200127A0000093D0024
:100E7000D4000020E400002010B50446BE4884429F
:100E800008D101218014FFF7ADFF0021A014FFF766
:100E9000A9FF16E0B948844208D101210014FFF7E8
:100EA000AEFF00212014FFF7AAFF0AE0B4488442F5
:100EB00007D10121C013FFF7A2FF0021E013FFF7C4
:100EC0009EFF10BD10B50022028802F441520B882B
:100ED0004C8823438C882343CC8823430C892343A9
:100EE0004C8923438C892343CC8923431A430280B2
:100EF000838B4FF2FF74234083830B8A038210BDE0
:100F00002DE9F04F85B005460C464FF00009022749
:100F10004FF000084FF0010B0026B246A88B4FF2AD
:100F200040010840A88302202884B5F81C90A068DE
:100F3000022801D100BF38E0A08810B94FF0010BA2
:100F400001E04FF0020B8D48854200D100E000BF68
:100F50006846FFF7C0FEDDF800A0E088B0F5007F2E
:100F60000AD14FEA1A2000EB80004000A168B0FBD4
:100F7000F1F0401D86B20BE04FEA4B10BAFBF0F0E7
:100F800000EB80004000A168B0FBF1F0401D86B28C
:100F90000A20B6FBF0F606F00108A6EB0800C0F345
:100FA0004F074FF6FF7000EA0828022F01DBFF2FE2
:100FB00002DD02274FF00008E08840EA08003843CD
:100FC0002884A088A18908436188084321880843B0
:100FD00040F4006040EA0909A5F81C9005B0BDE89E
:100FE000F08F0021018041808180C1800181418199
:100FF0008181C181072101827047002101804180E8
:101000008180C1800221816000218181704721B1EE
:10101000028842F04002028004E002884FF6BF736B
:101020001A400280704721B1828B42F48062828331
:1010300004E0828B4FF6FF331A408283704730B54D
:10104000002400230C110125A540ABB21AB18588FC
:101050001D43858002E085889D43858030BD1AB19F
:1010600083880B43838002E083888B4383807047AF
:10107000818170470146888970474FF6FF6291422F
:1010800004D0028842F48072028004E002884FF6A5
:10109000FF631A400280704721B1828842F0040247
:1010A000828004E082884FF6FB731A40828070478A
:1010B00002884FF2FF731A40028002880A430280BE
:1010C0007047018841F480510180704721B1028846
:1010D00042F40052028004E002884DF6FF731A4089
:1010E0000280704702460020012901D0108B00E0E9
:1010F000908A70470146088A7047B1F5804F04D145
:10110000028842F48042028004E002884BF6FF73BA
:101110001A40028070470246002013890B400BB131
:10112000012000E000207047CA4302817047F0B5FB
:101130000246002000240023002501F00F070126AD
:10114000BE40B4B20B1101269E40B3B2968806EAA7
:1011500003051689264016B10DB1012000E00020DC
:10116000F0BD10B5002201F00F040123A3409AB294
:10117000D343038110BD000000300140003800401F
:10118000003C004010B50446FE48844208D10121CD
:10119000C014FFF727FE0021E014FFF723FEC4E090
:1011A000B4F1804F08D101210846FFF728FE002145
:1011B0000120FFF724FEB8E0F348844208D1012162
:1011C0000220FFF71CFE00210220FFF718FEACE012
:1011D000EE48844208D101210420FFF710FE0021CF
:1011E0000420FFF70CFEA0E0E948844208D1012169
:1011F0000820FFF704FE00210820FFF700FE94E01E
:10120000E448844208D101211020FFF7F8FD0021B5
:101210001020FFF7F4FD88E0DF48844208D1012167
:101220002020FFF7ECFD00212020FFF7E8FD7CE007
:10123000DA48844208D101214014FFF7D3FD002190
:101240006014FFF7CFFD70E0D548844209D1012139
:10125000C804FFF7C7FD00214FF40020FFF7C2FDCF
:1012600063E0D048844209D101210805FFF7BAFDA7
:1012700000214FF48010FFF7B5FD56E0CA488442C4
:1012800009D101214805FFF7ADFD00214FF4001001
:10129000FFF7A8FD49E0C548844208D1012140205C
:1012A000FFF7ADFD00214020FFF7A9FD3DE0C0485C
:1012B000844208D101218020FFF7A1FD0021802078
:1012C000FFF79DFD31E0BB48844208D10121801524
:1012D000FFF795FD0021A015FFF791FD25E0B64829
:1012E000844209D101210804FFF77CFD00214FF45D
:1012F0008030FFF777FD18E0B048844209D1012122
:101300004804FFF76FFD00214FF40030FFF76AFD3E
:101310000BE0AB48844208D101218804FFF762FD4D
:1013200000214FF48020FFF75DFD10BD00220288F0
:10133000944B98420ED0994B98420BD0B0F1804F0D
:1013400008D0914B984205D0904B984202D0904BD8
:10135000984204D14FF68F731A404B881A438D4B35
:10136000984207D08C4B984204D04FF6FF431A4066
:10137000CB881A4302808B8883850B880385814B39
:1013800098420BD0854B984208D08B4B984205D0A1
:101390008A4B984202D08A4B984201D10B7A03863D
:1013A00001238382704770B5002400220023058C3E
:1013B0004FF6FE7635400584028C8388048B4FF609
:1013C0008F752C40B51E2C400D882C43751E2A406D
:1013D0000D892A434D882A436A4DA8420BD06F4D90
:1013E000A84208D0744DA84205D0744DA84202D03E
:1013F000734DA84213D14FF6F7752A404D892A4301
:101400004FF6FB752A408D882A434FF6FF652B4027
:101410004FF6FF552B408D892B43CD892B4383807D
:101420000483CD888586028470BD70B500240022B7
:101430000023058C4FF6EF7635400584028C8388B7
:10144000048B48F6FF752C404FF6FF452C400D8865
:101450004FF6FF7606EA05252C434FF6DF752A4046
:101460000D8906EA05152A434D8806EA05152A4323
:10147000444DA84202D0494DA8421DD14FF67F7578
:101480002A404D894FF6FF7606EA05152A434FF6A6
:10149000BF752A408D8806EA05152A434FF6FF35A9
:1014A0002B404FF2FF752B408D8906EA85052B43B3
:1014B000CD8906EA85052B4383800483CD88058783
:1014C000028470BD70B5002400220023058C4FF605
:1014D000FF6635400584028C8388848B4FF68F75B8
:1014E0002C404FF6FC752C400D882C434FF6FF55D1
:1014F0002A400D894FF6FF7606EA05252A434D88D6
:1015000006EA05252A431F4DA84202D0234DA842D2
:101510001DD14FF2FF752A404D894FF6FF7606EA3E
:1015200005252A434FF6FF352A408D8806EA052512
:101530002A434EF6FF752B404DF6FF752B408D89E3
:1015400006EA05152B43CD8906EA05152B43838052
:101550008483CD888587028470BD70B50022002306
:101560000024058C4EF6FF7635400584038C848874
:10157000828B48F6FF752A404FF6FF452A400D88BA
:1015800020E00000002C0140000400400008004062
:10159000000C0040001000400014004000340140E6
:1015A000004C014000500140005401400018004030
:1015B000001C004000200040004001400044014069
:1015C000004801404FF6FF7606EA05252A434DF60E
:1015D000FF752B400D8906EA05352B434D8806EA39
:1015E00005352B43FA4DA84202D0FA4DA84208D146
:1015F0004BF6FF752C408D894FF6FF7606EA851570
:101600002C4384808283CD88A0F84050038470BD31
:10161000828B4FF2FF331A408283828B4FF6FF7327
:1016200003EA01231A4382837047F0B50C4615463E
:10163000002200210026078C4EF6FF7C07EA0C07EB
:101640000784828B018C4FF6FF7707EA043640F659
:10165000FF473A404FF6FF7707EA05273A434FF630
:10166000FF7707EA03373A43D94FB8420ED0D94F34
:10167000B8420BD0B0F1804F08D0D74FB84205D058
:10168000D64FB84202D0D64FB84206D14DF6FF77BA
:10169000394046F48057394305E047F6FF57394053
:1016A00044F48057394382830184F0BD828B4FF626
:1016B000F3731A408283828B0A4382837047F0B5AA
:1016C0000C461546002200210026078C4FF6FF6CC1
:1016D00007EA0C070784828B018C4FF6FF7707EA35
:1016E00004264FF60C773A404FF6FF7707EA0317C8
:1016F0002F433A43B64FB8420ED0B64FB8420BD044
:10170000B0F1804F08D0B44FB84205D0B34FB842C3
:1017100002D0B34FB84206D14FF6FF57394046F4D6
:101720008077394305E04FF2FF57394044F4807722
:10173000394382830184F0BD028B4FF2FF331A409C
:101740000283028B4FF6FF7303EA01231A430283DD
:101750007047F0B50C461546002200210026078C84
:101760004FF6EF7C07EA0C070784028B018C4FF6DB
:10177000FF7707EA041640F6FF473A404FF6FF7737
:1017800007EA03373A434FF6FF7707EA05273A435C
:101790008F4FB8420ED08F4FB8420BD0B0F1804F70
:1017A00008D08D4FB84205D08C4FB84202D08C4F34
:1017B000B84206D14FF6DF77394046F0100739437B
:1017C00005E04FF65F77394044F010073943028354
:1017D0000184F0BD028B4FF6F3731A400283028B33
:1017E0000A4302837047F0B50C46154600220021DB
:1017F000068C4FF6FE773E400684028B018C4FF636
:101800000C7632407E1C06EA03162E433243704E9D
:10181000B0420ED06F4EB0420BD0B0F1804F08D026
:101820006D4EB04205D06D4EB04202D06C4EB0420B
:1018300006D14FF6FD76314044F00106314305E014
:101840004FF6F576314044F00106314302830184BE
:10185000F0BD70B505460C465D4885420ED05D482A
:1018600085420BD0B5F1804F08D05B48854205D04A
:101870005A48854202D05A48854200D100E000BF54
:10188000208850B92389A28861882846FFF7ABFFDA
:10189000E1882846FFF79EFF25E0208804280AD12A
:1018A0002389A28861882846FFF753FFE1882846EC
:1018B000FFF742FF17E0208808280AD12389A28871
:1018C00061882846FFF7FBFEE1882846FFF7EEFE19
:1018D00009E02389A28861882846FFF7A6FEE188EF
:1018E0002846FFF795FE70BD2DE9F04105460C46F0
:1018F00000260127608808B9022600E00026A0889B
:10190000012801D1022700E001272088A0B92389FE
:10191000A28861882846FFF766FFE1882846FFF71E
:1019200059FF23893A4631462846FFF712FFE188DE
:101930002846FFF701FF13E02389A2886188284623
:10194000FFF707FFE1882846FFF7F6FE23893A46AE
:1019500031462846FFF747FFE1882846FFF73AFF60
:10196000BDE8F0810A884B881A438B881A43CB88DC
:101970001A430B891A434B891A438B891A43A0F8DF
:10198000442070474FF6FF71818000210180C180A3
:101990004180017270470021018041808180C180B7
:1019A000018141818181C181704700210180418095
:1019B000012181800021C1800181704700210180C7
:1019C00041808180C1800181418181817047000017
:1019D000002C014000340140000400400008004099
:1019E000000C004021B1028842F00102028004E0B4
:1019F00002884FF6FE731A400280704731B1B0F88A
:101A0000442042F40042A0F8442005E0B0F844200D
:101A1000C2F30E02A0F8442070471AB183890B4329
:101A2000838102E083898B43838170478182704781
:101A300041EA0203A0F8483070471AB183890B438A
:101A4000838102E083898B438381704701894FF64C
:101A5000F8721140018170470A46002101894FF652
:101A60008F73194011430181704730B504460D460C
:101A700029462046FFF7F0FF208940F0070020812B
:101A800030BD2DE9F04104460D4616461F46602D37
:101A900006D13B46012231462046FFF75AFE05E0BB
:101AA0003B46012231462046FFF79DFE294620464F
:101AB000FFF7D2FF208940F007002081BDE8F081C8
:101AC00030B50C4600210189C9B24FF6FF7505EA11
:101AD0000325154325432943018130BD2DE9F041FC
:101AE00005460E4617469846002443463A46314678
:101AF0002846FFF7E5FF2C894FF6F870044044F0C4
:101B000007044FF68F70044044F070042C81BDE848
:101B1000F081F0B504460D4616461F463B46324658
:101B200029462046FFF7CCFF208940F480402081E1
:101B3000F0BD0185828270470A46002101884FF678
:101B40008F731940114301807047F0B50C4615465C
:101B50001E460021002200230189028B038C4FF6D0
:101B6000F877394021434FF6FC473A4040F20117DD
:101B70003A434FF6DD773B404FF6FF7707EA06170B
:101B80002F433B43018102830384F0BD0A460021B9
:101B9000018B4FF68F7319401143018370470A463A
:101BA0000021018B48F6FF7319404FF6FF7303EADB
:101BB00002231943018370470A460021818B4FF6A7
:101BC0008F7319401143818370470A460021818B2E
:101BD00048F6FF7319404FF6FF7303EA02231943D7
:101BE0008183704721B1028842F08002028004E0C4
:101BF00002884FF67F731A400280704721B18288B5
:101C000042F00402828004E082884FF6FB731A409F
:101C10008280704721B1828842F00802828004E00D
:101C200082884FF6F7731A408280704721B182880C
:101C300042F00102828004E082884FF6FE731A406F
:101C4000828070470A460021018B4FF6F7731940D6
:101C50001143018370470A460021018B4FF2FF7345
:101C600019404FF6FF7303EA0223194301837047BB
:101C70000A460021818B4FF6F77319401143818387
:101C800070470A460021818B4FF2FF7319404FF6CF
:101C9000FF7303EA02231943818370470A46002138
:101CA000018B4FF6FB7319401143018370470A46BD
:101CB0000021018B4FF6FF3319404FF6FF7303EA03
:101CC00002231943018370470A460021818B4FF696
:101CD000FB7319401143818370470A460021818BB1
:101CE0004FF6FF3319404FF6FF7303EA02231943FF
:101CF000818370470A460021018B4FF67F7319409C
:101D00001143018370470A460021018BC1F30E0184
:101D10004FF6FF7303EA02231943018370470A4613
:101D20000021818B4FF67F731940114381837047E7
:101D30000A460021818BC1F30E014FF6FF7303EABF
:101D400002231943818370470A460021018C4FF614
:101D5000FD7319401143018470470A460021018C2C
:101D60004FF6F77319401143018470470A4600216A
:101D7000018C4FF6DF7319404FF6FF7303EA02132D
:101D80001943018470470A460021018C4FF67F7386
:101D900019404FF6FF7303EA021319430184704799
:101DA0000A460021018C4FF6FF5319404FF6FF738E
:101DB00003EA02231943018470470A460021018C7B
:101DC0004FF2FF7319404FF6FF7303EA02231943E2
:101DD000018470470A460021018C4DF6FF731940BB
:101DE0004FF6FF7303EA023319430184704730B59D
:101DF000002301248C40A3B2048C9C430484048CF3
:101E000002FA01F5ADB22C43048430BD30B5002395
:101E100004248C40A3B2048C9C430484048C02FAF6
:101E200001F5ADB22C43048430BD70B503460020EB
:101E300000241846183001258D40ACB21D8CA543F6
:101E40001D8409B1082909D100EB6100056825F05E
:101E5000700505600568154305600EE00D1FC5F3AC
:101E60004E052844056825F4E045056005684FF6F1
:101E7000FF7606EA02263543056070BD21B102886F
:101E800042F00202028004E002884FF6FD731A401D
:101E90000280704721B1028842F00402028004E00F
:101EA00002884FF6FB731A400280704721B1828886
:101EB00042F08002828004E082884FF67F731A40ED
:101EC0008280704702884FF6F7731A4002800288BA
:101ED0000A430280704782884FF68F731A408280CF
:101EE00082880A438280704702894FF6F8731A404D
:101EF000028102890A430281704702894FF67F738B
:101F00001A40028102890A43028170478184704726
:101F10008185704781867047018770478187704748
:101F2000A0F84010704702884FF6FF431A40028025
:101F300002880A43028070470146888E7047014636
:101F4000088F70470146888F70470146B1F84000FE
:101F500070470146888C70470146088D70470246DD
:101F60000020138A0B400BB1012000E000207047D5
:101F7000CA430282704730B5024600200023002485
:101F8000158A05EA0103958905EA010413B10CB12C
:101F9000012000E0002030BDCA43028270470000EB
:101FA00010B50446FB48844209D101218803FEF79D
:101FB00019FF00214FF48040FEF714FF32E0F6488D
:101FC000844209D101214804FEF719FF00214FF492
:101FD0000030FEF714FF25E0F048844209D10121CA
:101FE0008804FEF70CFF00214FF48020FEF707FF66
:101FF00018E0EB48844209D10121C804FEF7FFFE36
:1020000000214FF40020FEF7FAFE0BE0E548844281
:1020100008D101210805FEF7F2FE00214FF48010DF
:10202000FEF7EDFE10BD2DE9F04786B005460E46E1
:102030000024A24600BFA1460027B08900B100BF1E
:102040002F462C8A4CF6FF700440F08804432C8203
:10205000AC894EF6F3100440B08831890843718989
:1020600008430443AC81AC8A4FF6FF400440B0897A
:102070000443AC8201A8FEF72EFEC648874202D177
:10208000DDF810A001E0DDF80CA0A88900F4004004
:1020900040B10AEBCA0000EB0A1031684900B0FBFE
:1020A000F1F807E00AEBCA0000EB0A10316889007A
:1020B000B0FBF1F86420B8FBF0F0040120096421C2
:1020C00001FB1089A88900F4004040B1322000EBE8
:1020D000C900B0FBF1F000F00700044308E0322033
:1020E00000EB09106421B0FBF1F000F00F00044395
:1020F0002C8106B0BDE8F0874FF416510160002135
:102100008180C18001810C21418100218181704742
:1021100010B502460020108A4FF2FF0318400B88CA
:102120004C8823438C882343CC8823431843108254
:1021300010BD0021018041808180C180704721B1A4
:10214000828942F40052828104E082894DF6FF7355
:102150001A4082817047F0B503460024002600250E
:10216000002040F66A17B94200D100BF1846C1F3FB
:10217000421401F01F06012707FA06F5012C01D1D0
:102180000C3004E0022C01D1103000E014301AB100
:1021900007682F43076002E00768AF430760F0BDA0
:1021A0001AB1838A0B43838202E0838A8B43838242
:1021B0007047028A4FF6F0731A400282028A0A437D
:1021C0000282704782894FF2FF731A4082818289AE
:1021D0000A438281704721B1828942F002028281E2
:1021E00004E082894FF6FD731A4082817047028AAB
:1021F0004FF6DF731A400282028A0A430282704756
:1022000021B1028A42F48042028204E0028A4BF643
:10221000FF731A4002827047C1F308028280704740
:1022200001468888C0F308007047818941F00101A8
:1022300081817047028BD2B20283028B42EA012273
:1022400002837047028B02F47F420283028B0A43AF
:102250000283704721B1828A42F02002828204E028
:10226000828A4FF6DF731A408282704721B1828AD8
:1022700042F01002828204E0828A4FF6EF731A4025
:102280008282704721B1828A42F00802828204E091
:10229000828A4FF6F7731A408282704721B1828991
:1022A00042F40042828103E08289C2F30E028281FD
:1022B000704721B1828A42F40062828204E0828AFD
:1022C0004FF2FF731A4082827047828A4FF6FB7387
:1022D0001A408282828A0A438282704721B1828AAE
:1022E00042F00202828204E0828A4FF6FD731A40B5
:1022F0008282704702460020B1F5007F00D100BF06
:1023000013880B400BB1012000E00020704701F45E
:102310000072B2F5007F00D100BFCA43028070474F
:1023200070B50246002400230025002040F66A16FE
:10233000B14200D100BFC1F3421501F01F030126D5
:1023400006FA03F3012D02D19689334006E0022DEF
:1023500002D1168A334001E0968A33400C120126DE
:1023600006FA04F41688344013B10CB1012000E0E1
:10237000002070BD10B50022002340F66A14A1426F
:1023800000D100BF0A1201249440A3B2DC430480B0
:1023900010BD0000003801400044004000480040EB
:1023A000004C00400050004010B56FF00400FEF7F4
:1023B000FCF82E4800682E49B0FBF1F02D4908705A
:1023C0000846007800EB4001C1EBC0104FF6FF71EA
:1023D00001EAC0002849088010BD0146254A12784C
:1023E0004A434FF0E0235A6100229A611A4612696B
:1023F00042F001021A6100BF4FF0E022106900F0C4
:1024000001021AB100F48032002AF5D04FF0E02228
:10241000126922F001024FF0E0231A6100229A6152
:1024200070470146144A12884A434FF0E0235A612C
:1024300000229A611A46126942F001021A6100BF35
:102440004FF0E022106900F001021AB100F480326E
:10245000002AF5D04FF0E022126922F001024FF07D
:10246000E0231A6100229A617047000000000020FA
:1024700000127A00E8000020EA000020A34A0A4087
:102480000243A34B1A6070470146072323EA010267
:1024900012029F4B1B1D18684FF6FF0318409D4BFF
:1024A000184310439A4B1B1D186070472DE9F041EB
:1024B0000746884614461D462846FFF7E5FFC5F146
:1024C000040007FA00F60F20284100EA080006433E
:1024D00006F00F06E21704EBD2625211920002F1ED
:1024E000E022D2F800212146E31704EBD3635B110D
:1024F000A4EB431C012303FA0CF31A432046E31711
:1025000004EBD3635B119B0003F1E023C3F80021CC
:102510008148005D40EA06107F490855BDE8F0811A
:1025200070B504460B46CE1701EB9676C6F38700CE
:10253000CE1701EB9676B610A1EB8606B606350EE1
:10254000764B9B6943F00103744EB3614FEAB63397
:1025500053F820300F26AE40B343714E46F820307A
:10256000334653F8203004FA05F61E436C4B43F80B
:1025700020606C4B1B6801268E403343694E3360EC
:1025800002F0010343B1674B0C331B6801268E40F8
:102590003343644E0C36336002F0020343B1614BA7
:1025A00008331E6801238B401E435E4B08331E60B8
:1025B00070BD00B5002059490861C8601420486109
:1025C00000208861C8610846006840F0010008608A
:1025D0000846406854490840504948600846006829
:1025E000524908404D4908600846006820F48020A0
:1025F00008600846406820F4FE00486000208860BB
:1026000000214FF00060FFF739FF00BD10B54048D2
:102610000830006840F004003D49083108603F4838
:10262000C06940F080503D49C8614148406840F46D
:1026300080703F4948600846006840F00400086028
:102640000846006840F002000860FDF7C1FD10BDBB
:102650003048001D2E49091D086070470146490693
:102660002E4A926942F001022C4B9A612C4A083A98
:10267000526822F0E0622A4B083B5A601A465268C0
:102680000A435A60704730B504460025FFF791FFB2
:102690002248006840F480302049086000BF1F488D
:1026A0000068400C0028FAD04FF480601B49486055
:1026B000A01EC4B20846406840EA8440486008460C
:1026C000406840F4803048601A48006840F03200AA
:1026D000184908601148006840F080700F49086090
:1026E00000BF0E480068400E0028FAD00B48406832
:1026F00040F002000949486005E008484068C0F31E
:10270000870505F00305022DF7D130BD80FFFF1FBF
:1027100008ED00E00000FA0500E400E000100240CF
:1027200008000140000401400000FFF8FFFFF6FE32
:102730000070004000200240014600BF704700BF0B
:10274000494A128802F04002002AF9D0C2B2464B30
:102750001B1D1A80704710B586B00446012144F253
:102760000400FEF725FB4FF40070ADF814000320C1
:102770008DF8160018208DF8170005A93B48FDF7C5
:10278000F5FF4FF48060ADF8140004208DF81700B9
:1027900005A93648FDF7EAFF25208DF80000012045
:1027A0008DF801008DF802008DF803006846FDF7F2
:1027B000B2FE01940020ADF80800ADF80A00ADF8B3
:1027C0000C00ADF810000C20ADF80E0001A9264851
:1027D000FFF729FC012240F225512348FFF7BBFCFB
:1027E00001212148FFF7ABFC06B010BD10B540F247
:1027F00025511D48FFF794FD10B31B48FFF710FD4E
:10280000C4B21B48008800F40040C8B918480088CA
:1028100000F4804060B10A2C03D0002014490880E5
:1028200020E01348008840F400401149088019E076
:102830000D2C06D10E48008840F480400C490880D9
:1028400010E00B480088C0F30D000A490C540848FA
:102850000088401C0649088008460088C72801DD1A
:102860000020088010BD0000003801400008014031
:10287000F0000020E501002008B501210420FEF74A
:1028800097FA1020ADF800008DF8030003208DF8B2
:10289000020069460C48FDF769FF08BD18B9002120
:1028A0000A4A11600FE00A490968491C084A116088
:1028B000814208D105490968C943064AC2F8901106
:1028C0000021034A11607047000801409001214235
:1028D000F40000200000214208B501210420FEF789
:1028E00067FA2020ADF8000048208DF80300694603
:1028F0008048FDF73BFF0120FEF791F80020FEF72E
:10290000C4F90020FDF77BFE0020FEF788F808BD23
:1029100001467948006828B978480088401C774A01
:10292000108002E00020754A10807348006828B9C2
:102930007348007810B90120714A1070714800780E
:10294000B0B96F480078012807D16F480078401C63
:102950006D4A107001206B4A10706B480078022895
:1029600006D10020684A1070684A10800220704723
:1029700061480068012804D10020614A1070614A52
:1029800010706148007801281CD160480088401C04
:102990005E4A10801046008888420ADD5748008849
:1029A000884206DA0020584A1070584A10800120E8
:1029B000DDE752480088884204DD0020524A10704A
:1029C000524A10800020D2E751480078002831D0C8
:1029D0004948006870B14F48006858B14648001D2A
:1029E000006838B14B48001F006818B149480838E2
:1029F0000068F8B90020464A10703F48006808B9DE
:102A0000012115E04348006808B9022110E041485F
:102A10000838006808B903210AE03748001D00683B
:102A200008B9042104E03B48001F006800B90521F3
:102A3000C8B2704730480068012814D13548006892
:102A4000012810D12C48001D006801280BD1314805
:102A5000001F0068012806D12E48083800680128A8
:102A600001D12B4A10700020E3E72B48008840B9C1
:102A70002148006828B929480088401C2749088057
:102A800002E000202549088024480088C82807DD86
:102A9000012021490880002020490880012070473A
:102AA0001D480088012802D100201B490880002011
:102AB000F5E710B51A48007888B120210D48FDF7D8
:102AC000E8FE60B90A20FFF7ACFC0020144908704A
:102AD00020210848FDF7DDFE48B9012010BD202166
:102AE0000448FDF7D6FE012801D10D4908700020E9
:102AF000F4E700000008014014012142FE0000201C
:102B0000F8000020F9000020FA000020FC0000205E
:102B1000000100203C0122420401002002010020AB
:102B20000601002010B50A461AB10123FE4C2360AD
:102B300002E00023FC4C2360002114E00023FB4C46
:102B4000236000F080031BB10123241F236003E0F6
:102B50000023F64C241F23600123F44C236043061A
:102B6000180E4B1CD9B20829E8DB0123EE4C236078
:102B700010BD30B500241CE004F1B001C8B2002142
:102B8000FFF7D0FF00210846FFF7CCFF00211020FF
:102B9000FFF7C8FF002508E0E54901EBC501085D26
:102BA0000121FFF7BFFF681CC5B2802DF4DB601C5C
:102BB000C4B2082CE0DB30BD00B500218D20FFF74A
:102BC000B1FF00211420FFF7ADFF0021AF20FFF778
:102BD000A9FF00BD00B500218D20FFF7A3FF002154
:102BE0001020FFF79FFF0021AE20FFF79BFF00BDE5
:102BF00030B500240CE0002506E00020CC4901EBB4
:102C0000C5010855681CC5B2802DF6DB601CC4B236
:102C1000082CF0DBFFF7ADFF30BDF0B51446002601
:102C20007F2801DC3F2900DDF0BD0B46CF1701EB0B
:102C30005777FF10C7F10707FAB2CF1701EB5777A5
:102C4000FF10A1EBC707FDB2C5F107070123BB4089
:102C5000DEB24CB1B64B03EBC0039B5C3343B44FC5
:102C600007EBC007BB5408E0B14B03EBC0039B5C10
:102C7000B343AF4F07EBC007BB5400BFD4E72DE908
:102C8000F84F80460E4617461C46B2462046E317CC
:102C900004EB5373DB1021464FEAE47C04EB5C7CCD
:102CA0004FEAEC0CA4EBCC0CBCF1000F02D04FF0BF
:102CB000010C01E04FF0000C6344224604EBD27C8F
:102CC0004FEA6C0C03FB0CF303F0FF0BA7F12000A1
:102CD000C7B2002544E00C2C07D107EB470095490B
:102CE00001EB8000405D009009E0102C05D1924876
:102CF00000EB0710405D009001E0BDE8F88F4FF059
:102D0000000927E0009800F0800028B131464046D5
:102D10000A9AFFF782FF09E00A9808B9012000E04B
:102D20000020024631464046FFF777FF00984006F4
:102D3000000E0090701CC6B2A6EB0A00A04205D19E
:102D4000564608F1010000F0FF0806E009F1010015
:102D500000F0FF09B9F1080FD4DB00BF681CC5B251
:102D60005D45B8DB00BFC8E710B50246012000E0B2
:102D700050430B00A1F10104E1B2F9D110BD2DE9DE
:102D8000FF4F81B0074691461E460E9D4FF0000A48
:102D9000002439E0301B401EC1B20A20FFF7E4FFD7
:102DA000B9FBF0F00A21B0FBF1F201FB1208BAF115
:102DB000000F16D1701EA04213DDB8F1000F0ED126
:102DC0000120AB4605EBDB71491001FB047100905B
:102DD000C8B22B4620220299FFF751FF12E04FF0B4
:102DE000010A0120AB4605EBDB71491001FB0471C0
:102DF0000090C8B208F13001CAB22B460299FFF721
:102E00003EFF00BF601CC4B2B442C3DB05B0BDE8E6
:102E1000F08FF8B506460F4615460C2421E004EB6A
:102E2000D4714910C1F18001B14202DA002638198B
:102E3000C7B2C4F14000B84204DA00200646074693
:102E4000FFF7D6FE0120E3B200902A7839463046DB
:102E5000FFF715FF204604EBD07106EB6101CEB2FF
:102E60006D1C28787E2802DC28782028D7DAF8BD67
:102E700008B501210820FDF79BFF3820ADF80000C0
:102E800010208DF8030002208DF8020069462B48BF
:102E9000FDF76CFC01210420FDF78AFF4FF4004090
:102EA000ADF8000002208DF8020010208DF803001C
:102EB00069462348FDF75AFC0120FDF7B0FD0020CC
:102EC000FDF7E3FE0020FDF79AFB0020FDF7A7FDCC
:102ED00000201649083908606420FFF7A2FA012093
:102EE0001849C1F88C010021AE20FFF71BFE00211C
:102EF000D520FFF717FE00215020FFF713FE002119
:102F0000A820FFF70FFE00213F20FFF70BFE002156
:102F1000D320FFF707FE00210846FFF703FE00213C
:102F20004020FFF7FFFD0FE0BC01214294812142C8
:102F3000AD020020566D0008CA710008000C014067
:102F4000000801400080214200218D20FFF7EAFDAA
:102F500000211420FFF7E6FD00212020FFF7E2FD0D
:102F600000210220FFF7DEFD0021A120FFF7DAFD9E
:102F70000021C020FFF7D6FD0021DA20FFF7D2FDA7
:102F800000211220FFF7CEFD00218120FFF7CAFDAE
:102F90000021EF20FFF7C6FD0021D920FFF7C2FD79
:102FA0000021F120FFF7BEFD0021DB20FFF7BAFD75
:102FB00000213020FFF7B6FD0021A420FFF7B2FD6D
:102FC0000021A620FFF7AEFD0021AF20FFF7AAFDEC
:102FD000FFF70EFE08BD7FB505460C4601210846E9
:102FE000FDF7F3FEADF80850ADF804400020ADF851
:102FF0000A00ADF8060001A94FF08040FEF796F9EF
:10300000012211469007FEF708FD1C208DF80000F4
:1030100000208DF8010001208DF802008DF80300DA
:103020006846FDF778FA01218807FEF7DBFC7FBDD3
:1030300030B589B005460C4601210420FDF7C5FED8
:1030400001210820FDF7B4FE4FF47070ADF82000A8
:1030500018208DF8230002208DF8220008A94D4881
:10306000FDF784FBADF81850ADF814400020ADF822
:103070001A00ADF8160005A94748FEF757F9602079
:10308000ADF804000120ADF806000020ADF80A00FC
:10309000ADF80C0001A94048FEF785F901A93E48AA
:1030A000FEF7C3F901A93C48FEF70CFA01A93A481A
:1030B000FEF753FA08213848FEF7C4FD08213648C8
:1030C000FEF7C9FD08213448FEF7D2FD0821324839
:1030D000FEF7D7FD01213048FEF784FD01212E487F
:1030E000FEF780FC09B030BD2C4A926942F40062C0
:1030F0002A4B9A611A46926942F004029A61284A60
:1031000012684FF20F039A43254B1A601A46126851
:103110004BF20B031A43224B1A60224A1080121FF3
:103120001180204A103A128842F4C0421D4B103BD5
:103130001A801A1F128842F060021B1F1A801A1D83
:10314000128842F400621B1D1A801A1F128842F076
:1031500008021B1F1A80134A0C3A128842F480524C
:10316000104B0C3B1A801A46128842F001021A805A
:103170000C4A1832128842F400420A4B18331A8063
:103180008022084B2C3B1A801A46128842F001021A
:103190001A807047000C01400008004000100240F7
:1031A000040801402C2C014010B586B004460121D2
:1031B0000820FDF7FDFD01218804FDF706FE4FF410
:1031C0008060ADF8140003208DF8160018208DF8EB
:1031D000170005A91F48FDF7C9FA4FF40060ADF8C4
:1031E000140004208DF8170005A91A48FDF7BEFA4F
:1031F00027208DF8000000208DF8010001208DF8B7
:1032000002008DF803006846FDF785F9019400205F
:10321000ADF80800ADF80A00ADF80C00ADF81000EC
:103220000C20ADF80E0001A90B48FEF7FCFE0122B0
:1032300040F225510848FEF78EFF01210648FEF7AF
:103240007EFF06B010BD10B540F225510248FFF7D1
:1032500067F810BD000C01400048004070B50546FD
:10326000002405E0601CC4B2C82C01DD002070BD44
:1032700002213A48FDF74FFF0028F3D0294637488E
:10328000FDF7F6FE002405E0601CC4B2C82C01DD89
:103290000020ECE701213148FDF73DFF0028F3D085
:1032A0002E48FDF7E7FEC0B2E1E700B587B0012187
:1032B0000820FDF77DFD01218803FDF786FD4FF411
:1032C0006040ADF8180018208DF81B0003208DF821
:1032D0001A0006A92248FDF749FA4FF46041204838
:1032E000FDF7F1FA0020ADF804004FF48270ADF85C
:1032F00006000020ADF808000220ADF80A00012009
:10330000ADF80C004002ADF80E003820ADF810000A
:103310000020ADF812000720ADF8140001A90F48F5
:10332000FDF7D0FD01210D48FDF771FEFF20FFF7ED
:1033300095FF07B000BD10B50446084800884FF659
:10334000C771084005490880084600882043088066
:1033500001210248FDF75BFE10BD0000003800406F
:10336000000C014000B587B001211820FDF720FDB9
:103370004FF48050ADF8180028208DF81B00032072
:103380008DF81A0006A9B948FDF7F0F94FF48051FD
:10339000B648FDF798FA4FF44040ADF818001020F9
:1033A0008DF81B0006A9B248FDF7E0F94FF4404143
:1033B000AF48FDF78AFA4FF48051AC48FDF785FA23
:1033C000FFF773FF0021AB48FDF721FE0020ADF8A9
:1033D00004004FF48270ADF806000020ADF808003C
:1033E000ADF80A00ADF80C004FF40070ADF80E0017
:1033F0001820ADF810000020ADF812000720ADF83D
:10340000140001A99B48FDF75DFD01219948FDF7D6
:10341000FEFD00209849086001209849C1F8B801D4
:1034200007B000BD2DE9F04107460D4616460020C5
:103430009149091F08603846FFF710FF80460024B5
:1034400005E0FF20FFF70AFF2855601CC4B2B44214
:10345000F7DB01208849091F08604046BDE8F0817C
:103460002DE9F04107460C46154600208249091F08
:1034700008603846FFF7F2FE8046002605E014F8A3
:10348000010BFFF7EBFE701CC6B2AE42F7DB01206A
:103490007949091F08604046BDE8F0811CB578A154
:1034A00003C9CDE900010820FFF745FF0522694661
:1034B0003020FFF7D5FF052269461020FFF7B2FF45
:1034C000002406E01DF80400A52800D003E0601CDD
:1034D000C4B2052CF6DB00BF052C01D001201CBDB9
:1034E0000020FCE770B505460C4600206249091F24
:1034F00008602846FFF7B2FE06462046FFF7AEFEFC
:1035000001205E49C1F8B801304670BD70B504466F
:1035100000205949091F08602046FFF79FFEFF2041
:10352000FFF79CFE054601205449C1F8B801284622
:1035300070BD70B505461020FFF7FDFE00204E4916
:10354000086020222946A020FFF78AFF01204B496E
:10355000C1F8BC0100BF4C4800680028FBD107201F
:10356000FFF7D4FF044621462720FFF7BBFF04F0F6
:10357000100028B1FF21E120FFF7B4FF102070BD3B
:1035800004F0200008B12020F9E7FF20F7E770B52C
:1035900004461020FFF7CFFE0720FFF7B7FF0546D0
:1035A00029462720FFF79EFF05F0400050B120225A
:1035B00021466120FFF736FFFF21E220FFF792FF4F
:1035C000002070BD0120FCE710B500202A490860EA
:1035D00005222E492A20FFF743FF01212120FFF772
:1035E00081FF01212220FFF77DFF28212520FFF701
:1035F00079FF20213120FFF775FF0F212620FFF7EB
:1036000071FF0F212020FFF76DFF01201B49C1F83A
:10361000BC0110BD10B500201749086005221C49E7
:103620003020FFF71DFF052218492A20FFF718FF59
:1036300001212120FFF756FF01212220FFF752FF31
:103640001A212420FFF74EFF28212520FFF74AFFEB
:103650000F212620FFF746FF0E212020FFF742FF13
:1036600001200649C1F8BC0110BD0000000C01405A
:103670000010014000380040BC01224200002242FC
:10368000A5A5A5A5A500000030812142BF770008AF
:10369000BA7700082DE9FF4F97B00D4616461F4632
:1036A000179802F07FFFCDE90E01384602F07AFF4D
:1036B000CDE9080102F044F94FF04042FE4BCDE95C
:1036C0000A0102F095FCCDE90C01DDE90E2302F0C0
:1036D0007FFECDE9100102F0F7F98046284602F09E
:1036E00061FFCDE90E01384602F05CFFCDE908012B
:1036F00002F074F94FF04042EF4BCDE90A0102F0BD
:1037000077FCCDE90C01DDE90E2302F061FECDE985
:10371000100102F0D9F981464946484603F026F9DE
:1037200041460F90404603F021F9E4490D9003F023
:103730001AFA0E900F9903F021FA4FF08041109081
:1037400002F0CAFFDE49119002F0C6FF82464946E8
:10375000484603F00BF941461190404603F006F944
:103760001090119902F04AFF834649464FF04040BD
:1037700003F0FCF85146119003F0F8F80446414676
:10378000404603F0F3F851461190504603F0EEF82E
:103790001090119903F0F2F9169059464FF08140BC
:1037A00003F0E4F80E90169903F0E0F8214610902B
:1037B000204603F0DBF80F90109903F0DFF90021A9
:1037C000119003F09FF80BD8BE480068BE4908600E
:1037D000BE480068BE49086000201BB0BDE8F08FFD
:1037E000584602F0DFFECDE90E0159464FF0814008
:1037F00003F0BCF80090169903F0B8F82146029047
:10380000204603F0B3F80190029903F0B7F9039052
:1038100002F0C8FECDE9040102F030F9CDE908015B
:1038200084F00040059002F0BDFECDE90601DDE91F
:10383000082302F07BF900224FF08043CDE90A0112
:1038400002F024FACDE90C01DDE90E2302F01EFAA4
:10385000CDE9100102F038F91590159802F0A2FE9A
:10386000CDE90A0101F034FF00229A4BCDE90C01A9
:1038700002F0BEFB984A994BCDE90E0102F006FA20
:10388000CDE9100102F020F915909549159803F043
:1038900039F901D2924815909249159803F032F8FF
:1038A00001D2904815904946484603F05FF84146DA
:1038B0000F90404603F05AF88B490D9003F053F9EE
:1038C0000E900F9903F05AF94FF08041109002F0DA
:1038D00003FF8649119002F0FFFE824649464846A2
:1038E00003F044F841461190404603F03FF8109031
:1038F000119902F083FE834649464FF0404003F0A1
:1039000035F85146119003F031F8044641464046DF
:1039100003F02CF851461190504603F027F8109010
:10392000119903F02BF9169059464FF0814003F09E
:103930001DF80E90169903F019F8214610902046B4
:1039400003F014F80F90109903F018F9002111906A
:1039500002F0D8FF09D85B4800685B4908605B4803
:1039600000685B490860002037E7584602F01AFEFD
:10397000CDE90E0159464FF0814002F0F7FF00906B
:10398000169902F0F3FF21460290204602F0EEFF66
:103990000190029903F0F2F8039002F003FECDE9E2
:1039A000040102F06BF8CDE9080184F000400590B5
:1039B00002F0F8FDCDE90601DDE9082302F008FD7B
:1039C00000224FF08043CDE90A0102F05FF9CDE912
:1039D0000C01DDE90E2302F059F9CDE9100102F0E6
:1039E00073F81290129802F0DDFDCDE90A0101F0A2
:1039F0006FFE0022374BCDE90C0102F0F9FA364A8E
:103A0000364BCDE90E0102F041F9CDE9100102F08B
:103A10005BF812903249129803F074F801D23048E2
:103A200014903049129802F06DFF01D22D48149085
:103A30001599129803F0A2F814902949149803F0EC
:103A400061F801D2264814902649149802F05AFFD2
:103A500001D224481490149802F0A4FDCDE90E017F
:103A6000159802F09FFDCDE90A012149384602F080
:103A70007DFF059002F096FD174A184BCDE906012F
:103A800002F004F9CDE90801DDE90A2302F0A0FC07
:103A9000CDE90C01DDE90E2302F09AFCCDE910011D
:103AA00002F012F813900E49139803F02BF801D28C
:103AB0000B4813900B491DE0F528AC3F1BE8A1BB58
:103AC0003D0AD73D28010020A00000202C01002045
:103AD000A400002000806640F1D4C853FB210940B7
:103AE0000000B4420000B4C21BE8A13B77BE9F3D7A
:103AF00000003443139802F005FF01D2FA481390F6
:103B0000FA49304602F032FFF949119003F02BF8E0
:103B1000F8490860F849159803F030F8F349109017
:103B200002F024FFF549119003F01DF8F4490860F4
:103B3000EE49149802F01AFFF249119002F05EFD6E
:103B4000F1490860E949139802F010FFE849119023
:103B500002F054FDED490860E449249802F006FFA4
:103B6000EB49119002F0FFFFEA490860EA4800685B
:103B7000EA490860EA480068EA49086000202CE643
:103B80002DE9F04706460F4614461D46DDE9088933
:103B9000E5480168304602F031FDE34908603946E6
:103BA000E248006802F02AFDE04908602146E0484A
:103BB000006802F023FDDE4908602946DD48006800
:103BC00002F01CFDDB4908604146DB48006802F05A
:103BD00015FDD94908604946D848006802F00EFD35
:103BE000D6490860D048006802F054FED4490880E5
:103BF000CE48006802F04EFED149091D0880CC482D
:103C0000006802F047FECE4908310880C9480068C4
:103C100002F040FECA490C310880C748006802F033
:103C200039FEC8490880C548006802F033FEC5491E
:103C30000C310880BDE8F08770B5C348006802F019
:103C40000DFE0646C048006880F00045284602F098
:103C500005FE0446204602F03DFE0546BB480168CD
:103C6000284602F04FFF04D2204602F033FEB74947
:103C70000860304602F02EFE0546B448016828462A
:103C800002F040FE04D2304602F024FEAF49086044
:103C9000204602F01FFE0546AD480168284602F0A6
:103CA00031FF04D2204602F015FEA94908603046D3
:103CB00002F010FE0546A6480168284602F022FEE2
:103CC00004D2304602F006FEA1490860204602F008
:103CD00001FE05469F480168284602F013FF04D202
:103CE000204602F0F7FD9B490860304602F0F2FDE5
:103CF000054698480168284602F004FE04D2304682
:103D000002F0E8FD93490860204602F0E3FD054615
:103D100091480168284602F0F5FE04D2204602F0E0
:103D2000D9FD8D490860304602F0D4FD05468A4829
:103D30000168284602F0E6FD04D2304602F0CAFDD2
:103D400085490860204602F0C5FD054683480168A4
:103D5000284602F0D7FE04D2204602F0BBFD7F4980
:103D60000860304602F0B6FD05467C4801682846EA
:103D700002F0C8FD04D2304602F0ACFD774908607D
:103D8000204602F0A7FD054675480168284602F066
:103D9000B9FE04D2204602F09DFD7149086030460C
:103DA00002F098FD05466E480168284602F0AAFD1B
:103DB00004D2304602F08EFD6949086070BD2DE9DD
:103DC000F04704460D462946204602F0CCFE6549E0
:103DD0000860084601686448006802F00FFC624908
:103DE0000860624801685F48006802F0C7FE8146CB
:103DF0005F480168484602F0B9FD80465D4902F01F
:103E00006BFC0646584801685B48006802F0AEFD4E
:103E10008246584902F060FC804652480168574883
:103E2000006802F0A3FD8246524902F055FC81462B
:103E3000414602F0E3FB0746314602F0DFFB504902
:103E4000086048480068494908604D480068BDE876
:103E5000F0872DE9F04704460D462946204602F03A
:103E600082FE48490860084601684748006802F039
:103E7000C5FB45490860454801684248006802F0B2
:103E80007DFE81463A480168484602F06FFD804653
:103E9000384902F021FC06463B4801683648006874
:103EA00002F064FD8246334902F016FC8046354834
:103EB00001683248006802F059FD82462D4902F03F
:103EC0000BFC8146414602F099FB0746314602F061
:103ED00095FB2F4908602B4800682C4908602C4846
:103EE0000068BDE8F08700000000B4C2508DA34018
:103EF00000803B44880000200000B442004045445C
:103F00008C000020004033449000002094000020EA
:103F1000000048449C000020A00000202801002050
:103F2000A40000202C0100204400002048000020B4
:103F30004C000020500000205400002058000020B9
:103F400034080040342C01405C0000202C0000208C
:103F50003000002034000020380000203C00002009
:103F60004000002080010020880100208C010020FA
:103F7000BC0000200000C842B8000020B4000020AF
:103F80008401002070010020780100207C010020C5
:103F9000740100202DE9F04704460D4629462046CD
:103FA00002F0E1FDFE49086008460168FD4800682E
:103FB00002F024FBFB490860FB480168F8480068F0
:103FC00002F0DCFD8146F9480168484602F0CEFC6B
:103FD0008046F74902F080FB0646F2480168F54842
:103FE000006802F0C3FC8246F14902F075FB80468E
:103FF000EB480168F048006802F0B8FC8246EC49E2
:1040000002F06AFB8146414602F0F8FA0746314663
:1040100002F0F4FAE9490860E1480068E249086002
:10402000E6480068BDE8F0872DE9F04704460D46F4
:104030002946204602F097FDE149086008460168DC
:10404000E048006802F0DAFADE490860DE480168FC
:10405000DB48006802F092FD8146D448016848467A
:1040600002F084FC8046D24902F036FB0646D54871
:104070000168D048006802F079FC8246CC4902F021
:104080002BFB8046CE480168CB48006802F06EFCEE
:104090008246C74902F020FB8146414602F0AEFA53
:1040A0000746314602F0AAFAC8490860C4480068C9
:1040B000C5490860C5480068BDE8F0872DE9F047AC
:1040C00004460D462946204602F04DFDC0490860D1
:1040D00008460168BF48006802F090FABD490860D0
:1040E000BD480168BA48006802F048FD8146AF4803
:1040F0000168484602F03AFC8046AD4902F0ECFA0D
:104100000646B4480168AB48006802F02FFC8246BE
:10411000A74902F0E1FA8046AD480168A648006868
:1041200002F024FC8246A24902F0D6FA81464146BA
:1041300002F064FA0746314602F060FAA7490860C7
:10414000A3480068A4490860A4480068BDE8F08757
:104150002DE9F04704460D462946204602F003FDAE
:104160009F490860084601689E48006802F046FAC8
:104170009C4908609C4801689948006802F0FEFC70
:1041800081468A480168484602F0F0FB804688492B
:1041900002F0A2FA0646934801688648006802F0D9
:1041A000E5FB8246824902F097FA80468C48016816
:1041B0008148006802F0DAFB82467D4902F08CFA01
:1041C0008146414602F01AFA0746314602F016FAD5
:1041D000864908608248006883490860834800680F
:1041E000BDE8F08770B54FF49664A510284602F03C
:1041F00071FB06467E480168304602F083FC04D21B
:10420000284602F067FB7A490860204602F062FB0C
:10421000064677480168304602F074FB04D2204617
:1042200002F058FB72490860284602F053FB06462C
:1042300070480168304602F065FC04D2284602F05E
:1042400049FB6C490860204602F044FB0646694879
:104250000168304602F056FB04D2204602F03AFBD9
:1042600064490860284602F035FB0646624801684A
:10427000304602F047FC04D2284602F02BFB5E4990
:104280000860204602F026FB06465B48016830467F
:1042900002F038FB04D2204602F01CFB56490860AD
:1042A000284602F017FB064654480168304602F0E3
:1042B00029FC04D2284602F00DFB50490860204634
:1042C00002F008FB06464D480168304602F01AFB32
:1042D00004D2204602F0FEFA48490860284602F05F
:1042E000F9FA064646480168304602F00BFC04D253
:1042F000284602F0EFFA42490860204602F0EAFA46
:1043000006463F480168304602F0FCFA04D22046D7
:1043100002F0E0FA3A490860284602F0DBFA064665
:1043200038480168304602F0EDFB04D2284602F01E
:10433000D1FA34490860204602F0CCFA06463148EA
:104340000168304602F0DEFA04D2204602F0C2FADA
:104350002C49086070BD2DE9F0474FF0000900249A
:10436000A04600254FF49666B71000BF53E12648DB
:10437000005D54287ED1641C2348005DA0F1300804
:10438000B8F1070F65D2DFE808F064046591BBF06F
:10439000EE00A41C1C48005D30384FF47A7135E003
:1043A00060010020680100206C010020BC0000209A
:1043B0000000C842B8000020B400002064010020C2
:1043C00050010020580100205C0100205401002011
:1043D00040010020480100204C0100204401002041
:1043E00030010020380100203C0100203401002071
:1043F000880000208C000020900000209400002005
:10440000980000209C000020C40100204843F84A86
:10441000611C515C303901EBC10202EB011100EB70
:104420008101F34AA01C105C303800EB800001EBE6
:104430004001E01C105C30380D18AF4201DC012057
:1044400000E00020B04204DC284602F043FAE949CB
:104450000860DEE0A41CE648005D30384FF47A7155
:104460004843E34A611C515C303901EBC10202EB65
:10447000011100E0CEE000EB8101DD4AA01C105CE0
:10448000303800EB800001EB4001E01C105C30385C
:104490000D18AF4201DC012000E00020B04204DC36
:1044A000284602F017FAD4490860B2E0A41CD048AC
:1044B000005D30384FF47A714843CD4A611C515C3D
:1044C000303901EBC10202EB011100EB8101C84A56
:1044D000A01C105C303800EB800001EB4001E01CB8
:1044E000105C30380D18AF4201DC012000E00020E4
:1044F000B04204DC284602F0EDF9C049086088E0CB
:10450000A41CBB48005D302801DB012000E0002036
:1045100039281BDCB648005D30384FF47A714843C7
:10452000B34A611C515C303901EBC10202EB01114D
:1045300000EB8101AE4AA01C105C303800EB80001B
:1045400001EB4001E01C105C30380D18AF4201DC7B
:10455000012000E00020B04204DC284602F0BAF955
:10456000A749086055E02AE0FFE7A41CA048005DC9
:1045700030384FF47A7148439D4A611C515C3039A0
:1045800001EBC10202EB011100EB8101984AA01C72
:10459000105C303800EB800001EB4001E01C105C47
:1045A00030380D18AF4201DC012000E00020B0429D
:1045B00004DC284602F08EF99249086029E0A41C28
:1045C0008B48005D30384FF47A714843884A611C4B
:1045D000515C303901EBC10202EB011100EB8101AA
:1045E000834AA01C105C303800EB800001EB4001D6
:1045F000E01C105C30380D18AF4201DC012000E0F7
:104600000020B04204DC284602F064F97E490860CC
:1046100000BF00BF641C212CFFF6A9AE00207B491F
:104620000880BDE8F0871CB501218807FDF7A3FCD1
:1046300000285CD001218807FDF7AEFC74480078A3
:1046400001280BD173480078401CC0B27149087032
:10465000052803D1002008706D490870FFF77BFE24
:10466000FFF7C0FD634801686B480068FFF770FD05
:104670006A4908606048016869480068FFF71EFDE4
:10468000684908605D48016867480068FFF7CCFC2E
:10469000664908605A48016865480068FFF77AFC77
:1046A000644908605748016863480068FFF7D1FB18
:1046B000624908605448016861480068FFF77FFB61
:1046C00060490860FFF7B8FA5E4800685B4909680E
:1046D000CDE9001057480368544802685148016802
:1046E0004E480068FFF74CFA6420FEF7D7F8002028
:1046F0001CBD0146B1F52F7F01DA012000E000204A
:1047000070472DE9F0474FF000090024A04600252E
:104710004FF49666B7103D480088C0F30D0900BFFE
:10472000FCE04948005D542861D1641C4648005DA6
:10473000A0F13008B8F1070F23D2DFE808F0ED044C
:10474000234290AFCE00A41C3F48005D3038642166
:1047500048433D4A611C515C303901EB810100EB5B
:104760004101A01C105C30380D18AF4201DC012063
:1047700000E00020B04204DC284602F0ABF81D49FE
:104780000860C9E0A41C3048005D3038642148430B
:104790002D4A611C515C303901EB810100EB410174
:1047A000A01C105C30380D18AF4201DC012000E085
:1047B0000020B04204DC284602F08CF80E49086064
:1047C000AAE0A41C2048005D3038642148431E4AFA
:1047D000611C515C303901EB810100EB4101A01CEF
:1047E000105C30380D18AF4230DC01202FE094E02F
:1047F000C4010020880000208C00002090000020D0
:1048000094000020980000209C000020F000002070
:104810006500002064000020440000202C000020DF
:1048200048000020300000204C0000203400002010
:104830005000002038000020540000203C000020E0
:104840005800002040000020E50100200020B04278
:1048500004DC284602F03EF8384908605CE0A41CFD
:104860003748005D303864214843354A611C515C4B
:10487000303901EB810100EB4101A01C105C3038A4
:104880000D18AF4201DC012000E00020B04204DC42
:10489000284602F01FF82B4908603DE0A41C284878
:1048A000005D303864214843254A611C515C303931
:1048B00001EB810100EB4101A01C105C30380D18A8
:1048C000AF4201DC012000E00020B04204DC2846B9
:1048D00002F000F81C4908601EE0A41C1848005DA6
:1048E000303864214843164A611C515C303901EB71
:1048F000810100EB4101A01C105C30380D18AF4263
:1049000001DC012000E00020B04204DC284601F078
:10491000E1FF0E49086000BF00BF641C4C45FFF674
:1049200000AF00200A490880BDE8F0870146002951
:1049300001DA484200E0084670470000900000207D
:10494000E501002094000020980000209C00002039
:10495000F000002038B59CA200210120FEF759FA92
:104960009A48006801F096FF04460C200423224672
:10497000002100901420FEF702FA95A200213C20AD
:10498000FEF747FA9348006801F084FF04460C20C4
:1049900004232246002100905020FEF7F0F98EA259
:1049A0000C210120FEF735FA8C48006801F072FFF7
:1049B00004460C2004232246014600901420FEF7F2
:1049C000DEF987A20C213C20FEF723FA8548006817
:1049D00001F060FF04460C200423224601460090AB
:1049E0005020FEF7CCF980A218210120FEF711FA21
:1049F0007E48006801F04EFF04460C200423224646
:104A0000182100901420FEF7BAF979A218213C2051
:104A1000FEF7FFF97748006801F03CFF04460C20E0
:104A200004232246182100905020FEF7A8F9FEF733
:104A3000A0F838BD2DE9904F87B06F480068A0F20C
:104A400056404000032190FBF1F4002C00DA0024D2
:104A5000642C00DD64246948007808B9012000E076
:104A600000206649087066480078012834D16549FD
:104A70006548006801F07AFF834601F0EFFE0746C3
:104A800060496248006801F071FF834601F0E6FE6C
:104A900080465C495E48006801F068FF834601F08B
:104AA000DDFE814657495B48006801F05FFF8346A1
:104AB00001F0D4FE824600200290039004900590FD
:104AC00043464A465146CDE9007053A000F086F9AE
:104AD00000204B4908702CE04848007840B900207D
:104AE000E3B2F2B2E9B2009053A000F077F920E00F
:104AF0005548006801F0B2FE07465448006801F0CE
:104B0000ADFE80465248006801F0A8FE814651483B
:104B1000006801F0A3FE82464F48006801F09EFE47
:104B200083464B46524659464CA0CDE9008700F0DB
:104B300055F907B0BDE8908F10B52F48006801F017
:104B4000C9FE04462F4901F0C7FD4949086001210B
:104B50004148006800F0A4F802213E48006800F0D7
:104B60009FF803213A48006800F09AF8042137487A
:104B7000006800F095F805213348006800F090F8CF
:104B8000052000F0DCF83B49087000203A49087025
:104B900012E000BF3948008800F040000028F9D03A
:104BA000374835490978405C3449091D0880324846
:104BB0000078401C304908702F4800782D4909784A
:104BC0008842E6DB10BD000054313A008800002026
:104BD00054323A008C00002054333A0090000020F8
:104BE00054343A009400002054353A0098000020D4
:104BF00054363A009C0000206000002098010020FC
:104C0000670000200000C8427800002074000020E7
:104C1000700000206C0000207B4325643A25643A34
:104C200025643A25643A25643A25643A25643A2590
:104C3000643A25647D2400007B4125643A25643A6A
:104C400025643A25647D2400540000205000002093
:104C50004C00002048000020440000207B422564D6
:104C60003A25643A25643A25643A25647D24000097
:104C700094010020910100209001002000380140A3
:104C8000AD06002030B503461C788C545D78541C6A
:104C90000D559D78941C0D55DD78D41C0D5530BDF7
:104CA00013B50C460A2C00DC04B91CBD0B2C43D2F6
:104CB000DFE804F042060C12181E242A30363C00AD
:104CC000012244496846FFF7DDFF35E005224149EE
:104CD0006846FFF7D7FF2FE009223E496846FFF7F5
:104CE000D1FF29E00D223B496846FFF7CBFF23E0C7
:104CF000112238496846FFF7C5FF1DE015223549E6
:104D00006846FFF7BFFF17E0192232496846FFF7F0
:104D1000B9FF11E01D222F496846FFF7B3FF0BE0F2
:104D200021222C496846FFF7ADFF05E025222949DD
:104D30006846FFF7A7FF00BF00BF00BFB5E7014609
:104D40000A2900DC09B9002070472420214A10708C
:104D50000B293CD2DFE801F03B060B10151A1F248B
:104D6000292F350005201B4A50710620ECE7092049
:104D7000184A50720A20E7E70D20164A50730E2099
:104D8000E2E71120134A50741220DDE71520114A82
:104D900050751620D8E719200E4A50761A20D3E70E
:104DA0001D200C4A50771E20CEE72120094A82F8A8
:104DB00021002220C8E72520064A82F82500262067
:104DC000C2E72920034A82F829002A20BCE70020F4
:104DD000BAE70000AD060020704700000FB4044998
:104DE00010B503AA029800F0DDF810BC5DF814FBC2
:104DF000EC0000202DE9F0410E4604460020206220
:104E00002046E168884730B3252805D0D4E9012140
:104E10009047206A401CF2E7E16820460027884757
:104E2000050018D0A5F14100192802D820354FF40B
:104E300000673246294620462760FBF7B1F940B1AA
:104E4000012804D0F61D26F007060836D8E7361DDF
:104E5000D6E72846DAE7206ABDE8F0812DE9F0417F
:104E60000646002410687529314616A510D0AFF308
:104E70000080002802DA404213A507E031688A0763
:104E800001D512A502E0490704D511A5012401E0CE
:104E9000AFF3008000210A2206F1240709E0B0FBED
:104EA000F2FCB0FBF2F302FB1C00303078541846E1
:104EB000491C0028F3D123462A463046BDE8F0417C
:104EC00000F017B8000000002D0000002B000000CB
:104ED00020000000704770477047704710B500F021
:104EE00073F8006810BD10B5044600F06DF804605A
:104EF00010BD2DE9F0470D4699469246044600F153
:104F000024080168880604D5E06921F010012160B9
:104F100000E00120A84201DD471B00E00027A16955
:104F20007A1902EB0900081AA0612078C00602D4A1
:104F30002046AFF30080002608E0D4E901211AF8EA
:104F400006009047206A401C761C20624E45F4DB28
:104F50002078C0060AD52046AFF3008006E0D4E9E9
:104F6000012130209047206A401C2062381EA7F1A2
:104F70000107F4DC07E0D4E9012118F805009047A7
:104F8000206A401C2062281EA5F10105F3DC2046A2
:104F9000AFF300802078000602D50220BDE8F0873C
:104FA0000120FBE7074B70B50D467B4400F015F878
:104FB0000446284600F024F810B14FF0FF3070BDD1
:104FC000204670BD91D7FFFF00487047D8060020EB
:104FD00001694A1C02610878704700B58FB0CDE9BD
:104FE00001310021059105497944CDE903101146AD
:104FF0006846FFF7FFFE0FB000BD0000E5FFFFFFB2
:10500000007B00F08000704700487047D806002001
:105010007546FFF7F9FFAE4605006946534620F096
:105020000700854618B020B5FBF75EFABDE82040C2
:105030004FF000064FF000074FF000084FF0000B54
:1050400021F00701AC46ACE8C009ACE8C009ACE807
:10505000C009ACE8C0098D4670470446AFF3008034
:105060002046FBF7AFF8490050EAC12018BF0420E2
:105070004A0D18BF40F0010040F2FF72B2EB515FE1
:1050800008BF40F00200012808BF0520704700005B
:105090002DE9F74F144694B00021C4E90211159987
:1050A000079121F00045C9498D4206DC1599C4E9F4
:1050B000000117B00020BDE8F08FC549DFF814A348
:1050C000A9423CDD0799C44E0029C44FC44A159932
:1050D000534619DD01F07CF9554506D0C14AC24B53
:1050E00001F076F9C4E900010AE04FF0D352BE4B5B
:1050F00001F06EF932463B4601F06AF9C4E900015D
:1051000017B00120BDE8F08F00F010FD554506D026
:10511000B44AB54B00F00AFDC4E900010AE04FF0C3
:10512000D352B14B00F002FD32463B4600F0FEFC8C
:10513000C4E9000117B04FF0FF30BDE8F08FAB4974
:10514000A942159978DB21F0004183468846A84A98
:10515000A84B00F04DFF0022A74B00F0E7FC00F049
:10516000EDFE099000F019FF06460F469C4A534693
:1051700000F03EFF43465A4601F038F880468A4622
:10518000984A994B3046394600F032FF2A0D0125E6
:105190000B924246534601F029F8032DC4E9000161
:1051A00039D00B98C1F30A51401A05EB451111395A
:1051B000814230DA9148C346784400EB0510CDF8BF
:1051C0000CA00C90D0E900233046394600F010FFC7
:1051D00002460B46049106905846039901F0F8F8F0
:1051E00080468A4602460B465846039901F0F0F87D
:1051F000049B069A01F0ECF883460C98039139461B
:10520000D0E90223304600F0F3FE5A46039B01F03A
:10521000DFF86D1CBDE707980028A2BF099817B0FA
:10522000BDE8F08F616881F000416160099817B0B6
:105230004042BDE8F08FFFE784461598C1F31301A3
:10524000C0F30A50A0F2F5304FEA601800F01F06D4
:10525000C6F12000139000200690079041F4801EB4
:1052600005206D4676B1664A08EB00017A4452F893
:10527000213002EB8101B3404A68139922FA01F10F
:10528000194305E05F4908EB0002794451F8221008
:10529000A1FB0E27A1FB0C131A449A4234BF012331
:1052A000002303EB070A05EB8003D3E901B70F44A2
:1052B0008F4234BF0121002193448B4411B19345A7
:1052C00002D903E0934501D2012100E00021C3E9A6
:1052D00001B7514445F82010011EA0F10100C1DCC6
:1052E0000298059F00F10050800F12900298DDE9AE
:1052F0000356800000F051FE834628460D9100F0D1
:1053000063FE6FF01D0201F0E0FCCDE90E013046B6
:1053100000F05AFE6FF03D0201F0D7FC80468A464D
:10532000384600F051FE6FF05D0201F0CEFC0746FA
:1053300042465346119100F0F9FBDDE90E2300F0DF
:10534000F5FB5A460D9B00F0F1FB00250E465A4630
:1053500028460D9B01F03CF8DDE90E2301F038F8FA
:105360004246534601F034F83A46119B00F03EFFA6
:10537000DFF898A0244A534600F03AFE07468846D4
:10538000234A244B3146284600F032FE3A46434633
:1053900000F0CCFB074688464FF0A8425346314602
:1053A000284600F025FE3A46434600F0BFFB159A1A
:1053B00012F0004F04D0129A81F000415242129232
:1053C000C4E90001129817B0BDE8F08FFB21E93F56
:1053D0007CD90240FB21F93F7370032E8A19A33B4D
:1053E000000040543163621A61B4D03DFB21394161
:1053F00083C8C96D305FE43F0000E03F8C260000A9
:1054000008260000EA250000182D4454FB21F93D30
:105410003326A611460B113C2DE9FF4D21F0004823
:1054200007460C46B8F1795F08DA00F087FD0028DE
:1054300001BF0020324904B0BDE8F08D3A46234652
:105440001046194600F0D4FD054602462D480E468A
:105450000B460621784400F05DF82A46334600F0FA
:10546000C7FDDDE9022382468B463846214600F01F
:10547000BFFD04460F4652465B462846314600F0C3
:10548000B7FD22463B4600F0A3FF07468A464FF091
:10549000FF322846314601F018FC1B4A90450ADAD3
:1054A0003A46534600F094FF04B00022BDE8F04DA8
:1054B000134B00F09BBE154A4245A8BFA8F5001546
:1054C0004FF00004B8BF124D22462B4600F080FF7B
:1054D0000646884622462B460020094900F078FF00
:1054E00004460D463A4653463046414600F070FFAA
:1054F00004B022462B46BDE8F04D00F077BE000018
:105500000000F03FC02300003333D33F0000E93FE9
:105510000000D23F2DE9F0414F1E00EBC7010446C9
:10552000D1E9000115461E4637F006020DD02A4685
:10553000334600F05DFD7F1E04EBC703D3E9002373
:1055400000F0F4FA37F00602F1D1022F25D0042F33
:1055500013D0062F18BFBDE8F0812A46334600F06D
:1055600047FDD4E90A2300F0E1FA2A46334600F069
:105570003FFDD4E9082300F0D9FA2A46334600F06B
:1055800037FDD4E9062300F0D1FA2A46334600F06D
:105590002FFDD4E9042300F0C9FA2A46334600F06F
:1055A00027FDD4E9022300F0C1FA2A46334600F071
:1055B0001FFDD4E90023BDE8F04100F0B7BA0000B8
:1055C0002DE9FF4D054621F0004084B00C46B0F1B6
:1055D000795F0BDA2846FFF746FD042808BF00F084
:1055E0006FF8284608B02146BDE8F08D2A460B46E4
:1055F000104600F0FDFC06460F462A46234600F002
:10560000F7FC804626488A4632463B4605217844C8
:10561000FFF780FF83461098029160B3214A224B26
:105620004046514600F0E4FCCDE900015A464046B0
:105630005146029B00F0DCFC82468846DDE906010B
:105640004FF0FF3201F041FB5246434600F0C0FEEE
:1056500032463B4600F0CCFCDDE9062300F0B8FE04
:10566000DDE9002300F0B4FE08B02A462346BDE879
:10567000F04D00F0BBBD0B465A463046394600F0AF
:10568000B7FC084A084B00F051FA4246534600F076
:10569000AFFC08B02A462346BDE8F04D00F046BAFC
:1056A000FE220000495555555555C5BF012201F050
:1056B0000CBB002213461046114600F0E7BA00006A
:1056C000024A0020110701F000BB000001FDFFFFAE
:1056D0002DE9F04D8D4F21F0004A86B005460C466D
:1056E000BA452ADBAAEB070028430AD0884882453E
:1056F00001DC1AD1CDB106B02846BDE8F04DFFF768
:10570000D5BF844A844B284600F072FC07460E46FB
:10571000824A834B2846214600F06AFC06B03A468E
:105720003346BDE8F04D00F001BA0120FFF7DBFB86
:1057300006B0BDE8F04DFFF7BCBF7A48824542DABB
:10574000BAF1795F0BDA2846FFF78DFC042808BF11
:10575000FFF7B6FF284606B02146BDE8F08D2A4681
:105760000B46104600F044FC834602466E480E4647
:105770000B4606217844FFF7CDFE5A46334600F02B
:1057800037FC804669488A465A46334604217844A5
:10579000FFF7C0FE5A46334600F02AFC00223B4683
:1057A00000F0C4F902460B464046514600F06EFA3E
:1057B0002A46234600F01CFC06B02A462346BDE8D4
:1057C000F04D00F0B3B9284624F0004100223D46D8
:1057D0003B4600F00BFD4FF0FF3201F076FA064633
:1057E000024653480F460B4606217844FFF792FEC7
:1057F00032463B4600F0FCFBCDE900014D48324605
:105800003B4604217844FFF785FE32463B4600F0D4
:10581000EFFB00222B4600F089F9834602913046C7
:10582000394600F02BF9804643480D46504517DCB9
:10583000DDE900015A46029B00F028FA42462B4659
:1058400000F0D6FB42462B4600F070F9012201F031
:105850003CFA304A304B00F0BBFD304A304B4CE054
:105860004FF0000A52460B46404600F05FF9CDE982
:10587000031052462B461046194600F0B9FB32463B
:105880003B4600F0B3FCDDE9033200F0FFF90646C9
:105890000F46DDE900015A46029B00F0F7F9834606
:1058A000009101223046394601F00FFA194A1A4B8D
:1058B00000F09CFC06460F4601224046294601F0B6
:1058C00004FA5A46009B00F093FB32463B4600F038
:1058D0007FFD06460F4601225046294601F0F5F9A4
:1058E0000E4DDFF858802A46434600F07FFC3246D2
:1058F0003B4600F07BFC2A46434600F077FC002C38
:10590000D8BF81F0004106B0BDE8F08D0000F03F47
:105910000000F07F075C143326A6913C182D4454F8
:10592000FB21F93F0000E03F50200000662000000E
:10593000DA1F0000F01F00003333EF3FFB21E93F87
:1059400000B5244B21F0004287B09A42DCBF002210
:10595000134629DD204B9A4208D140B94FF001008F
:10596000FFF7C1FAFFF7A5FE07B000BD03DBFFF7A5
:105970009DFE07B000BD02AAFFF78AFB10F00301ED
:1059800004BF0DF1080C9CE80F000DD00120012987
:105990000ED0022914D00DF1080C00909CE80F00E5
:1059A000FFF70EFE07B000BDFFF736FD07B000BDE4
:1059B0000DF1080C00909CE80F00FFF701FE05E0D8
:1059C0000DF1080C9CE80F00FFF726FD07B081F0F1
:1059D000004100BDFB21E93F0000F07F00B5254BF1
:1059E00021F0004287B09A4203DC00221346009265
:1059F0002BE0214B9A4208D140B94FF00100FFF74C
:105A000072FAFFF756FE07B000BD03DBFFF74EFE4C
:105A100007B000BD02AAFFF73BFB10F003014FF0F7
:105A200001000DD0012914D002291AD00DF1080C63
:105A30009CE80F00FFF7F0FC07B081F0004100BDCB
:105A40000DF1080C00909CE80F00FFF7B9FD07B0BE
:105A500000BD0DF1080C9CE80F00FFF7DDFC07B05E
:105A600000BD0DF1080C00909CE80F00FFF7A8FDA9
:105A7000E2E70000FB21E93F0000F07F2DE9F04163
:105A800006460F4600F0BEFB04000D4618BF01207D
:105A9000284320F00040C0F17F6000F1E040C00FDB
:105AA0000ED0301C18BF0120384320F00040C0F158
:105AB0007F6000F1E040C00F04BF0120FFF713FA40
:105AC00020462946BDE8F08121F00042A2F1605253
:105AD000B2F5801F01F0004328BFD2F17F6C0BD9D3
