:020000040800F2
:10000000E80B002095040008D5010008D70100087E
:10001000DB010008DF010008E30100080000000028
:10002000000000000000000000000000E7010008E0
:10003000E901000800000000EB010008ED010008E4
:10004000AF040008AF040008AF040008AF040008C4
:10005000AF040008AF040008AF040008AF040008B4
:10006000AF040008AF040008AF040008AF040008A4
:10007000AF040008AF040008AF040008AF04000894
:10008000AF040008AF040008AF040008AF04000884
:10009000AF040008AF040008AF040008AF04000874
:1000A000AF040008AF040008AF040008AF04000864
:1000B000EF430008AF040008AF040008AF040008D5
:1000C000AF040008AF040008AF040008AF04000844
:1000D000AF040008AF040008AF040008773300083D
:1000E000AF040008AF040008AF04000800F002F8F5
:1000F00000F05AF80AA090E8000C82448344AAF168
:100100000107DA4501D100F04FF8AFF2090EBAE865
:100110000F0013F0010F18BFFB1A43F0010318473B
:10012000286E0000486E00000A444FF0000C10F8E2
:10013000013B13F0070408BF10F8014B1D1108BF65
:1001400010F8015B641E05D010F8016B641E01F805
:10015000016BF9D113F0080F1EBF10F8014BAD1C55
:100160000C1B09D16D1E58BF01F801CBFAD505E073
:1001700014F8016B01F8016B6D1EF9D59142D6D3CD
:10018000704700000023002400250026103A28BFF5
:1001900078C1FBD8520728BF30C148BF0B607047F9
:1001A0001FB51FBD10B510BD04F03EFA1146FFF794
:1001B000F7FF00F00DF904F05CFA03B4FFF7F2FF6B
:1001C00003BC02F03FFB000030BF72B662B680F3A2
:1001D00008887047704700BFFEE700BFFEE700BF1A
:1001E000FEE700BFFEE770477047704770470000AA
:1001F0000CB50020019000906C48006840F48030FD
:100200006A49086000BF6948006800F40030009047
:100210000198401C0190009818B90198B0F5A06FA2
:10022000F1D16248006800F4003010B10120009064
:1002300001E0002000900098012843D15C4800684C
:1002400040F010005A4908600846006820F003009A
:1002500008600846006840F00200086053484068A3
:10026000524948600846406848600846406840F483
:10027000806048600846406820F47C10486008466A
:10028000406840F4E81048600846006840F080701C
:10029000086000BF4548006800F000700028F9D0F1
:1002A0004248406820F003004049486008464068E2
:1002B00040F00200486000BF3C48406800F00C007D
:1002C0000828F9D10CBD10B5FFF792FF10BD10B58D
:1002D0003648006840F0010034490860084640682C
:1002E00034490840314948600846006832490840AE
:1002F0002E4908600846006820F4802008600846FF
:10030000406820F4FE0048604FF41F008860FFF74B
:10031000DAFF4FF000602949086010BD10B50021D8
:1003200000200022214B5B6803F00C0121B104295D
:1003300006D0082928D107E0214B224C236027E072
:100340001F4B204C236023E0184B5B6803F47010B4
:10035000164B5B6803F48032022303EB904022B912
:10036000194B4343174C23600DE0104B5B6803F4BB
:10037000003323B1144B4343124C236003E0104B72
:100380004343104C236003E00D4B0E4C236000BF31
:1003900000BF064B5B68C3F303130C4CE15C094BD5
:1003A0001B68CB40074C236010BD000000100240CA
:1003B000002002400000FFF8FFFFF6FE08ED00E01D
:1003C00000127A000000002000093D000400002017
:1003D000002402F06FF8012002F0C6F902F0B4FA2E
:1003E00002F082FA642002F0A2F802F079FD6420A3
:1003F00002F09DF88F2142F20F7002F00DFF8F2165
:1004000042F20F7002F0ACFE21E002F08AFB0446DB
:10041000012C06D10E480068C0430E49C1F8900176
:1004200000240DA20021012002F02BFD0FA21021BB
:10043000012002F026FD12A22021012002F021FD60
:100440000FA23021012002F01CFD02F0CAFBDCE704
:10045000900121420000214232344C303120436867
:1004600065636B204661696C65642100506C656151
:10047000736520436865636B212020200000000025
:10048000202020202020202020202020202020206C
:10049000000000000948804709480047FEE7FEE7E2
:1004A000FEE7FEE7FEE7FEE7FEE7FEE7FEE7FEE724
:1004B00004480549054A064B70470000CF02000872
:1004C000ED000008E8050020E80B0020E807002008
:1004D000E807002031490143314A1160704770B587
:1004E000002100230F22C47804B32D4C246804F4A7
:1004F000E064C4F5E064210AC1F10403CA40447811
:1005000004FA03F18478144021430901254C06784C
:10051000A155047804F01F050124AC4005786D1145
:10052000AD0005F1E025C5F8004109E0047804F0CC
:100530001F050124AC401C4D0678761145F8264075
:1005400070BD1A4A0A400243154B1B1F1A607047C0
:1005500039B1134A121D12680243114B1B1D1A6058
:1005600006E00F4A121D126882430D4B1B1D1A60D4
:100570007047042808D14FF0E021096941F00401D7
:100580004FF0E022116107E04FF0E021096921F00E
:1005900004014FF0E0221161704700000000FA05ED
:1005A0000CED00E000E400E080E100E080FFFF1FD0
:1005B00010B50446FA48844208D10121401500F0E4
:1005C0001DFE0021601500F019FE17E0F548844279
:1005D00008D10121001500F011FE0021201500F0C6
:1005E0000DFE0BE0F048844208D10121C80300F061
:1005F00005FE00214FF4004000F000FE10BD30B5B4
:100600000246002000235068E84C20400D790C6819
:1006100044EA0524204350609068E54C2040D1E92D
:1006200002542C434D7944EA450420439060D06A3B
:1006300020F470000C7C641EE4B2234340EA0350B3
:10064000D06230BD00210160017141718160C160E3
:1006500001210174704721B1826842F00102826079
:1006600003E0826822F001028260704721B1826853
:1006700042F48072826003E0826822F480728260B9
:10068000704710B50023CBB21AB144681C434460D4
:1006900002E044689C43446010BD816841F0080159
:1006A00081607047014600208A6802F008020AB1A2
:1006B000012000E000207047816841F00401816062
:1006C0007047014600208A6802F004020AB1012046
:1006D00000E00020704721B1826842F4A0028260ED
:1006E00003E0826822F4A002826070470146002085
:1006F0008A6802F480020AB1012000E000207047FD
:1007000010B50A4600210023416821F46041531EC0
:1007100041EA4331416010BD21B1426842F40062B8
:10072000426003E0426822F4006242607047F0B524
:1007300004460D4600200021092D11DDE068A5F1D9
:100740000A0606EB4607072606FA07F18843A5F1D5
:100750000A0606EB460603FA06F10843E0600CE0E1
:10076000206905EB4507072606FA07F1884305EBE4
:10077000450603FA06F108432061072A0FDA606B89
:10078000561E06EB86071F2606FA07F18843561EFB
:1007900006EB860605FA06F10843606322E00D2A9F
:1007A0000FDA206BD61F06EB86071F2606FA07F125
:1007B0008843D61F06EB860605FA06F10843206338
:1007C00010E0E06AA2F10D0606EB86071F2606FA86
:1007D00007F18843A2F10D0606EB860605FA06F13D
:1007E0000843E062F0BD21B1826842F48012826069
:1007F00003E0826822F48012826070470146C86C70
:1008000080B2704766484C300068704721B142683A
:1008100042F48062426003E0426822F480624260F7
:10082000704721B1426842F48052426003E042685E
:1008300022F48052426070470A460021816821F408
:10084000E04111438160704721B1826842F4004267
:10085000826003E0826822F400428260704721B126
:10086000826842F40212826003E0826822F402127B
:1008700082607047014600208A6802F400120AB1C3
:10088000012000E000207047F0B504461546002026
:1008900000220026092911DDE068A1F10A0707EB13
:1008A000470C072707FA0CF29043A1F10A0707EB60
:1008B000470703FA07F21043E0600CE0206901EB00
:1008C000410C072707FA0CF2904301EB410703FAAA
:1008D00007F210432061A06BC0F30156EF1C06F134
:1008E000010CA7EB0C0707EB870C1F2707FA0CF28C
:1008F0009043EF1C06F1010CA7EB0C0707EB8707F1
:1009000001FA07F21043A063F0BD10B50A460021BA
:100910000023816B21F44011531E41EA035181638E
:1009200010BD08B5002300930090009B0B4400937A
:10093000009B1A6008BD08B5024600200090009296
:1009400001F12800009B184400900098006880B2D4
:1009500008BD0A4600214168164B19401143416009
:1009600070474162826270470A460021416821F067
:100970001F0111434160704740B1094908310968BE
:1009800041F40001064A0832116007E004490831C9
:10099000096821F40001024A083211607047000022
:1009A0000024014000280140003C0140FFFEF0FF10
:1009B000FDF7F1FFFFFD3FFF0246002013680B40EB
:1009C0000BB1012000E000207047CA43026070476D
:1009D00070B502460020002300240B125568CEB2E9
:1009E00005EA060415681D4015B10CB1012000E0B0
:1009F000002070BD00220A12D3430360704700003C
:100A000010B5012000F014FC002000F011FC10BD16
:100A10002A49086070472949091F0860704727491B
:100A200084310860704701460020254A10884FF63F
:100A30007F4210400843224A108070470146002040
:100A40001F4A10884FF68072104008431C4A1080DD
:100A5000704708B500220092194A2C3A0092009A79
:100A600002440092009A116008BD08B501460020BA
:100A7000009013482C38009000980844009000988B
:100A8000008808BD0D489C300068C0B270470C4813
:100A90000830008840F0010009490831088070479B
:100AA0000648A0300068C0B270470548083000888A
:100AB00040F00200024908310880704704860D4268
:100AC0002C6C004010B50446CC48844208D101216A
:100AD000042000F093FB0021042000F08FFB46E08F
:100AE000C748844208D10121082000F087FB00217B
:100AF000082000F083FB3AE0C248844208D101217B
:100B0000102000F07BFB0021102000F077FB2EE08E
:100B1000BD48844208D10121202000F06FFB002154
:100B2000202000F06BFB22E0B848844208D101216C
:100B3000402000F063FB0021402000F05FFB16E046
:100B4000B348844208D10121802000F057FB0021E6
:100B5000802000F053FB0AE0AE48844207D1012117
:100B6000801500F04BFB0021A01500F047FB10BDE5
:100B700010B50121084600F041FB0021012000F0E2
:100B80003DFB10BD2DE9F041024600250026002066
:100B900000230024002791F803C00CF00F0591F802
:100BA00003C00CF0100CBCF1000F03D091F802C090
:100BB0004CEA050591F800C0BCF1000F31D0146873
:100BC00000202BE04FF0010C0CFA00F3B1F800C04C
:100BD0000CEA03069E4220D183004FF00F0C0CFA62
:100BE00003F7BC4305FA03FC4CEA040491F803C084
:100BF000BCF1280F06D14FF0010C0CFA00FCC2F832
:100C000014C00AE091F803C0BCF1480F05D14FF0C1
:100C1000010C0CFA00FCC2F810C0401C0828D1D30B
:100C20001460B1F800C0BCF1FF0F34DD546800203F
:100C30002EE000F1080C4FF0010808FA0CF3B1F8AF
:100C400000C00CEA03069E4221D183004FF00F0C36
:100C50000CFA03F7BC4305FA03FC4CEA040491F8D0
:100C600003C0BCF1280F05D100F1080C08FA0CF8FC
:100C7000C2F8148091F803C0BCF1480F07D100F10D
:100C8000080C4FF0010808FA0CF8C2F81080401C5C
:100C90000828CED35460BDE8F0814FF6FF71018083
:100CA000022181700421C1707047024600209368C0
:100CB0000B400BB1012000E000207047014688681E
:100CC00080B2704702460020D3680B400BB1012070
:100CD00000E0002070470146C86880B2704701619B
:100CE0007047416170470AB1016100E0416170479E
:100CF000C16070474FF480320A4382618161826132
:100D000082698269704702460020434B18684FF69B
:100D10008073184040EA021008433F4B1860704748
:100D20003E49C8617047F0B50A46002300240021FF
:100D3000002500F00046B6F1004F02D1364EF169B1
:100D400001E0354E7168C0F3034583B200F44016EC
:100D5000B6F5401F08D121F070612F4E766826F05D
:100D600070662D4F7E6012E000F48016B6F5801F8D
:100D700006D1032606FA05F4A14341F0706106E0AE
:100D8000460D360103FA06F6B14341F0706122B117
:100D9000460D360103FA06F6314300F00046B6F17F
:100DA000004F02D11C4EF16101E01B4E7160F0BD9D
:100DB00030B500228B071C0F0F2303FA04F2164BE9
:100DC00008338C1053F824309343134C08348D109F
:100DD00044F8253023468C1053F824308C07240F18
:100DE00000FA04F423430C4C08348D1044F82530E9
:100DF00030BD0A49DC31086070470000000801403E
:100E0000000C014000100140001401400018014096
:100E1000001C014000200140000001400000204271
:100E200010B50121080700F0F6F900214FF08050BD
:100E300000F0F1F910BD2A4908627047284908619D
:100E4000704701460020274A106820F0E000084360
:100E5000106070472249A0310860704710B5024603
:100E60000020204B186820F00300104318601E4B30
:100E70001B6843F004031C4C2360012901D130BFDF
:100E800000E020BF184B1B6823F00403164C2360BE
:100E900010BD1448006840F004001249086008467C
:100EA000006840F0020008600F48006840F004004D
:100EB0000D49086000BF00BF30BF704701460020E9
:100EC000084A52680A400AB1012000E00020704739
:100ED0000449096841EA8001024A11607047000034
:100EE00000000E420070004010ED00E0DF48006896
:100EF00040F00100DD49086008464068DC490840D0
:100F0000DA49486008460068DA490840D74908606D
:100F10000846006820F4802008600846406820F4F5
:100F2000FE0048604FF41F0088607047CF49096891
:100F300021F48031CD4A11601146096821F48021E5
:100F40001160B0F5803F03D0B0F5802F0ED106E0E0
:100F5000C649096841F48031C44A116007E0C349B9
:100F6000096841F4A021C14A116000E000BF00BF40
:100F7000704710B501460022002300204A11012AC3
:100F800002D1BA4C236806E0022A02D1B74C236A88
:100F900001E0B64C636A01F01F02012494401C403A
:100FA0000CB1012000E0002010BD38B500200090F9
:100FB0000024002500BF3120FFF7DBFF0546009825
:100FC000401C00900098B0F5A06F01D0002DF2D029
:100FD0003120FFF7CEFF08B1012400E000242046B5
:100FE00038BD01460020A14A106820F0F80040EA10
:100FF000C10010607047A049086070470246002099
:101000009A4B586820F47C1042EA01031843974B2E
:101010005860704798490866704701460020934A17
:10102000506820F003000843506070478F484068C4
:1010300000F00C007047014600208C4A506820F0F8
:10104000F00008435060704701460020874A50680E
:1010500020F4E06008435060704701460020834A56
:10106000506820F4605040EAC1005060704729B1D8
:101070007E4A527A02437D4B5A7204E07B4A527A8E
:1010800082437A4B5A7270477B49D8310860704767
:1010900001460020754A506820F4404008435060E3
:1010A00070470021714A20321170704A82F8201076
:1010B000012802D004280AD104E001216B4A203221
:1010C000117005E00521694A2032117000E000BF6F
:1010D00000BF70476949086070476449096A014365
:1010E000624A11627047654944390860704730B5FB
:1010F00000210022002400235C4D6D6805F00C01E6
:1011000021B1042905D0082923D105E05C4D0560F3
:1011100022E05B4D05601FE0544D6D6805F47012D0
:10112000524D6D6805F48034022505EB92421CB9DE
:10113000544D554305600BE04C4D6D6805F400358A
:101140001DB1504D5543056002E04D4D55430560BE
:1011500002E04B4D056000BF00BF444D6D6805F0D7
:10116000F0010909484D6B5C0568DD4045603F4D65
:101170006D6805F4E061090A434D6B5C4568DD402C
:1011800085603A4D6D6805F46051C90A3E4D6B5C4F
:101190004568DD40C560354D6D6805F44041890BFB
:1011A0003A4D6B5CC568B5FBF3F5056130BD29B1FF
:1011B0002E4A526902432D4B5A6104E02B4A526970
:1011C00082432A4B5A61704729B1284A92690243E7
:1011D000264B9A6104E0254A92698243234B9A6127
:1011E000704729B1214AD2690243204BDA6104E0F9
:1011F0001E4AD26982431D4BDA61704729B11B4AEE
:10120000D2680243194BDA6004E0184AD26882437C
:10121000164BDA60704729B1144A12690243134B26
:101220001A6104E0114A12698243104B1A61704737
:1012300012494039086070470F49C86470470B492C
:10124000C87170470948406A40F080700749486299
:10125000704701460020054A92680A400AB1012001
:1012600000E000207047014988727047001002407A
:101270000000FFF8FFFFF6FE0000424280044242F9
:1012800000127A0000093D00D4000020E400002094
:1012900010B50446FE48844208D10121C014FFF76E
:1012A000ADFF0021E014FFF7A9FFC4E0B4F1804FC7
:1012B00008D101210846FFF7AEFF00210120FFF70A
:1012C000AAFFB8E0F348844208D101210220FFF7C9
:1012D000A2FF00210220FFF79EFFACE0EE4884420F
:1012E00008D101210420FFF796FF00210420FFF719
:1012F00092FFA0E0E948844208D101210820FFF7CD
:101300008AFF00210820FFF786FF94E0E44884422A
:1013100008D101211020FFF77EFF00211020FFF7E8
:101320007AFF88E0DF48844208D101212020FFF7BE
:1013300072FF00212020FFF76EFF7CE0DA48844234
:1013400008D101214014FFF759FF00216014FFF775
:1013500055FF70E0D548844209D10121C804FFF748
:101360004DFF00214FF40020FFF748FF63E0D04815
:10137000844209D101210805FFF740FF00214FF405
:101380008010FFF73BFF56E0CA48844209D1012193
:101390004805FFF733FF00214FF40010FFF72EFF41
:1013A00049E0C548844208D101214020FFF733FFBE
:1013B00000214020FFF72FFF3DE0C048844208D1C4
:1013C00001218020FFF727FF00218020FFF723FF66
:1013D00031E0BB48844208D101218015FFF71BFF93
:1013E0000021A015FFF717FF25E0B648844209D178
:1013F00001210804FFF702FF00214FF48030FFF7BE
:10140000FDFE18E0B048844209D101214804FFF7ED
:10141000F5FE00214FF40030FFF7F0FE0BE0AB4883
:10142000844208D101218804FFF7E8FE00214FF42F
:101430008020FFF7E3FE10BD00220288944B984203
:101440000ED0994B98420BD0B0F1804F08D0914B01
:10145000984205D0904B984202D0904B984204D1CC
:101460004FF68F731A404B881A438D4B984207D022
:101470008C4B984204D04FF6FF431A40CB881A4356
:1014800002808B8883850B880385814B98420BD023
:10149000854B984208D08B4B984205D08A4B984296
:1014A00002D08A4B984201D10B7A038601238382B2
:1014B000704770B5002400220023058C4FF6FE769D
:1014C00035400584028C8388048B4FF68F752C4041
:1014D000B51E2C400D882C43751E2A400D892A43C9
:1014E0004D882A436A4DA8420BD06F4DA84208D0C0
:1014F000744DA84205D0744DA84202D0734DA84245
:1015000013D14FF6F7752A404D892A434FF6FB75E4
:101510002A408D882A434FF6FF652B404FF6FF5532
:101520002B408D892B43CD892B4383800483CD8829
:101530008586028470BD70B5002400220023058CCE
:101540004FF6EF7635400584028C8388048B48F68D
:10155000FF752C404FF6FF452C400D884FF6FF7667
:1015600006EA05252C434FF6DF752A400D8906EA69
:1015700005152A434D8806EA05152A43444DA8421D
:1015800002D0494DA8421DD14FF67F752A404D89A2
:101590004FF6FF7606EA05152A434FF6BF752A4037
:1015A0008D8806EA05152A434FF6FF352B404FF28A
:1015B000FF752B408D8906EA85052B43CD8906EA08
:1015C00085052B4383800483CD880587028470BD05
:1015D00070B5002400220023058C4FF6FF663540CD
:1015E0000584028C8388848B4FF68F752C404FF6D0
:1015F000FC752C400D882C434FF6FF552A400D8971
:101600004FF6FF7606EA05252A434D8806EA0525AA
:101610002A431F4DA84202D0234DA8421DD14FF2AC
:10162000FF752A404D894FF6FF7606EA05252A43C5
:101630004FF6FF352A408D8806EA05252A434EF6E7
:10164000FF752B404DF6FF752B408D8906EA051579
:101650002B43CD8906EA05152B4383808483CD88EF
:101660008587028470BD70B5002200230024058C9C
:101670004EF6FF7635400584038C8488828B48F6CD
:10168000FF752A404FF6FF452A400D8820E00000F4
:10169000002C01400004004000080040000C004005
:1016A000001000400014004000340140004C014094
:1016B000005001400054014000180040001C004050
:1016C000002000400040014000440140004801402B
:1016D0004FF6FF7606EA05252A434DF6FF752B40A7
:1016E0000D8906EA05352B434D8806EA05352B435F
:1016F000FA4DA84202D0FA4DA84208D14BF6FF7528
:101700002C408D894FF6FF7606EA85152C438480A0
:101710008283CD88A0F84050038470BD828B4FF245
:10172000FF331A408283828B4FF6FF7303EA012353
:101730001A4382837047F0B50C46154600220021FB
:101740000026078C4EF6FF7C07EA0C070784828B85
:10175000018C4FF6FF7707EA043640F6FF473A4020
:101760004FF6FF7707EA05273A434FF6FF7707EA78
:1017700003373A43D94FB8420ED0D94FB8420BD0B5
:10178000B0F1804F08D0D74FB84205D0D64FB842FD
:1017900002D0D64FB84206D14DF6FF77394046F415
:1017A0008057394305E047F6FF57394044F48057E6
:1017B000394382830184F0BD828B4FF6F3731A4064
:1017C0008283828B0A4382837047F0B50C461546AC
:1017D000002200210026078C4FF6FF6C07EA0C0759
:1017E0000784828B018C4FF6FF7707EA04264FF6B9
:1017F0000C773A404FF6FF7707EA03172F433A4337
:10180000B64FB8420ED0B64FB8420BD0B0F1804FB1
:1018100008D0B44FB84205D0B34FB84202D0B34F4E
:10182000B84206D14FF6FF57394046F48077394326
:1018300005E04FF2FF57394044F480773943828303
:101840000184F0BD028B4FF2FF331A400283028BFA
:101850004FF6FF7303EA01231A4302837047F0B582
:101860000C461546002200210026078C4FF6EF7C1F
:1018700007EA0C070784028B018C4FF6FF7707EA13
:10188000041640F6FF473A404FF6FF7707EA033762
:101890003A434FF6FF7707EA05273A438F4FB8429E
:1018A0000ED08F4FB8420BD0B0F1804F08D08D4F83
:1018B000B84205D08C4FB84202D08C4FB84206D106
:1018C0004FF6DF77394046F01007394305E04FF611
:1018D0005F77394044F01007394302830184F0BD3B
:1018E000028B4FF6F3731A400283028B0A43028382
:1018F0007047F0B50C46154600220021068C4FF6C5
:10190000FE773E400684028B018C4FF60C76324007
:101910007E1C06EA03162E433243704EB0420ED0B0
:101920006F4EB0420BD0B0F1804F08D06D4EB04238
:1019300005D06D4EB04202D06C4EB04206D14FF68B
:10194000FD76314044F00106314305E04FF6F5766F
:10195000314044F00106314302830184F0BD70B58B
:1019600005460C465D4885420ED05D4885420BD049
:10197000B5F1804F08D05B48854205D05A48854272
:1019800002D05A48854200D100E000BF208850B9FB
:101990002389A28861882846FFF7ABFFE1882846A3
:1019A000FFF79EFF25E0208804280AD12389A2881A
:1019B00061882846FFF753FFE1882846FFF742FF7A
:1019C00017E0208808280AD12389A2886188284640
:1019D000FFF7FBFEE1882846FFF7EEFE09E02389CA
:1019E000A28861882846FFF7A6FEE1882846FFF70F
:1019F00095FE70BD2DE9F04105460C4600260127F5
:101A0000608808B9022600E00026A088012801D1DC
:101A1000022700E001272088A0B92389A2886188D5
:101A20002846FFF766FFE1882846FFF759FF23891C
:101A30003A4631462846FFF712FFE1882846FFF76D
:101A400001FF13E02389A28861882846FFF707FF7A
:101A5000E1882846FFF7F6FE23893A4631462846B4
:101A6000FFF747FFE1882846FFF73AFFBDE8F0811E
:101A70000A884B881A438B881A43CB881A430B89F0
:101A80001A434B891A438B891A43A0F844207047A4
:101A90004FF6FF71818000210180C1804180017279
:101AA00070470021018041808180C1800181418196
:101AB0008181C181704700210180418001218180A5
:101AC0000021C18001817047002101804180818017
:101AD000C18001814181818170470000002C01405B
:101AE000003401400004004000080040000C0040A9
:101AF00021B1028842F00102028004E002884FF620
:101B0000FE731A400280704731B1B0F8442042F4AD
:101B10000042A0F8442005E0B0F84420C2F30E02D1
:101B2000A0F8442070471AB183890B43838102E0F7
:101B300083898B43838170478182704741EA020326
:101B4000A0F8483070471AB183890B43838102E0C3
:101B500083898B438381704701894FF6F872114066
:101B6000018170470A46002101894FF68F731940A1
:101B700011430181704730B504460D462946204681
:101B8000FFF7F0FF208940F00700208130BD2DE9EC
:101B9000F04104460D4616461F46602D06D13B46D1
:101BA000012231462046FFF75AFE05E03B4601225E
:101BB00031462046FFF79DFE29462046FFF7D2FF1B
:101BC000208940F007002081BDE8F08130B50C4647
:101BD00000210189C9B24FF6FF7505EA03251543B7
:101BE00025432943018130BD2DE9F04105460E46CC
:101BF00017469846002443463A4631462846FFF7A2
:101C0000E5FF2C894FF6F870044044F007044FF6C6
:101C10008F70044044F070042C81BDE8F081F0B571
:101C200004460D4616461F463B4632462946204688
:101C3000FFF7CCFF208940F480402081F0BD018572
:101C4000828270470A46002101884FF68F7319403F
:101C5000114301807047F0B50C4615461E46002121
:101C6000002200230189028B038C4FF6F87739405C
:101C700021434FF6FC473A4040F201173A434FF6F2
:101C8000DD773B404FF6FF7707EA06172F433B43CC
:101C9000018102830384F0BD0A460021018B4FF6C7
:101CA0008F7319401143018370470A460021018B4D
:101CB00048F6FF7319404FF6FF7303EA02231943F6
:101CC000018370470A460021818B4FF68F731940BC
:101CD0001143818370470A460021818B48F6FF73C8
:101CE00019404FF6FF7303EA0223194381837047BB
:101CF00021B1028842F08002028004E002884FF69F
:101D00007F731A400280704721B1828842F004023A
:101D1000828004E082884FF6FB731A40828070470D
:101D200021B1828842F00802828004E082884FF666
:101D3000F7731A408280704721B1828842F0010215
:101D4000828004E082884FF6FE731A4082807047DA
:101D50000A460021018B4FF6F773194011430183A6
:101D600070470A460021018B4FF2FF7319404FF66E
:101D7000FF7303EA02231943018370470A460021D7
:101D8000818B4FF6F77319401143818370470A46E0
:101D90000021818B4FF2FF7319404FF6FF7303EA66
:101DA00002231943818370470A460021018B4FF6B5
:101DB000FB7319401143018370470A460021018BD0
:101DC0004FF6FF3319404FF6FF7303EA022319431E
:101DD000018370470A460021818B4FF6FB7319403F
:101DE0001143818370470A460021818B4FF6FF33F0
:101DF00019404FF6FF7303EA0223194381837047AA
:101E00000A460021018B4FF67F731940114301836D
:101E100070470A460021018BC1F30E014FF6FF7394
:101E200003EA02231943018370470A460021818B8C
:101E30004FF67F7319401143818370470A46002192
:101E4000818BC1F30E014FF6FF7303EA022319439E
:101E5000818370470A460021018C4FF6FD731940BB
:101E60001143018470470A460021018C4FF6F77335
:101E700019401143018470470A460021018C4FF636
:101E8000DF7319404FF6FF7303EA0213194301840D
:101E900070470A460021018C4FF67F7319404FF6B8
:101EA000FF7303EA02131943018470470A460021B5
:101EB000018C4FF6FF5319404FF6FF7303EA0223DC
:101EC0001943018470470A460021018C4FF2FF73C9
:101ED00019404FF6FF7303EA022319430184704748
:101EE0000A460021018C4DF6FF7319404FF6FF732F
:101EF00003EA023319430184704730B500230124FB
:101F00008C40A3B2048C9C430484048C02FA01F537
:101F1000ADB22C43048430BD30B5002304248C4082
:101F2000A3B2048C9C430484048C02FA01F5ADB284
:101F30002C43048430BD70B50346002000241846AD
:101F4000183001258D40ACB21D8CA5431D8409B10C
:101F5000082909D100EB6100056825F070050560CE
:101F60000568154305600EE00D1FC5F34E052844B6
:101F7000056825F4E045056005684FF6FF7606EA3A
:101F800002263543056070BD21B1028842F002028D
:101F9000028004E002884FF6FD731A400280704709
:101FA00021B1028842F00402028004E002884FF668
:101FB000FB731A400280704721B1828842F0800290
:101FC000828004E082884FF67F731A4082807047D7
:101FD00002884FF6F7731A40028002880A43028093
:101FE000704782884FF68F731A40828082880A4336
:101FF0008280704702894FF6F8731A400281028985
:102000000A430281704702894FF67F731A400281AA
:1020100002890A4302817047818470478185704735
:10202000818670470187704781877047A0F840100C
:10203000704702884FF6FF431A40028002880A4325
:10204000028070470146888E70470146088F7047AE
:102050000146888F70470146B1F84000704701463D
:10206000888C70470146088D704702460020138A0D
:102070000B400BB1012000E000207047CA430282F0
:10208000704730B50246002000230024158A05EA77
:102090000103958905EA010413B10CB1012000E0A8
:1020A000002030BDCA4302827047000010B50446CC
:1020B000FB48844209D101218803FFF79FF80021E2
:1020C0004FF48040FFF79AF832E0F648844209D195
:1020D00001214804FFF79FF800214FF40030FFF77B
:1020E0009AF825E0F048844209D101218804FFF7DD
:1020F00092F800214FF48020FFF78DF818E0EB48AC
:10210000844209D10121C804FFF785F800214FF46A
:102110000020FFF780F80BE0E548844208D1012158
:102120000805FFF778F800214FF48010FFF773F8E7
:1021300010BD2DE9F04786B005460E460024A246A4
:1021400000BFA1460027B08900B100BF2F462C8AEE
:102150004CF6FF700440F08804432C82AC894EF6A4
:10216000F3100440B088318908437189084304435F
:10217000AC81AC8A4FF6FF400440B0890443AC8286
:1021800001A8FEF7B4FFC648874202D1DDF810A0CF
:1021900001E0DDF80CA0A88900F4004040B10AEB92
:1021A000CA0000EB0A1031684900B0FBF1F807E003
:1021B0000AEBCA0000EB0A1031688900B0FBF1F8A5
:1021C0006420B8FBF0F004012009642101FB1089B0
:1021D000A88900F4004040B1322000EBC900B0FBF8
:1021E000F1F000F00700044308E0322000EB091092
:1021F0006421B0FBF1F000F00F0004432C8106B025
:10220000BDE8F0874FF41651016000218180C18044
:1022100001810C21418100218181704710B5024666
:102220000020108A4FF2FF0318400B884C8823438C
:102230008C882343CC8823431843108210BD00218F
:10224000018041808180C180704721B1828942F440
:102250000052828104E082894DF6FF731A40828128
:102260007047F0B50346002400260025002040F604
:102270006A17B94200D100BF1846C1F3421401F0F9
:102280001F06012707FA06F5012C01D10C3004E0E6
:10229000022C01D1103000E014301AB107682F432E
:1022A000076002E00768AF430760F0BD1AB1838A98
:1022B0000B43838202E0838A8B4383827047028AC6
:1022C0004FF6F0731A400282028A0A430282704774
:1022D00082894FF2FF731A40828182890A43828188
:1022E000704721B1828942F00202828104E0828932
:1022F0004FF6FD731A4082817047028A4FF6DF73F2
:102300001A400282028A0A430282704721B1028A7D
:1023100042F48042028204E0028A4BF6FF731A40C4
:1023200002827047C1F308028280704701468888A4
:10233000C0F308007047818941F001018181704735
:10234000028BD2B20283028B42EA012202837047DF
:10235000028B02F47F420283028B0A43028370479E
:1023600021B1828A42F02002828204E0828A4FF602
:10237000DF731A408282704721B1828A42F01002D4
:10238000828204E0828A4FF6EF731A40828270479D
:1023900021B1828A42F00802828204E0828A4FF6EA
:1023A000F7731A408282704721B1828942F4004259
:1023B000828103E08289C2F30E028281704721B1DB
:1023C000828A42F40062828204E0828A4FF2FF73C2
:1023D0001A4082827047828A4FF6FB731A408282CB
:1023E000828A0A438282704721B1828A42F00202C5
:1023F000828204E0828A4FF6FD731A40828270471F
:1024000002460020B1F5007F00D100BF13880B40C9
:102410000BB1012000E00020704701F40072B2F51A
:10242000007F00D100BFCA430280704770B50246EA
:10243000002400230025002040F66A16B14200D196
:1024400000BFC1F3421501F01F03012606FA03F392
:10245000012D02D19689334006E0022D02D1168A61
:10246000334001E0968A33400C12012606FA04F448
:102470001688344013B10CB1012000E0002070BD7B
:1024800010B50022002340F66A14A14200D100BF1B
:102490000A1201249440A3B2DC43048010BD000062
:1024A000003801400044004000480040004C00401B
:1024B0000050004010B56FF00400FEF75AF82E48A7
:1024C00000682E49B0FBF1F02D49087008460078ED
:1024D00000EB4001C1EBC0104FF6FF7101EAC000F4
:1024E0002849088010BD0146254A12784A434FF01A
:1024F000E0235A6100229A611A46126942F00102F1
:102500001A6100BF4FF0E022106900F001021AB119
:1025100000F48032002AF5D04FF0E022126922F058
:1025200001024FF0E0231A6100229A6170470146D0
:10253000144A12884A434FF0E0235A6100229A61FC
:102540001A46126942F001021A6100BF4FF0E02200
:10255000106900F001021AB100F48032002AF5D0AF
:102560004FF0E022126922F001024FF0E0231A61DD
:1025700000229A61704700000000002000127A00DB
:10258000E8000020EA000020A34A0A400243A34BCF
:102590001A6070470146072323EA010212029F4B8B
:1025A0001B1D18684FF6FF0318409D4B184310433E
:1025B0009A4B1B1D186070472DE9F041074688466D
:1025C00014461D462846FFF7E5FFC5F1040007FA4B
:1025D00000F60F20284100EA0800064306F00F0627
:1025E000E21704EBD2625211920002F1E022D2F81B
:1025F00000212146E31704EBD3635B11A4EB431CDA
:10260000012303FA0CF31A432046E31704EBD363C8
:102610005B119B0003F1E023C3F800218148005DBA
:1026200040EA06107F490855BDE8F08170B50446C0
:102630000B46CE1701EB9676C6F38700CE1701EB5B
:102640009676B610A1EB8606B606350E764B9B69DC
:1026500043F00103744EB3614FEAB63353F82030B0
:102660000F26AE40B343714E46F82030334653F840
:10267000203004FA05F61E436C4B43F820606C4B87
:102680001B6801268E403343694E336002F001031C
:1026900043B1674B0C331B6801268E403343644EB5
:1026A0000C36336002F0020343B1614B08331E68FD
:1026B00001238B401E435E4B08331E6070BD00B586
:1026C000002059490861C8601420486100208861D1
:1026D000C8610846006840F001000860084640688C
:1026E000544908405049486008460068524908402B
:1026F0004D4908600846006820F4802008600846BC
:10270000406820F4FE0048600020886000214FF0FF
:102710000060FFF739FF00BD10B540480830006881
:1027200040F004003D49083108603F48C06940F06E
:1027300080503D49C8614148406840F480703F493D
:1027400048600846006840F00400086008460068D9
:1027500040F002000860FDF737FD10BD3048001D55
:102760002E49091D08607047014649062E4A9269A4
:1027700042F001022C4B9A612C4A083A526822F02E
:10278000E0622A4B083B5A601A4652680A435A6074
:10279000704730B504460025FFF791FF22480068D6
:1027A00040F480302049086000BF1F480068400C9A
:1027B0000028FAD04FF480601B494860A01EC4B2C4
:1027C0000846406840EA844048600846406840F453
:1027D000803048601A48006840F0320018490860AC
:1027E0001148006840F080700F49086000BF0E4833
:1027F0000068400E0028FAD00B48406840F0020004
:102800000949486005E008484068C0F3870505F0BD
:102810000305022DF7D130BD80FFFF1F08ED00E05A
:102820000000FA0500E400E000100240080001404A
:10283000000401400000FFF8FFFFF6FE00700040BA
:1028400000200240014600BF704700BF244A1288A2
:1028500002F04002002AF9D0C2B2214B1B1D1A809F
:10286000704710B586B00446012144F20400FEF71B
:10287000ABFC4FF40070ADF8140003208DF8160087
:1028800018208DF8170005A91648FEF77BF94FF4BC
:102890008060ADF8140004208DF8170005A91148D8
:1028A000FEF770F901940020ADF80800ADF80A00B9
:1028B000ADF80C00ADF810000C20ADF80E0001A929
:1028C0000748FFF736FC002240F225510448FFF785
:1028D000C8FC01210248FFF7B8FC06B010BD00009B
:1028E000003801400008014008B501210420FEF72E
:1028F0006BFC1020ADF800008DF8030003208DF86C
:10290000020069460C48FEF73DF908BD18B90021E0
:102910000A4A11600FE00A490968491C084A116017
:10292000814208D105490968C943064AC2F8901195
:102930000021034A116070470008014090012142C4
:10294000EC0000200000214208B501210420FEF720
:102950003BFC2020ADF8000048208DF803006946BC
:102960008048FEF70FF90120FEF765FA0020FEF718
:1029700098FB0020FEF74FF80020FEF75CFA08BD38
:1029800001467948006828B978480088401C774A91
:10299000108002E00020754A10807348006828B952
:1029A0007348007810B90120714A1070714800789E
:1029B000B0B96F480078012807D16F480078401CF3
:1029C0006D4A107001206B4A10706B480078022825
:1029D00006D10020684A1070684A108002207047B3
:1029E00061480068012804D10020614A1070614AE2
:1029F00010706148007801281CD160480088401C94
:102A00005E4A10801046008888420ADD57480088D8
:102A1000884206DA0020584A1070584A1080012077
:102A2000DDE752480088884204DD0020524A1070D9
:102A3000524A10800020D2E751480078002831D057
:102A40004948006870B14F48006858B14648001DB9
:102A5000006838B14B48001F006818B14948083871
:102A60000068F8B90020464A10703F48006808B96D
:102A7000012115E04348006808B9022110E04148EF
:102A80000838006808B903210AE03748001D0068CB
:102A900008B9042104E03B48001F006800B9052183
:102AA000C8B2704730480068012814D13548006822
:102AB000012810D12C48001D006801280BD1314895
:102AC000001F0068012806D12E4808380068012838
:102AD00001D12B4A10700020E3E72B48008840B951
:102AE0002148006828B929480088401C27490880E7
:102AF00002E000202549088024480088C82807DD16
:102B000001202149088000202049088001207047C9
:102B10001D480088012802D100201B4908800020A0
:102B2000F5E710B51A48007888B120210D48FEF766
:102B3000BCF860B90A20FFF7FAFC002014490870BD
:102B400020210848FEF7B1F848B9012010BD202126
:102B50000448FEF7AAF8012801D10D4908700020A9
:102B6000F4E700000008014014012142F6000020B3
:102B7000F0000020F1000020F2000020F40000200E
:102B8000F80000203C012242FC000020FA00002056
:102B9000FE00002010B50A461AB10123FE4C236046
:102BA00002E00023FC4C2360002114E00023FB4CD6
:102BB000236000F080031BB10123241F236003E086
:102BC0000023F64C241F23600123F44C23604306AA
:102BD000180E4B1CD9B20829E8DB0123EE4C236008
:102BE00010BD30B500241CE004F1B001C8B20021D2
:102BF000FFF7D0FF00210846FFF7CCFF002110208F
:102C0000FFF7C8FF002508E0E54901EBC501085DB5
:102C10000121FFF7BFFF681CC5B2802DF4DB601CEB
:102C2000C4B2082CE0DB30BD00B500218D20FFF7D9
:102C3000B1FF00211420FFF7ADFF0021AF20FFF707
:102C4000A9FF00BD00B500218D20FFF7A3FF0021E3
:102C50001020FFF79FFF0021AE20FFF79BFF00BD74
:102C600030B500240CE0002506E00020CC4901EB43
:102C7000C5010855681CC5B2802DF6DB601CC4B2C6
:102C8000082CF0DBFFF7ADFF30BDF0B51446002691
:102C90007F2801DC3F2900DDF0BD0B46CF1701EB9B
:102CA0005777FF10C7F10707FAB2CF1701EB577735
:102CB000FF10A1EBC707FDB2C5F107070123BB4019
:102CC000DEB24CB1B64B03EBC0039B5C3343B44F55
:102CD00007EBC007BB5408E0B14B03EBC0039B5CA0
:102CE000B343AF4F07EBC007BB5400BFD4E72DE998
:102CF000F84F80460E4617461C46B2462046E3175C
:102D000004EB5373DB1021464FEAE47C04EB5C7C5C
:102D10004FEAEC0CA4EBCC0CBCF1000F02D04FF04E
:102D2000010C01E04FF0000C6344224604EBD27C1E
:102D30004FEA6C0C03FB0CF303F0FF0BA7F1200030
:102D4000C7B2002544E00C2C07D107EB470095499A
:102D500001EB8000405D009009E0102C05D1924805
:102D600000EB0710405D009001E0BDE8F88F4FF0E8
:102D7000000927E0009800F0800028B13146404665
:102D80000A9AFFF782FF09E00A9808B9012000E0DB
:102D90000020024631464046FFF777FF0098400684
:102DA000000E0090701CC6B2A6EB0A00A04205D12E
:102DB000564608F1010000F0FF0806E009F10100A5
:102DC00000F0FF09B9F1080FD4DB00BF681CC5B2E1
:102DD0005D45B8DB00BFC8E710B50246012000E042
:102DE00050430B00A1F10104E1B2F9D110BD2DE96E
:102DF000FF4F81B0074691461E460E9D4FF0000AD8
:102E0000002439E0301B401EC1B20A20FFF7E4FF66
:102E1000B9FBF0F00A21B0FBF1F201FB1208BAF1A4
:102E2000000F16D1701EA04213DDB8F1000F0ED1B5
:102E30000120AB4605EBDB71491001FB04710090EA
:102E4000C8B22B4620220299FFF751FF12E04FF043
:102E5000010A0120AB4605EBDB71491001FB04714F
:102E60000090C8B208F13001CAB22B460299FFF7B0
:102E70003EFF00BF601CC4B2B442C3DB05B0BDE876
:102E8000F08FF8B506460F4615460C2421E004EBFA
:102E9000D4714910C1F18001B14202DA002638191B
:102EA000C7B2C4F14000B84204DA00200646074623
:102EB000FFF7D6FE0120E3B200902A78394630466B
:102EC000FFF715FF204604EBD07106EB6101CEB28F
:102ED0006D1C28787E2802DC28782028D7DAF8BDF7
:102EE00008B501210820FEF76FF93820ADF8000081
:102EF00010208DF8030002208DF8020069462B484F
:102F0000FDF740FE01210420FEF75EF94FF400407A
:102F1000ADF8000002208DF8020010208DF80300AB
:102F200069462348FDF72EFE0120FDF784FF0020AF
:102F3000FEF7B7F80020FDF76EFD0020FDF77BFFE0
:102F400000201649083908606420FFF7F0FA0120D4
:102F50001849C1F88C010021AE20FFF71BFE0021AB
:102F6000D520FFF717FE00215020FFF713FE0021A8
:102F7000A820FFF70FFE00213F20FFF70BFE0021E6
:102F8000D320FFF707FE00210846FFF703FE0021CC
:102F90004020FFF7FFFD0FE0BC0121429481214258
:102FA000880100206E630008E2670008000C014001
:102FB000000801400080214200218D20FFF7EAFD3A
:102FC00000211420FFF7E6FD00212020FFF7E2FD9D
:102FD00000210220FFF7DEFD0021A120FFF7DAFD2E
:102FE0000021C020FFF7D6FD0021DA20FFF7D2FD37
:102FF00000211220FFF7CEFD00218120FFF7CAFD3E
:103000000021EF20FFF7C6FD0021D920FFF7C2FD08
:103010000021F120FFF7BEFD0021DB20FFF7BAFD04
:1030200000213020FFF7B6FD0021A420FFF7B2FDFC
:103030000021A620FFF7AEFD0021AF20FFF7AAFD7B
:10304000FFF70EFE08BD000000B587B001214FF468
:103050000170FEF7B9F84FF40040FEF719F8802030
:10306000ADF8040000208DF8070001A93648FDF7EF
:1030700089FD3648FDF79CFA002002908DF80C007F
:103080008DF80D004FF46020049000200590012081
:103090008DF8180002A92D48FDF7B1FA01212B483F
:1030A000FDF7D9FA2948FDF7F8FA00BF2748FDF7E0
:1030B000F9FA0028FAD12548FDF7FEFA00BF2348A7
:1030C000FDF7FFFA0028FAD107B000BD10B504469D
:1030D0000723012221461D48FDF729FB01211B483A
:1030E000FDF7F9FA00BF02211848FDF765FC00283A
:1030F000F9D01648FDF782FB10BD2DE9F04F85B0E1
:103100000720FFF7E3FF019002F06AFA4FF0663202
:103110000F4BCDE9020102F077FA804600220D4BF9
:1031200002F072FA064600220B4B02F06DFA0446DA
:1031300000220A4B02F0B6F8824602F00BFA049025
:10314000049805B0BDE8F08F00080140002401405C
:1031500066660A4000002640000059400000B0406A
:1031600030B589B005460C4601210420FEF739F838
:1031700001210820FEF728F84FF47070ADF8200008
:1031800018208DF8230002208DF8220008A94D4850
:10319000FDF7F8FCADF81850ADF814400020ADF87C
:1031A0001A00ADF8160005A94748FEF745F960205A
:1031B000ADF804000120ADF806000020ADF80A00CB
:1031C000ADF80C0001A94048FEF773F901A93E488B
:1031D000FEF7B1F901A93C48FEF7FAF901A93A480E
:1031E000FEF741FA08213848FEF7B2FD08213648BB
:1031F000FEF7B7FD08213448FEF7C0FD082132482C
:10320000FEF7C5FD01213048FEF772FD01212E4871
:10321000FEF76EFC09B030BD2C4A926942F40062A0
:103220002A4B9A611A46926942F004029A61284A2E
:1032300012684FF20F039A43254B1A601A46126820
:103240004BF20B031A43224B1A60224A1080121FC2
:103250001180204A103A128842F4C0421D4B103BA4
:103260001A801A1F128842F060021B1F1A801A1D52
:10327000128842F400621B1D1A801A1F128842F045
:1032800008021B1F1A80134A0C3A128842F480521B
:10329000104B0C3B1A801A46128842F001021A8029
:1032A0000C4A1832128842F400420A4B18331A8032
:1032B0008022084B2C3B1A801A46128842F00102E9
:1032C0001A807047000C01400008004000100240C6
:1032D000040801402C2C014010B586B004460121A1
:1032E0000820FDF771FF01218804FDF77AFF4FF4F4
:1032F0008060ADF8140003208DF8160018208DF8BA
:10330000170005A91F48FDF73DFC4FF40060ADF81C
:10331000140004208DF8170005A91A48FDF732FCA7
:1033200027208DF8000000208DF8010001208DF885
:1033300002008DF803006846FDF7D1F801940020E3
:10334000ADF80800ADF80A00ADF80C00ADF81000BB
:103350000C20ADF80E0001A90B48FEF7EAFE012291
:1033600040F225510848FEF77CFF01210648FEF790
:103370006CFF06B010BD10B540F225510248FFF7B2
:1033800055F810BD000C0140004800402DE9FF4FEA
:1033900097B00D4616461F46179802F00FFCCDE970
:1033A0000E01384602F00AFCCDE9080101F0D4FD17
:1033B0004FF04042FE4BCDE90A0102F025F9CDE97C
:1033C0000C01DDE90E2302F00FFBCDE9100101F045
:1033D00087FE8046284602F0F1FBCDE90E01384613
:1033E00002F0ECFBCDE9080101F004FE4FF0404291
:1033F000EF4BCDE90A0102F007F9CDE90C01DDE957
:103400000E2302F0F1FACDE9100101F069FE8146C8
:103410004946484602F0B6FD41460F90404602F04C
:10342000B1FDE4490D9002F0AAFE0E900F9902F052
:10343000B1FE4FF08041109002F05AFCDE4911902D
:1034400002F056FC82464946484602F09BFD414642
:103450001190404602F096FD1090119902F0DAFBAF
:10346000834649464FF0404002F08CFD5146119092
:1034700002F088FD04464146404602F083FD514675
:103480001190504602F07EFD1090119902F082FEDC
:10349000169059464FF0814002F074FD0E90169937
:1034A00002F070FD21461090204602F06BFD0F9057
:1034B000109902F06FFE0021119002F02FFD0BD841
:1034C000BE480068BE490860BE480068BE49086042
:1034D00000201BB0BDE8F08F584602F06FFBCDE92D
:1034E0000E0159464FF0814002F04CFD00901699B4
:1034F00002F048FD21460290204602F043FD019073
:10350000029902F047FE039002F058FBCDE9040156
:1035100001F0C0FDCDE9080184F00040059002F003
:103520004DFBCDE90601DDE9082301F00BFE002289
:103530004FF08043CDE90A0101F0B4FECDE90C0162
:10354000DDE90E2301F0AEFECDE9100101F0C8FD6A
:103550001590159802F032FBCDE90A0101F0C4FB89
:1035600000229A4BCDE90C0102F04EF8984A994B93
:10357000CDE90E0101F096FECDE9100101F0B0FD9C
:1035800015909549159802F0C9FD01D29248159001
:103590009249159802F0C2FC01D290481590494614
:1035A000484602F0EFFC41460F90404602F0EAFC2C
:1035B0008B490D9002F0E3FD0E900F9902F0EAFDA9
:1035C0004FF08041109002F093FB8649119002F079
:1035D0008FFB82464946484602F0D4FC4146119092
:1035E000404602F0CFFC1090119902F013FB834685
:1035F00049464FF0404002F0C5FC5146119002F0A0
:10360000C1FC04464146404602F0BCFC51461190C4
:10361000504602F0B7FC1090119902F0BBFD1690D5
:1036200059464FF0814002F0ADFC0E90169902F021
:10363000A9FC21461090204602F0A4FC0F9010999E
:1036400002F0A8FD0021119002F068FC09D85B4847
:1036500000685B4908605B4800685B4908600020BF
:1036600037E7584602F0AAFACDE90E0159464FF065
:10367000814002F087FC0090169902F083FC2146FD
:103680000290204602F07EFC0190029902F082FD39
:10369000039002F093FACDE9040101F0FBFCCDE9BF
:1036A000080184F00040059002F088FACDE9060197
:1036B000DDE9082302F098F900224FF08043CDE9BC
:1036C0000A0101F0EFFDCDE90C01DDE90E2301F067
:1036D000E9FDCDE9100101F003FD1290129802F00E
:1036E0006DFACDE90A0101F0FFFA0022374BCDE96E
:1036F0000C0101F089FF364A364BCDE90E0101F08D
:10370000D1FDCDE9100101F0EBFC12903249129885
:1037100002F004FD01D2304814903049129802F0B2
:10372000FDFB01D22D4814901599129802F032FD3C
:1037300014902949149802F0F1FC01D22648149003
:103740002649149802F0EAFB01D2244814901498F8
:1037500002F034FACDE90E01159802F02FFACDE906
:103760000A012149384602F00DFC059002F026FAC4
:10377000174A184BCDE9060101F094FDCDE9080187
:10378000DDE90A2302F030F9CDE90C01DDE90E2371
:1037900002F02AF9CDE9100101F0A2FC13900E49C4
:1037A000139802F0BBFC01D20B4813900B491DE0AB
:1037B000F528AC3F1BE8A1BB3D0AD73D2001002006
:1037C000A000002024010020A4000020008066400A
:1037D000F1D4C853FB2109400000B4420000B4C238
:1037E0001BE8A13B77BE9F3D00003443139802F0D5
:1037F00095FB01D2FA481390FA49304602F0C2FB19
:10380000F949119002F0BBFCF8490860F849159895
:1038100002F0C0FCF349109002F0B4FBF54911909E
:1038200002F0ADFCF4490860EE49149802F0AAFBDE
:10383000F249119002F0EEF9F1490860E949139854
:1038400002F0A0FBE849119002F0E4F9ED490860AC
:10385000E449249802F096FBEB49119002F08FFCAA
:10386000EA490860EA480068EA490860EA480068EE
:10387000EA49086000202CE62DE9F04706460F468D
:1038800014461D46DDE90889E5480168304602F026
:10389000C1F9E34908603946E248006802F0BAF924
:1038A000E04908602146E048006802F0B3F9DE49CB
:1038B00008602946DD48006802F0ACF9DB49086081
:1038C0004146DB48006802F0A5F9D949086049463D
:1038D000D848006802F09EF9D6490860D0480068D0
:1038E00002F0E4FAD4490880CE48006802F0DEFA1B
:1038F000D149091D0880CC48006802F0D7FACE49AA
:1039000008310880C948006802F0D0FACA490C3171
:103910000880C748006802F0C9FAC8490880C5484D
:10392000006802F0C3FAC5490C310880BDE8F08791
:1039300070B5C348006802F09DFA0646C0480068AA
:1039400080F00045284602F095FA0446204602F031
:10395000CDFA0546BB480168284602F0DFFB04D2D9
:10396000204602F0C3FAB7490860304602F0BEFABA
:103970000546B4480168284602F0D0FA04D2304621
:1039800002F0B4FAAF490860204602F0AFFA0546EB
:10399000AD480168284602F0C1FB04D2204602F07F
:1039A000A5FAA9490860304602F0A0FA0546A648E3
:1039B0000168284602F0B2FA04D2304602F096FAC4
:1039C000A1490860204602F091FA05469F48016827
:1039D000284602F0A3FB04D2204602F087FA9B4956
:1039E0000860304602F082FA054698480168284689
:1039F00002F094FA04D2304602F078FA9349086053
:103A0000204602F073FA054691480168284602F004
:103A100085FB04D2204602F069FA8D4908603046E1
:103A200002F064FA05468A480168284602F076FAF0
:103A300004D2304602F05AFA85490860204602F066
:103A400055FA054683480168284602F067FB04D210
:103A5000204602F04BFA7F490860304602F046FAF1
:103A600005467C480168284602F058FA04D23046E0
:103A700002F03CFA77490860204602F037FA054622
:103A800075480168284602F049FB04D2204602F03E
:103A90002DFA71490860304602F028FA05466E4852
:103AA0000168284602F03AFA04D2304602F01EFAC3
:103AB0006949086070BD2DE9F04704460D46294666
:103AC000204602F05CFB65490860084601686448CE
:103AD000006802F09FF862490860624801685F4828
:103AE000006802F057FB81465F480168484602F0D3
:103AF00049FA80465D4902F0FBF8064658480168DD
:103B00005B48006802F03EFA8246584902F0F0F83D
:103B10008046524801685748006802F033FA8246EE
:103B2000524902F0E5F88146414602F073F8074633
:103B3000314602F06FF8504908604848006849492A
:103B400008604D480068BDE8F0872DE9F04704465D
:103B50000D462946204602F012FB484908600846F7
:103B600001684748006802F055F845490860454833
:103B700001684248006802F00DFB81463A4801683E
:103B8000484602F0FFF98046384902F0B1F806468F
:103B90003B4801683648006802F0F4F98246334930
:103BA00002F0A6F88046354801683248006802F005
:103BB000E9F982462D4902F09BF88146414602F020
:103BC00029F80746314602F025F82F4908602B48AE
:103BD00000682C4908602C480068BDE8F0870000A8
:103BE0000000B4C2508DA34000803B4488000020F8
:103BF0000000B442004045448C00002000403344A3
:103C00009000002094000020000048449C00002008
:103C1000A000002020010020A4000020240100209A
:103C200044000020480000204C00002050000020EC
:103C3000540000205800002034080040342C01407B
:103C40005C0000202C000020300000203400002008
:103C5000380000203C0000204000002078010020B7
:103C60008001002084010020BC0000200000C84228
:103C7000B8000020B40000207C0100206801002072
:103C800070010020740100206C0100202DE9F04734
:103C900004460D462946204602F071FAFB490860A9
:103CA00008460168FA48006801F0B4FFF849086066
:103CB000F8480168F548006802F06CFA8146F64859
:103CC0000168484602F05EF98046F44902F010F8B7
:103CD0000646EF480168F248006802F053F9824650
:103CE000EE4902F005F88046E8480168ED480068B2
:103CF00002F048F98246E94901F0FAFF814641465F
:103D000001F088FF0746314601F084FFE64908606C
:103D1000DE480068DF490860E3480068BDE8F087D6
:103D20002DE9F04704460D462946204602F027FAC1
:103D3000DE49086008460168DD48006801F06AFF56
:103D4000DB490860DB480168D848006802F022FAC5
:103D50008146D1480168484602F014F98046CF49AF
:103D600001F0C6FF0646D2480168CD48006802F05F
:103D700009F98246C94901F0BBFF8046CB4801687A
:103D8000C848006802F0FEF88246C44901F0B0FF5E
:103D90008146414601F03EFF0746314601F03AFFB9
:103DA000C5490860C1480068C2490860C248006847
:103DB000BDE8F0872DE9F04704460D462946204628
:103DC00002F0DDF9BD49086008460168BC4800689A
:103DD00001F020FFBA490860BA480168B748006896
:103DE00002F0D8F98146AC480168484602F0CAF8AA
:103DF0008046AA4901F07CFF0646B1480168A84800
:103E0000006802F0BFF88246A44901F071FF8046C5
:103E1000AA480168A348006802F0B4F882469F49A6
:103E200001F066FF8146414601F0F4FE0746314647
:103E300001F0F0FEA4490860A0480068A1490860AC
:103E4000A1480068BDE8F0872DE9F04704460D461B
:103E50002946204602F093F99C490860084601680B
:103E60009B48006801F0D6FE9949086099480168AE
:103E70009648006802F08EF98146874801684846F6
:103E800002F080F88046854901F032FF06469048EE
:103E900001688348006802F075F882467F4901F0A6
:103EA00027FF8046894801687E48006802F06AF86A
:103EB00082467A4901F01CFF8146414601F0AAFE84
:103EC0000746314601F0A6FE834908607F48006836
:103ED0008049086080480068BDE8F08770B54FF4FD
:103EE0009664A510284602F001F806467B48016852
:103EF000304602F013F904D2284601F0F7FF774963
:103F00000860204601F0F2FF06467448016830461A
:103F100002F004F804D2204601F0E8FF6F4908607F
:103F2000284601F0E3FF06466D480168304602F07E
:103F3000F5F804D2284601F0D9FF69490860204607
:103F400001F0D4FF064666480168304601F0E6FFFE
:103F500004D2204601F0CAFF61490860284601F0FA
:103F6000C5FF06465F480168304602F0D7F804D224
:103F7000284601F0BBFF5B490860204601F0B6FF10
:103F8000064658480168304601F0C8FF04D2204672
:103F900001F0ACFF53490860284601F0A7FF064630
:103FA00051480168304602F0B9F804D2284601F0C1
:103FB0009DFF4D490860204601F098FF06464A489B
:103FC0000168304601F0AAFF04D2204601F08EFFBE
:103FD00045490860284601F089FF064643480168C4
:103FE000304602F09BF804D2284601F07FFF3F499B
:103FF0000860204601F07AFF06463C4801683046DA
:1040000001F08CFF04D2204601F070FF37490860B0
:10401000284601F06BFF064635480168304602F03D
:104020007DF804D2284601F061FF3149086020463E
:1040300001F05CFF06462E480168304601F06EFF35
:1040400004D2204601F052FF2949086070BD2DE9D5
:10405000F04104462748007801287AD126480068B4
:10406000052807D125480168204601F0D3FD2349E2
:1040700008606BE120480068072841D11F480168AB
:10408000204602F07CF81D4908605FE158010020DD
:104090006001002064010020BC0000200000C84234
:1040A000B8000020B40000205C010020480100207E
:1040B00050010020540100204C0100203801002054
:1040C00040010020440100203C0100202801002084
:1040D00030010020340100202C0100208800002045
:1040E0008C00002090000020940000209800002008
:1040F0009C00002014000020D0000020A000002020
:10410000FE4800680C2807D1FD480168204601F0F0
:1041100081FDFB49086019E1F84800680A2807D1C9
:10412000F7480168204602F02AF8F54908600DE1D9
:10413000F248006808280DD1F249204601F022FF1C
:104140000546F1480168284602F019F8EE49086072
:10415000FCE06CE0E948006806280CD1E9492046FB
:1041600001F010FF0546E8480168284601F052FDBD
:10417000E5490860EAE0E14800680D2807D1E34816
:104180000168204601F0FBFFE0490860DEE0DB4803
:1041900000680F2807D1DD480168204601F03AFD8C
:1041A000DA490860D2E0D54800680E280CD1D84919
:1041B000204601F0E7FE0546D6480168284601F092
:1041C00029FDD4490860C1E0CC48006810280CD112
:1041D000CF49204601F0D6FE0546CE480168284664
:1041E00001F0CDFFCB490860B0E0C4480068042866
:1041F0000CD1C449204601F0C5FE0546C6480168F9
:10420000284601F007FDC44908609FE0BB480068EC
:1042100001288CD1BB49204601F0B4FE0546BE48BA
:104220000168284601F0ABFFBB4908608EE0B34847
:104230000068082807D1B9480168204601F0EAFC67
:10424000B649086082E0AD480068062807D1B34847
:104250000168204601F093FFB049086076E0A74866
:1042600000680C2807D1AE480168204601F087FF9E
:10427000AB4908606AE0A14800680A2807D1A8484D
:104280000168204601F0C6FCA54908605EE09B4835
:104290000068052807D1A3480168204601F06FFF98
:1042A000A049086052E095480068072807D19D485A
:1042B0000168204601F0AEFC9A49086046E08F484C
:1042C00000680D2807D198480168204601F057FF83
:1042D000954908603AE0894800680F2807D192485C
:1042E0000168204601F096FC8F4908602EE0834863
:1042F00000680E2807D187480168204601F08AFC33
:104300008449086022E07D480068102807D1814870
:104310000168204601F033FF7E49086016E07748C7
:104320000068042807D181480168204601F027FF72
:104330007E4908600AE071480068012806D17B4880
:104340000168204601F066FC784908606B48006807
:104350000B280ED17648006801F030FC0546754AFE
:10436000754B00F0EFFE074600F0BAFE704908609A
:1043700011E06248006809280DD16D48006801F01D
:104380001DFC05466B4A6C4B01F02EFB074600F006
:10439000A7FE6749086069496548006801F0BEFDED
:1043A00002D866486249086065496148006801F0C2
:1043B000B5FE02D862485E490860BDE8F08101465A
:1043C000B1F52F7F01DA012000E00020704710B521
:1043D0003220FEF7D5FA0446012C07D1594800785F
:1043E00008B9012000E000205649087010BD7CB5D6
:1043F00001218807FDF745FE00287DD001218807AF
:10440000FDF750FE5048007801280BD14F48007846
:10441000401CC0B24D490870052803D10020087027
:1044200049490870FFF7D3FF49480068FFF7C7FF05
:10443000002862D143480078012816D145493C48FC
:10444000006801F055FC0546FFF701FE32480068A0
:1044500000902E4803682C480268294801683E48AD
:104460000068FEF793FF044607E0344930480068CF
:1044700001F03EFC0546FFF7EAFDFFF72FFD274858
:10448000016836480068FFF7DFFC354908602448BA
:10449000016834480068FFF78DFC33490860214803
:1044A000016832480068FFF73BFC314908601E484C
:1044B000016830480068FFF7E9FB2F49086015489C
:1044C00001682E480068FFF740FB2D490860174837
:1044D00001682C480068FFF7EEFA2B490860FFF7E7
:1044E00027FA2948006826490968CDE900102248C2
:1044F00003681F48026849E06BE04DE0D0000020EF
:10450000A400002000007A44A8000020AC00002095
:1045100000803B4598000020B0000020880000206B
:104520008C00002090000020940000209C000020BF
:104530005C0000209A9999999999A93F0000404000
:104540000000F041140000206500002064000020FD
:104550006000002000401C46A00000204400002015
:104560002C00002048000020300000204C000020DB
:1045700034000020500000203800002054000020AB
:104580003C00002058000020400000201548016831
:1045900015480068FFF770F96420FEF7B7F9FEF7D9
:1045A000ACFD1249096808441049086010480068C9
:1045B000401C0F49086064280BD10C480068642136
:1045C00090FBF1F00B490860002008490860084999
:1045D000086000207CBD0146002901DA484200E065
:1045E00008467047300000202C0000201C010020ED
:1045F0001801002060000020704770477047704726
:10460000704710B500F008F8006810BD10B50446FA
:1046100000F002F8046010BD0048704788050020D3
:1046200000487047880500207546FFF7F9FFAE4641
:1046300005006946534620F00700854618B020B5AE
:10464000FBF736FFBDE820404FF000064FF00007B3
:104650004FF000084FF0000B21F00701AC46ACE82A
:10466000C009ACE8C009ACE8C009ACE8C0098D4697
:1046700070470446AFF300802046FBF79EFD4900DB
:1046800050EAC12018BF04204A0D18BF40F00100B5
:1046900040F2FF72B2EB515F08BF40F00200012808
:1046A00008BF0520704700002DE9F74F144694B06D
:1046B0000021C4E902111599079121F00045C9496B
:1046C0008D4206DC1599C4E9000117B00020BDE851
:1046D000F08FC549DFF814A3A9423CDD0799C44E09
:1046E0000029C44FC44A1599534619DD01F07CF9DD
:1046F000554506D0C14AC24B01F076F9C4E9000124
:104700000AE04FF0D352BE4B01F06EF932463B4601
:1047100001F06AF9C4E9000117B00120BDE8F08F8B
:1047200000F010FD554506D0B44AB54B00F00AFD27
:10473000C4E900010AE04FF0D352B14B00F002FD92
:1047400032463B4600F0FEFCC4E9000117B04FF0D2
:10475000FF30BDE8F08FAB49A942159978DB21F015
:10476000004183468846A84AA84B00F04DFF00222E
:10477000A74B00F0E7FC00F0EDFE099000F019FFF8
:1047800006460F469C4A534600F03EFF43465A46B3
:1047900001F038F880468A46984A994B30463946A7
:1047A00000F032FF2A0D01250B924246534601F0DC
:1047B00029F8032DC4E9000139D00B98C1F30A513F
:1047C000401A05EB45111139814230DA9148C34650
:1047D000784400EB0510CDF80CA00C90D0E9002334
:1047E0003046394600F010FF02460B460491069011
:1047F0005846039901F0F8F880468A4602460B466F
:104800005846039901F0F0F8049B069A01F0ECF881
:1048100083460C9803913946D0E90223304600F0D4
:10482000F3FE5A46039B01F0DFF86D1CBDE70798C5
:104830000028A2BF099817B0BDE8F08F616881F029
:1048400000416160099817B04042BDE8F08FFFE772
:1048500084461598C1F31301C0F30A50A0F2F53055
:104860004FEA601800F01F06C6F1200013900020E8
:104870000690079041F4801E05206D4676B1664A89
:1048800008EB00017A4452F8213002EB8101B34079
:104890004A68139922FA01F1194305E05F4908EBD0
:1048A0000002794451F82210A1FB0E27A1FB0C1342
:1048B0001A449A4234BF0123002303EB070A05EB95
:1048C0008003D3E901B70F448F4234BF0121002197
:1048D00093448B4411B1934502D903E0934501D22F
:1048E000012100E00021C3E901B7514445F820103F
:1048F000011EA0F10100C1DC0298059F00F10050EB
:10490000800F12900298DDE90356800000F051FEFE
:10491000834628460D9100F063FE6FF01D0201F002
:10492000E0FCCDE90E01304600F05AFE6FF03D028A
:1049300001F0D7FC80468A46384600F051FE6FF001
:104940005D0201F0CEFC074642465346119100F04D
:10495000F9FBDDE90E2300F0F5FB5A460D9B00F054
:10496000F1FB00250E465A4628460D9B01F03CF807
:10497000DDE90E2301F038F84246534601F034F8E1
:104980003A46119B00F03EFFDFF898A0244A5346B8
:1049900000F03AFE07468846234A244B3146284613
:1049A00000F032FE3A46434600F0CCFB074688460C
:1049B0004FF0A84253463146284600F025FE3A46BD
:1049C000434600F0BFFB159A12F0004F04D0129A34
:1049D00081F0004152421292C4E90001129817B0CE
:1049E000BDE8F08FFB21E93F7CD90240FB21F93F74
:1049F0007370032E8A19A33B000040543163621A7E
:104A000061B4D03DFB21394183C8C96D305FE43FBB
:104A10000000E03F8426000000260000E2250000A0
:104A2000182D4454FB21F93D3326A611460B113CA9
:104A30002DE9FF4D21F0004807460C46B8F1795F9B
:104A400008DA00F087FD002801BF0020324904B0D9
:104A5000BDE8F08D3A4623461046194600F0D4FDD5
:104A6000054602462D480E460B460621784400F0C6
:104A70005DF82A46334600F0C7FDDDE90223824691
:104A80008B463846214600F0BFFD04460F4652468D
:104A90005B462846314600F0B7FD22463B4600F013
:104AA000A3FF07468A464FF0FF322846314601F001
:104AB00018FC1B4A90450ADA3A46534600F094FF28
:104AC00004B00022BDE8F04D134B00F09BBE154A28
:104AD0004245A8BFA8F500154FF00004B8BF124D1D
:104AE00022462B4600F080FF0646884622462B468B
:104AF0000020094900F078FF04460D463A46534627
:104B00003046414600F070FF04B022462B46BDE817
:104B1000F04D00F077BE00000000F03FB823000029
:104B20003333D33F0000E93F0000D23F2DE9F0418D
:104B30004F1E00EBC7010446D1E9000115461E4691
:104B400037F006020DD02A46334600F05DFD7F1E89
:104B500004EBC703D3E9002300F0F4FA37F00602B0
:104B6000F1D1022F25D0042F13D0062F18BFBDE896
:104B7000F0812A46334600F047FDD4E90A2300F0CD
:104B8000E1FA2A46334600F03FFDD4E9082300F05D
:104B9000D9FA2A46334600F037FDD4E9062300F05F
:104BA000D1FA2A46334600F02FFDD4E9042300F061
:104BB000C9FA2A46334600F027FDD4E9022300F063
:104BC000C1FA2A46334600F01FFDD4E90023BDE8B0
:104BD000F04100F0B7BA00002DE9FF4D054621F085
:104BE000004084B00C46B0F1795F0BDA2846FFF73D
:104BF00046FD042808BF00F06FF8284608B021469B
:104C0000BDE8F08D2A460B46104600F0FDFC064636
:104C10000F462A46234600F0F7FC804626488A467F
:104C200032463B4605217844FFF780FF83461098C3
:104C3000029160B3214A224B4046514600F0E4FC09
:104C4000CDE900015A4640465146029B00F0DCFC8B
:104C500082468846DDE906014FF0FF3201F041FB54
:104C60005246434600F0C0FE32463B4600F0CCFCC4
:104C7000DDE9062300F0B8FEDDE9002300F0B4FE14
:104C800008B02A462346BDE8F04D00F0BBBD0B46F8
:104C90005A463046394600F0B7FC084A084B00F047
:104CA00051FA4246534600F0AFFC08B02A4623466C
:104CB000BDE8F04D00F046BAF622000049555555C2
:104CC0005555C5BF012201F00CBB0022134610460A
:104CD000114600F0E7BA0000024A0020110701F077
:104CE00000BB000001FDFFFF2DE9F04D8D4F21F0CD
:104CF000004A86B005460C46BA452ADBAAEB0700F7
:104D000028430AD08848824501DC1AD1CDB106B0CB
:104D10002846BDE8F04DFFF7D5BF844A844B2846AE
:104D200000F072FC07460E46824A834B2846214615
:104D300000F06AFC06B03A463346BDE8F04D00F09C
:104D400001BA0120FFF762FC06B0BDE8F04DFFF7A5
:104D5000BCBF7A48824542DABAF1795F0BDA28465D
:104D6000FFF78DFC042808BFFFF7B6FF284606B002
:104D70002146BDE8F08D2A460B46104600F044FC63
:104D8000834602466E480E460B4606217844FFF7DE
:104D9000CDFE5A46334600F037FC804669488A46C5
:104DA0005A46334604217844FFF7C0FE5A4633463C
:104DB00000F02AFC00223B4600F0C4F902460B46F4
:104DC0004046514600F06EFA2A46234600F01CFC8D
:104DD00006B02A462346BDE8F04D00F0B3B9284698
:104DE00024F0004100223D463B4600F00BFD4FF011
:104DF000FF3201F076FA0646024653480F460B464C
:104E000006217844FFF792FE32463B4600F0FCFB59
:104E1000CDE900014D4832463B4604217844FFF776
:104E200085FE32463B4600F0EFFB00222B4600F0A9
:104E300089F9834602913046394600F02BF98046C5
:104E400043480D46504517DCDDE900015A46029BF8
:104E500000F028FA42462B4600F0D6FB42462B468D
:104E600000F070F9012201F03CFA304A304B00F0BA
:104E7000BBFD304A304B4CE04FF0000A52460B4627
:104E8000404600F05FF9CDE9031052462B4610462C
:104E9000194600F0B9FB32463B4600F0B3FCDDE9B1
:104EA000033200F0FFF906460F46DDE900015A46DD
:104EB000029B00F0F7F98346009101223046394603
:104EC00001F00FFA194A1A4B00F09CFC06460F46F7
:104ED00001224046294601F004FA5A46009B00F0A0
:104EE00093FB32463B4600F07FFD06460F4601220B
:104EF0005046294601F0F5F90E4DDFF858802A4654
:104F0000434600F07FFC32463B4600F07BFC2A46DD
:104F1000434600F077FC002CD8BF81F0004106B07A
:104F2000BDE8F08D0000F03F0000F07F075C143317
:104F300026A6913C182D4454FB21F93F0000E03F88
:104F4000482000005E200000D21F0000E81F000083
:104F50003333EF3FFB21E93F00B5244B21F0004202
:104F600087B09A42DCBF0022134629DD204B9A42CB
:104F700008D140B94FF00100FFF748FBFFF7A5FE4D
:104F800007B000BD03DBFFF79DFE07B000BD02AA1E
:104F9000FFF78AFB10F0030104BF0DF1080C9CE839
:104FA0000F000DD0012001290ED0022914D00DF1DF
:104FB000080C00909CE80F00FFF70EFE07B000BD44
:104FC000FFF736FD07B000BD0DF1080C00909CE81E
:104FD0000F00FFF701FE05E00DF1080C9CE80F0043
:104FE000FFF726FD07B081F0004100BDFB21E93F3E
:104FF0000000F07F00B5254B21F0004287B09A42B7
:1050000003DC0022134600922BE0214B9A4208D188
:1050100040B94FF00100FFF7F9FAFFF756FE07B06D
:1050200000BD03DBFFF74EFE07B000BD02AAFFF78D
:105030003BFB10F003014FF001000DD0012914D00B
:1050400002291AD00DF1080C9CE80F00FFF7F0FCC4
:1050500007B081F0004100BD0DF1080C00909CE804
:105060000F00FFF7B9FD07B000BD0DF1080C9CE87B
:105070000F00FFF7DDFC07B000BD0DF1080C00903C
:105080009CE80F00FFF7A8FDE2E70000FB21E93FE5
:105090000000F07F2DE9F04106460F4600F0BEFB10
:1050A00004000D4618BF0120284320F00040C0F145
:1050B0007F6000F1E040C00F0ED0301C18BF01200F
:1050C000384320F00040C0F17F6000F1E040C00FA5
:1050D00004BF0120FFF79AFA20462946BDE8F08177
:1050E00021F00042A2F16052B2F5801F01F00043AE
:1050F00028BFD2F17F6C0BD95FEA001C43EAC202E1
:1051000042EB507018BF704728BF20F00100704775
:10511000B2F5801FBCBF184670474FEA410C1CF522
:10512000001F02D2084600F0F4BF70B500F016FB75
:1051300000000089FFF7F6BF4FF00040A0F58000A7
:105140007047000010B591EA030F48BF83F0004399
:1051500000F15284841A71EB030C05D2121943EB4F
:105160000C03001B61EB0C01DFF824E14FEA115442
:10517000A4EB135C1EEA430F18BF9EEA445F73D092
:1051800023EA0E03DCF1200E21EA045143F48013DC
:1051900032D322FA0CFE10EB0E0023FA0CFE41EB88
:1051A0000E01CCF1200E03FA0EFE10EB0E0051F1B1
:1051B0000001B1F5801FCCF1200E32D201EB045179
:1051C00012FA0EF2BDE8104058BF7047401C38BFBD
:1051D0005FEA420218BF7047002814BF20F00100A8
:1051E00041F100014FEA410313F5001F38BF70473A
:1051F000A1F1C04100F000BB012A43EB0302ACF176
:10520000200CDCF11F0E32BF4FF0000E23FA0CF31E
:1052100010EB030041EB0451B4EB115FD0D0A1EBD4
:10522000045101F5801149085FEA300001EB045197
:105230000ED350F1000038BF12FA0EFE08D1BDE8BF
:105240001040C9E7401C38BF5FEA4202CAD1C3E739
:10525000BDE810404FEA410313F5001F38BF704707
:10526000A1F1C04100F0C8BA9EEA445F08D011EA3B
:105270005E0FBDE8104004BF01F000410020704700
:10528000BDE8104070B500F069FA00BF64FBBE3E97
:105290000000E0FF02494FF0000000F0F0BF00BF47
:1052A0000000F87F2DE9C04130B4DFF8A0C23CEA2D
:1052B000111418BF3CEA131400F0EC8081EA0305D6
:1052C0001CEA111444EAD57418BF1CEA131500F047
:1052D000C780A4EB05044FF0004545EAC12145EA2B
:1052E000C32341EA505143EA525304F17F74994277
:1052F00004F500344FEAC0204FEAC22208BF9042B2
:1053000000F09C804FEA13650FF24016765D4FEA7D
:10531000134506FB05F7C7F1807706FB07F74FEA51
:10532000D737A7FB03687642C8F58038A7FB06CEBF
:1053300038BFA8F1010807FB08E64FF0000EA6FBF6
:10534000028CE6FB03CEDCF1000CCEF1004E38BF40
:10535000AEF1010EA6FB0C584FF000074FF0000510
:10536000E6FB0E87A1FB08C6A0FB07CE16EB0E06D8
:1053700045F10005E1FB076515F1E04E7EBFA4F5A0
:1053800080345FEA46066D4116F1800745F100055D
:105390004FEA17274FEA066647EA0567A6F1DE4699
:1053A000B6F1805F4FEA15251FD9384624F0010C6D
:1053B00005EBC471BCF1FE6F01EB0C1102D8F0BC1F
:1053C000BDE8008124425CBF01F5801E9EEAC47FD7
:1053D00002D4F0BCBDE80081244238D4F0BCA1F175
:1053E000C041BDE8004100F007BA4FEAD22242EACC
:1053F00043524FEAD323A7FB02864FEAD02040EA6C
:10540000415007FB03661EEA0E0F4FEAD12105FB50
:10541000026658BFA6EB0056B6EB00564FEA520E96
:105420004EEAC37E18EB0E0E56EB530EBDD518EBAD
:1054300002085E417F1C55F10005B6E74FF4801568
:105440004FF000074FF000064FF00008ADE7F0BC4A
:105450004FF0000001F1C04101F00041BDE80081C2
:1054600011EA0C1F0CEA131500D00CE013EA0C1F14
:1054700000F025804FF00000F0BC81EA030101F04C
:105480000041BDE80081F0BCBDE8004181EA0301B4
:1054900000F0B2B9F0BCBDE8004170B500F05EF9B3
:1054A000097EFC3E00F007B881EA03014FF00000DE
:1054B00001F00041704781EA030100F09DB9F0BCA2
:1054C000BDE800414FF0000021497047FFFDFBF9A6
:1054D000F7F5F4F2F0EEEDEBE9E8E6E4E3E1E0DE27
:1054E000DDDBDAD8D7D5D4D3D1D0CFCDCCCBCAC899
:1054F000C7C6C5C4C2C1C0BFBEBDBCBBBAB9B8B7C0
:10550000B6B5B4B3B2B1B0AFAEADACABAAA9A8A8B2
:10551000A7A6A5A4A3A3A2A1A09F9F9E9D9C9C9B80
:105520009A9999989797969595949393929191902B
:105530008F8F8E8E8D8C8C8B8B8A898988888787BC
:105540008685858484838382828181800000FF0731
:105550000000F87F4FEA41034FEA5353A3F58063FD
:10556000D3F11E03C8BFD3F1210C0CDD4FF0004274
:1055700042EAC12242EA505232FA03FC8CEAE17C50
:10558000ACEBE1707047102BC4BF0020704703F5EF
:10559000787CBCF1FF3F04D06FF0004282EA21002A
:1055A000704770B500F0DAF8499224800020704707
:1055B000F2E710F0004248BF4042B0FA80F310FA20
:1055C00003F10AD0C3F11D0303F580634FEA415094
:1055D00002EB035202EBD12170474FF000007047FD
:1055E000B0FA80F310FA03F10AD0C3F11D0303F5FA
:1055F00080634FEA41504FEA035202EBD1217047DA
:105600004FF0000070470000DFF848C170B51CEA99
:10561000111E1EBF1CEA13159EEA0C0F95EA0C0F13
:1056200000F06F8081EA030423EA4C134EEAD47E33
:1056300021EA4C1141F4801143F48013AE44A1FBE4
:10564000024CA0FB0365AEF17F7E361955EB0C05CD
:10565000A1FB034C4CF10003A0FB021C16EB0C0653
:10566000654153F10003094218BF46F0010613F4E7
:10567000007F0BD14FEA03314FEA0530340341EA92
:10568000155140EA16506FF003020AE04FEAC321B9
:105690004FEAC520F40241EA555140EA56506FF0F6
:1056A000020202EB2E4201EB025585EACE710AD0CE
:1056B0005FEA440C18BF24F0004450F1000041F1AF
:1056C000000120EAD47040F2FE7C624500D270BD39
:1056D000A84214BF4FF080444FF04044002E08BF52
:1056E0000024BEF1806FA8BFA1F1C041BDE87040A9
:1056F00080F282804FF0000001F1C04101F00041D2
:1057000070479EEA0C0F0CEA131518BF95EA0C0FB0
:1057100006D04FF0000081EA030E0EF0004170BD8C
:1057200000F01CF88900013E00F007B800F009B84D
:105730004FEA430C5FEA5C5C08D081EA030100F0A9
:105740005BB84FEA410C5FEA5C5CF6D14FF00000B9
:10575000014970470000FF070000F87F0EF1020EBC
:105760002EF0030E5EF8046B364205D4012A43EB9B
:10577000030515F5001F12D8012841EB010C1CF59B
:10578000001F0CD80ED14FEAD17C15F5001F0CEB91
:105790004C0C0CF1020C08BF4CEBD37C04E04FF036
:1057A000080C01E04FEAD37C0CEB4C0526FA05F619
:1057B00006F00706B6F1040C06D20EEB860CBDE827
:1057C00070404CF0010C6047DFE80CF0090B02025E
:1057D0004FF000414FF00000A1F5002170BD1946C7
:1057E0001046012851EB010418BFD4F5001484BF02
:1057F000002001F0004170BD0808A0F500114FEA3B
:105800003101704791EA030F10B581F000413FF577
:10581000A1AC83F0004300F0EFB800002DE9F041A7
:1058200001F5801CBCF5001FC0F2C3804FEA115C7B
:1058300021EA0C510CF1FD0C41F480115FEA5C0C83
:105840000CF5C07C01D3400049413DA4890241EAE6
:10585000905187028E0E0A0CA45D04FB04F602FB35
:1058600006F6C6F14046A4FB0662F60D46EA42265D
:1058700006FB06F4A4FB01235242C3F1404338BFA8
:105880005B1EA6FB02420024E6FB0324D20B42EA85
:105890004446A6FB0623A1FB02E2A3FB07E4A418EF
:1058A0004FF0000252F10002E3FB01426442C2F1F8
:1058B000404E38BFAEF1010EA6FB04234FF00002AC
:1058C000E6FB0E32A2FB03464FF00004B61954F17A
:1058D0000004E2FB0264A1FB06E6A4FB07E816EB6A
:1058E00008064FF0000858F10008E4FB0168764212
:1058F000C8F1405838BFA8F10108A2FB06E4A3FB99
:1059000008E52D194FF0000454F10004E2FB08549F
:10591000A1FB05E6A7FB04E818EB06084FF000061C
:1059200056F10006E1FB048618F1200556F1000649
:10593000A809A8F11B08B10908F03F08B8F10A0F3F
:1059400040EA86601CD901EB0C51BDE8F08100BF34
:10595000FCF5EEE8E2DDD8D3CFCBC7C3C0BDB9B606
:10596000B4B1AEACA9A7A5A3A19F9D9B9A9896950B
:105970009392908F8D8C8B89888786858483828192
:10598000A0FB006800FB01F208EB4208B8EB872897
:1059900007D5341858EB0104D5D5401C51F100014E
:1059A000D1E7341A78EB0104CDD4401E71F1000127
:1059B000C9E75FEA4C0C5FEA9C5C0DD105D34FF060
:1059C000000001F00041BDE8F081BDE8F04170B594
:1059D000FFF7C4FE6DDBFFBEBDE8F0414FF00000F5
:1059E000004970470000F87F10B591EA030F48BFE7
:1059F00083F000433FF5AEAB841A71EB030C07D282
:105A000012198CF0004C43EB0C03001B61EB0C01F2
:105A1000DFF8A4E14FEA1154A4EB135C1EEA430F34
:105A200018BF9EEA445F00F0B08023EA6E03524242
:105A300021EA0451C3EB6E0338BF5B1EDCF1200E7C
:105A400025D322FA0CFE10EB0E0043FA0CFE41EBBC
:105A50000E01CCF1200E03FA0EFE10EB0E0051F1F8
:105A60000001CCF1200E29D412FA0EF201EB045100
:105A7000BDE8104058BF7047401C1CBFB2F1004F3A
:105A8000704700280CBF491C20F00100704712EB42
:105A9000020E43EB030218BF4FF0010E4EEA420222
:105AA000ACF1200CDCF11E0E54D943FA0CFE10EBC5
:105AB0000E0051F1FF31CCF11E0ED5D50EF1010EC5
:105AC00012FA0EFE404141EB010101EB445C5FEA3A
:105AD0005C5C10D910EBDE7001EB045138BFBEF1F5
