:020000040800F2
:10000000C80B0020E5050008A5010008A7010008AD
:10001000AB010008AF010008B301000800000000B8
:10002000000000000000000000000000B701000810
:10003000B901000800000000BB010008BD01000874
:10004000FF050008FF050008FF050008FF05000880
:10005000FF050008FF050008FF050008FF05000870
:10006000FF050008FF050008FF050008FF05000860
:10007000FF050008FF050008FF050008FF05000850
:10008000FF050008FF050008FF050008FF05000840
:10009000FF050008FF050008FF050008FF05000830
:1000A000FF050008FF050008FF050008FF05000820
:1000B000FF050008FF050008FF050008FF05000810
:1000C000FF050008FF050008FF050008FF05000800
:1000D000FF050008DD170008FF050008672000087D
:1000E000FF050008FF050008FF05000800F002F802
:1000F00000F042F80AA090E8000C82448344AAF180
:100100000107DA4501D100F037F8AFF2090EBAE87D
:100110000F0013F0010F18BFFB1A43F0010318473B
:10012000B88D0000D88D0000103A24BF78C878C17F
:10013000FAD8520724BF30C830C144BF04680C60ED
:10014000704700000023002400250026103A28BF35
:1001500078C1FBD8520728BF30C148BF0B60704739
:10016000642905F0EB82782905F02483002070478C
:100170001FB51FBD10B510BD05F078FD1146FFF786
:10018000F7FF00F00DF905F096FD03B4FFF7F2FF5D
:1001900003BC01F0C9FA000030BF72B662B680F34A
:1001A00008887047704700BFFEE700BFFEE700BF4A
:1001B000FEE700BFFEE770477047704770470000DA
:1001C0000CB50020019000906C48006840F480302D
:1001D0006A49086000BF6948006800F40030009078
:1001E0000198401C0190009818B90198B0F5A06FD3
:1001F000F1D16248006800F4003010B10120009095
:1002000001E0002000900098012843D15C4800687C
:1002100040F010005A4908600846006820F00300CA
:1002200008600846006840F00200086053484068D3
:10023000524948600846406848600846406840F4B3
:10024000806048600846406820F47C10486008469A
:10025000406840F4E81048600846006840F080704C
:10026000086000BF4548006800F000700028F9D021
:100270004248406820F00300404948600846406812
:1002800040F00200486000BF3C48406800F00C00AD
:100290000828F9D10CBD10B5FFF792FF10BD10B5BD
:1002A0003648006840F0010034490860084640685C
:1002B00034490840314948600846006832490840DE
:1002C0002E4908600846006820F48020086008462F
:1002D000406820F4FE0048604FF41F008860FFF77C
:1002E000DAFF4FF000602949086010BD10B5002109
:1002F00000200022214B5B6803F00C0121B104298E
:1003000006D0082928D107E0214B224C236027E0A2
:100310001F4B204C236023E0184B5B6803F47010E4
:10032000164B5B6803F48032022303EB904022B942
:10033000194B4343174C23600DE0104B5B6803F4EB
:10034000003323B1144B4343124C236003E0104BA2
:100350004343104C236003E00D4B0E4C236000BF61
:1003600000BF064B5B68C3F303130C4CE15C094B05
:100370001B68CB40074C236010BD000000100240FA
:10038000002002400000FFF8FFFFF6FE08ED00E04D
:1003900000127A000000002000093D000400002047
:1003A00008B500244FF4E13001F0CDF900F0F4FF7E
:1003B000012001F04BF901F087FA01F055FA6420B1
:1003C00001F027F801F04CFD642001F022F801F063
:1003D000DEFE09E072A20021012001F012FD01F011
:1003E000C0FBC82001F015F804F032F90028F1D163
:1003F0006FA20021012001F004FDD0E06F4A704996
:10040000704804F072F900287DD16FA20C21012000
:1004100001F0F7FC6EA21821012001F0F2FC6EA29F
:100420002421012001F0EDFC6D496648006806F0CA
:1004300053FF054606F0B4FE0446002C09DA0120FD
:100440000C232D2219460090282001F010FC644254
:1004500007E001200C23202219460090282001F0FB
:1004600006FC0A2094FBF0F50C2003232A460146E3
:100470000090342001F07BFC01200C232E22194631
:100480000090462001F0F3FB0A2094FBF0F100FB02
:1004900011450C2001232A46014600904C2001F012
:1004A00066FC4F494648006806F016FF054606F010
:1004B00077FE0446002C09DA01200C232D22182196
:1004C0000090282001F0D3FB644207E001200C23B8
:1004D000202218210090282001F0C9FB0A2094FB5B
:1004E000F0F50C2003232A4618210090342001F057
:1004F0003EFC01200C232E2218210090462001F002
:10050000B6FB0A2000E048E094FBF0F100FB114547
:100510000C2001232A46182100904C2001F027FCD2
:100520002F492648006806F0D7FE054606F038FE3B
:100530000446002C09DA01200C232D2224210090EE
:10054000282001F094FB644207E001200C232022C4
:1005500024210090282001F08AFB0A2094FBF0F56A
:100560000C2003232A4624210090342001F0FFFBB5
:1005700001200C232E2224210090462001F077FB3D
:100580000A2094FBF0F100FB11450C2001232A46C0
:10059000242100904C2001F0EAFB01F0E2FA2DE763
:1005A0004D505536303530204572726F7200000064
:1005B0004D505536303530204F4B00001C00002088
:1005C000180000201400002070697463683A00006D
:1005D000726F6C6C3A0000007961773A000000009D
:1005E000000020410948804709480047FEE7FEE730
:1005F000FEE7FEE7FEE7FEE7FEE7FEE7FEE7FEE7D3
:1006000004480549054A064B704700009F02000850
:10061000ED000008C8050020C80B0020C807002016
:10062000C807002031490143314A1160704770B555
:10063000002100230F22C47804B32D4C246804F455
:10064000E064C4F5E064210AC1F10403CA404478BF
:1006500004FA03F18478144021430901254C0678FB
:10066000A155047804F01F050124AC4005786D11F4
:10067000AD0005F1E025C5F8004109E0047804F07B
:100680001F050124AC401C4D0678761145F8264024
:1006900070BD1A4A0A400243154B1B1F1A6070476F
:1006A00039B1134A121D12680243114B1B1D1A6007
:1006B00006E00F4A121D126882430D4B1B1D1A6083
:1006C0007047042808D14FF0E021096941F0040186
:1006D0004FF0E022116107E04FF0E021096921F0BD
:1006E00004014FF0E0221161704700000000FA059C
:1006F0000CED00E000E400E080E100E080FFFF1F7F
:1007000010B5012000F014FC002000F011FC10BD19
:100710002A49086070472949091F0860704727491E
:1007200084310860704701460020254A10884FF642
:100730007F4210400843224A108070470146002043
:100740001F4A10884FF68072104008431C4A1080E0
:10075000704708B500220092194A2C3A0092009A7C
:1007600002440092009A116008BD08B501460020BD
:10077000009013482C38009000980844009000988E
:10078000008808BD0D489C300068C0B270470C4816
:100790000830008840F0010009490831088070479E
:1007A0000648A0300068C0B270470548083000888D
:1007B00040F00200024908310880704704860D426B
:1007C0002C6C004010B50446CC48844208D101216D
:1007D000042000F093FB0021042000F08FFB46E092
:1007E000C748844208D10121082000F087FB00217E
:1007F000082000F083FB3AE0C248844208D101217E
:10080000102000F07BFB0021102000F077FB2EE091
:10081000BD48844208D10121202000F06FFB002157
:10082000202000F06BFB22E0B848844208D101216F
:10083000402000F063FB0021402000F05FFB16E049
:10084000B348844208D10121802000F057FB0021E9
:10085000802000F053FB0AE0AE48844207D101211A
:10086000801500F04BFB0021A01500F047FB10BDE8
:1008700010B50121084600F041FB0021012000F0E5
:100880003DFB10BD2DE9F041024600250026002069
:1008900000230024002791F803C00CF00F0591F805
:1008A00003C00CF0100CBCF1000F03D091F802C093
:1008B0004CEA050591F800C0BCF1000F31D0146876
:1008C00000202BE04FF0010C0CFA00F3B1F800C04F
:1008D0000CEA03069E4220D183004FF00F0C0CFA65
:1008E00003F7BC4305FA03FC4CEA040491F803C087
:1008F000BCF1280F06D14FF0010C0CFA00FCC2F835
:1009000014C00AE091F803C0BCF1480F05D14FF0C4
:10091000010C0CFA00FCC2F810C0401C0828D1D30E
:100920001460B1F800C0BCF1FF0F34DD5468002042
:100930002EE000F1080C4FF0010808FA0CF3B1F8B2
:1009400000C00CEA03069E4221D183004FF00F0C39
:100950000CFA03F7BC4305FA03FC4CEA040491F8D3
:1009600003C0BCF1280F05D100F1080C08FA0CF8FF
:10097000C2F8148091F803C0BCF1480F07D100F110
:10098000080C4FF0010808FA0CF8C2F81080401C5F
:100990000828CED35460BDE8F0814FF6FF71018086
:1009A000022181700421C1707047024600209368C3
:1009B0000B400BB1012000E0002070470146886821
:1009C00080B2704702460020D3680B400BB1012073
:1009D00000E0002070470146C86880B2704701619E
:1009E0007047416170470AB1016100E041617047A1
:1009F000C16070474FF480320A4382618161826135
:100A000082698269704702460020434B18684FF69E
:100A10008073184040EA021008433F4B186070474B
:100A20003E49C8617047F0B50A4600230024002102
:100A3000002500F00046B6F1004F02D1364EF169B4
:100A400001E0354E7168C0F3034583B200F44016EF
:100A5000B6F5401F08D121F070612F4E766826F060
:100A600070662D4F7E6012E000F48016B6F5801F90
:100A700006D1032606FA05F4A14341F0706106E0B1
:100A8000460D360103FA06F6B14341F0706122B11A
:100A9000460D360103FA06F6314300F00046B6F182
:100AA000004F02D11C4EF16101E01B4E7160F0BDA0
:100AB00030B500228B071C0F0F2303FA04F2164BEC
:100AC00008338C1053F824309343134C08348D10A2
:100AD00044F8253023468C1053F824308C07240F1B
:100AE00000FA04F423430C4C08348D1044F82530EC
:100AF00030BD0A49DC310860704700000008014041
:100B0000000C014000100140001401400018014099
:100B1000001C014000200140000001400000204274
:100B200010B50121080700F0F6F900214FF08050C0
:100B300000F0F1F910BD2A490862704728490861A0
:100B4000704701460020274A106820F0E000084363
:100B5000106070472249A0310860704710B5024606
:100B60000020204B186820F00300104318601E4B33
:100B70001B6843F004031C4C2360012901D130BFE2
:100B800000E020BF184B1B6823F00403164C2360C1
:100B900010BD1448006840F004001249086008467F
:100BA000006840F0020008600F48006840F0040050
:100BB0000D49086000BF00BF30BF704701460020EC
:100BC000084A52680A400AB1012000E0002070473C
:100BD0000449096841EA8001024A11607047000037
:100BE00000000E420070004010ED00E0DF48006899
:100BF00040F00100DD49086008464068DC490840D3
:100C0000DA49486008460068DA490840D749086070
:100C10000846006820F4802008600846406820F4F8
:100C2000FE0048604FF41F0088607047CF49096894
:100C300021F48031CD4A11601146096821F48021E8
:100C40001160B0F5803F03D0B0F5802F0ED106E0E3
:100C5000C649096841F48031C44A116007E0C349BC
:100C6000096841F4A021C14A116000E000BF00BF43
:100C7000704710B501460022002300204A11012AC6
:100C800002D1BA4C236806E0022A02D1B74C236A8B
:100C900001E0B64C636A01F01F02012494401C403D
:100CA0000CB1012000E0002010BD38B500200090FC
:100CB0000024002500BF3120FFF7DBFF0546009828
:100CC000401C00900098B0F5A06F01D0002DF2D02C
:100CD0003120FFF7CEFF08B1012400E000242046B8
:100CE00038BD01460020A14A106820F0F80040EA13
:100CF000C10010607047A04908607047024600209C
:100D00009A4B586820F47C1042EA01031843974B31
:100D10005860704798490866704701460020934A1A
:100D2000506820F003000843506070478F484068C7
:100D300000F00C007047014600208C4A506820F0FB
:100D4000F00008435060704701460020874A506811
:100D500020F4E06008435060704701460020834A59
:100D6000506820F4605040EAC1005060704729B1DB
:100D70007E4A527A02437D4B5A7204E07B4A527A91
:100D800082437A4B5A7270477B49D831086070476A
:100D900001460020754A506820F4404008435060E6
:100DA00070470021714A20321170704A82F8201079
:100DB000012802D004280AD104E001216B4A203224
:100DC000117005E00521694A2032117000E000BF72
:100DD00000BF70476949086070476449096A014368
:100DE000624A11627047654944390860704730B5FE
:100DF00000210022002400235C4D6D6805F00C01E9
:100E000021B1042905D0082923D105E05C4D0560F6
:100E100022E05B4D05601FE0544D6D6805F47012D3
:100E2000524D6D6805F48034022505EB92421CB9E1
:100E3000544D554305600BE04C4D6D6805F400358D
:100E40001DB1504D5543056002E04D4D55430560C1
:100E500002E04B4D056000BF00BF444D6D6805F0DA
:100E6000F0010909484D6B5C0568DD4045603F4D68
:100E70006D6805F4E061090A434D6B5C4568DD402F
:100E800085603A4D6D6805F46051C90A3E4D6B5C52
:100E90004568DD40C560354D6D6805F44041890BFE
:100EA0003A4D6B5CC568B5FBF3F5056130BD29B102
:100EB0002E4A526902432D4B5A6104E02B4A526973
:100EC00082432A4B5A61704729B1284A92690243EA
:100ED000264B9A6104E0254A92698243234B9A612A
:100EE000704729B1214AD2690243204BDA6104E0FC
:100EF0001E4AD26982431D4BDA61704729B11B4AF1
:100F0000D2680243194BDA6004E0184AD26882437F
:100F1000164BDA60704729B1144A12690243134B29
:100F20001A6104E0114A12698243104B1A6170473A
:100F300012494039086070470F49C86470470B492F
:100F4000C87170470948406A40F08070074948629C
:100F5000704701460020054A92680A400AB1012004
:100F600000E000207047014988727047001002407D
:100F70000000FFF8FFFFF6FE0000424280044242FC
:100F800000127A0000093D002000002030000020FF
:100F900010B50446FB48844209D101218803FFF7BC
:100FA000ADFF00214FF48040FFF7A8FF32E0F64884
:100FB000844209D101214804FFF7ADFF00214FF41D
:100FC0000030FFF7A8FF25E0F048844209D1012155
:100FD0008804FFF7A0FF00214FF48020FFF79BFF5C
:100FE00018E0EB48844209D10121C804FFF793FFC0
:100FF00000214FF40020FFF78EFF0BE0E54884420C
:1010000008D101210805FFF786FF00214FF4801069
:10101000FFF781FF10BD2DE9F04786B005460E466B
:101020000024A24600BFA1460027B08900B100BF3E
:101030002F462C8A4CF6FF700440F08804432C8223
:10104000AC894EF6F3100440B088318908437189A9
:1010500008430443AC81AC8A4FF6FF400440B0899A
:101060000443AC8201A8FFF7C2FEC648874202D102
:10107000DDF810A001E0DDF80CA0A88900F4004024
:1010800040B10AEBCA0000EB0A1031684900B0FB1E
:10109000F1F807E00AEBCA0000EB0A10316889009A
:1010A000B0FBF1F86420B8FBF0F0040120096421E2
:1010B00001FB1089A88900F4004040B1322000EB08
:1010C000C900B0FBF1F000F00700044308E0322053
:1010D00000EB09106421B0FBF1F000F00F000443B5
:1010E0002C8106B0BDE8F0874FF416510160002155
:1010F0008180C18001810C21418100218181704763
:1011000010B502460020108A4FF2FF0318400B88EA
:101110004C8823438C882343CC8823431843108274
:1011200010BD0021018041808180C180704721B1C4
:10113000828942F40052828104E082894DF6FF7375
:101140001A4082817047F0B503460024002600252E
:10115000002040F66A17B94200D100BF1846C1F31B
:10116000421401F01F06012707FA06F5012C01D1F0
:101170000C3004E0022C01D1103000E014301AB120
:1011800007682F43076002E00768AF430760F0BDC0
:101190001AB1838A0B43838202E0838A8B43838262
:1011A0007047028A4FF6F0731A400282028A0A439D
:1011B0000282704782894FF2FF731A4082818289CE
:1011C0000A438281704721B1828942F00202828102
:1011D00004E082894FF6FD731A4082817047028ACB
:1011E0004FF6DF731A400282028A0A430282704776
:1011F00021B1028A42F48042028204E0028A4BF664
:10120000FF731A4002827047C1F308028280704760
:1012100001468888C0F308007047818941F00101C8
:1012200081817047028BD2B20283028B42EA012293
:1012300002837047028B02F47F420283028B0A43CF
:101240000283704721B1828A42F02002828204E048
:10125000828A4FF6DF731A408282704721B1828AF8
:1012600042F01002828204E0828A4FF6EF731A4045
:101270008282704721B1828A42F00802828204E0B1
:10128000828A4FF6F7731A408282704721B18289B1
:1012900042F40042828103E08289C2F30E0282811D
:1012A000704721B1828A42F40062828204E0828A1D
:1012B0004FF2FF731A4082827047828A4FF6FB73A7
:1012C0001A408282828A0A438282704721B1828ACE
:1012D00042F00202828204E0828A4FF6FD731A40D5
:1012E0008282704702460020B1F5007F00D100BF26
:1012F00013880B400BB1012000E00020704701F47F
:101300000072B2F5007F00D100BFCA43028070476F
:1013100070B50246002400230025002040F66A161E
:10132000B14200D100BFC1F3421501F01F030126F5
:1013300006FA03F3012D02D19689334006E0022D0F
:1013400002D1168A334001E0968A33400C120126FE
:1013500006FA04F41688344013B10CB1012000E001
:10136000002070BD10B50022002340F66A14A1428F
:1013700000D100BF0A1201249440A3B2DC430480D0
:1013800010BD00000038014000440040004800400B
:10139000004C00400050004010B56FF00400FFF713
:1013A00090F92E4800682E49B0FBF1F02D490870E5
:1013B0000846007800EB4001C1EBC0104FF6FF710A
:1013C00001EAC0002849088010BD0146254A12786C
:1013D0004A434FF0E0235A6100229A611A4612698B
:1013E00042F001021A6100BF4FF0E022106900F0E4
:1013F00001021AB100F48032002AF5D04FF0E02249
:10140000126922F001024FF0E0231A6100229A6172
:1014100070470146144A12884A434FF0E0235A614C
:1014200000229A611A46126942F001021A6100BF55
:101430004FF0E022106900F001021AB100F480328E
:10144000002AF5D04FF0E022126922F001024FF09D
:10145000E0231A6100229A6170470000000000201A
:1014600000127A003400002036000020A34A0A400F
:101470000243A34B1A6070470146072323EA010287
:1014800012029F4B1B1D18684FF6FF0318409D4B1F
:10149000184310439A4B1B1D186070472DE9F0410B
:1014A0000746884614461D462846FFF7E5FFC5F166
:1014B000040007FA00F60F20284100EA080006435E
:1014C00006F00F06E21704EBD2625211920002F10D
:1014D000E022D2F800212146E31704EBD3635B112D
:1014E000A4EB431C012303FA0CF31A432046E31731
:1014F00004EBD3635B119B0003F1E023C3F80021ED
:101500008148005D40EA06107F490855BDE8F0813A
:1015100070B504460B46CE1701EB9676C6F38700EE
:10152000CE1701EB9676B610A1EB8606B606350E01
:10153000764B9B6943F00103744EB3614FEAB633B7
:1015400053F820300F26AE40B343714E46F820309A
:10155000334653F8203004FA05F61E436C4B43F82B
:1015600020606C4B1B6801268E403343694E33600C
:1015700002F0010343B1674B0C331B6801268E4018
:101580003343644E0C36336002F0020343B1614BC7
:1015900008331E6801238B401E435E4B08331E60D8
:1015A00070BD00B5002059490861C8601420486129
:1015B00000208861C8610846006840F001000860AA
:1015C0000846406854490840504948600846006849
:1015D000524908404D4908600846006820F48020C0
:1015E00008600846406820F4FE00486000208860DB
:1015F00000214FF00060FFF739FF00BD10B54048F3
:101600000830006840F004003D49083108603F4858
:10161000C06940F080503D49C8614148406840F48D
:1016200080703F4948600846006840F00400086048
:101630000846006840F002000860FEF7ADFD10BDEE
:101640003048001D2E49091D0860704701464906B3
:101650002E4A926942F001022C4B9A612C4A083AB8
:10166000526822F0E0622A4B083B5A601A465268E0
:101670000A435A60704730B504460025FFF791FFD2
:101680002248006840F480302049086000BF1F48AD
:101690000068400C0028FAD04FF480601B49486075
:1016A000A01EC4B20846406840EA8440486008462C
:1016B000406840F4803048601A48006840F03200CA
:1016C000184908601148006840F080700F490860B0
:1016D00000BF0E480068400E0028FAD00B48406852
:1016E00040F002000949486005E008484068C0F33E
:1016F000870505F00305022DF7D130BD80FFFF1FE0
:1017000008ED00E00000FA0500E400E000100240EF
:1017100008000140000401400000FFF8FFFFF6FE52
:101720000070004000200240014600BF704700BF2B
:10173000494A128802F04002002AF9D0C2B2464B50
:101740001B1D1A80704710B586B00446012144F273
:101750000400FFF7B9FB4FF40070ADF8140003204C
:101760008DF8160018208DF8170005A93B48FFF7E3
:1017700089F84FF48060ADF8140004208DF817004C
:1017800005A93648FFF77EF825208DF800000120D6
:101790008DF801008DF802008DF803006846FEF711
:1017A00046FF01940020ADF80800ADF80A00ADF83E
:1017B0000C00ADF810000C20ADF80E0001A9264871
:1017C000FFF729FC012240F225512348FFF7BBFC1B
:1017D00001212148FFF7ABFC06B010BD10B540F267
:1017E00025511D48FFF794FD10B31B48FFF710FD6E
:1017F000C4B21B48008800F40040C8B918480088EB
:1018000000F4804060B10A2C03D000201449088005
:1018100020E01348008840F400401149088019E096
:101820000D2C06D10E48008840F480400C490880F9
:1018300010E00B480088C0F30D000A490C5408481A
:101840000088401C0649088008460088C72801DD3A
:101850000020088010BD0000003801400008014051
:101860003C0000208C00002008B501210420FFF777
:101870002BFB1020ADF800008DF8030003208DF83D
:10188000020069460C48FEF7FDFF08BD18B90021AB
:101890000A4A11600FE00A490968491C084A1160A8
:1018A000814208D105490968C943064AC2F8901126
:1018B0000021034A11607047000801409001214255
:1018C000400000200000214208B501210420FFF75C
:1018D000FBFA2020ADF8000048208DF8030069468F
:1018E0008048FEF7CFFF0120FFF725F90020FFF722
:1018F00058FA0020FEF70FFF0020FFF71CF908BD83
:1019000001467948006828B978480088401C774A21
:10191000108002E00020754A10807348006828B9E2
:101920007348007810B90120714A1070714800782E
:10193000B0B96F480078012807D16F480078401C83
:101940006D4A107001206B4A10706B4800780228B5
:1019500006D10020684A1070684A10800220704743
:1019600061480068012804D10020614A1070614A72
:1019700010706148007801281CD160480088401C24
:101980005E4A10801046008888420ADD5748008869
:10199000884206DA0020584A1070584A1080012008
:1019A000DDE752480088884204DD0020524A10706A
:1019B000524A10800020D2E751480078002831D0E8
:1019C0004948006870B14F48006858B14648001D4A
:1019D000006838B14B48001F006818B14948083802
:1019E0000068F8B90020464A10703F48006808B9FE
:1019F000012115E04348006808B9022110E0414880
:101A00000838006808B903210AE03748001D00685B
:101A100008B9042104E03B48001F006800B9052113
:101A2000C8B2704730480068012814D135480068B2
:101A3000012810D12C48001D006801280BD1314825
:101A4000001F0068012806D12E48083800680128C8
:101A500001D12B4A10700020E3E72B48008840B9E1
:101A60002148006828B929480088401C2749088077
:101A700002E000202549088024480088C82807DDA6
:101A8000012021490880002020490880012070475A
:101A90001D480088012802D100201B490880002031
:101AA000F5E710B51A48007888B120210D48FEF7F7
:101AB0007CFF60B90A20FFF7ACFC002014490870D5
:101AC00020210848FEF771FF48B9012010BD2021F0
:101AD0000448FEF76AFF012801D10D490870002073
:101AE000F4E7000000080140140121424A000020F0
:101AF000440000204500002046000020480000204F
:101B00004C0000203C012242500000204E000020EA
:101B10005200002010B50A461AB10123FE4C236082
:101B200002E00023FC4C2360002114E00023FB4C66
:101B3000236000F080031BB10123241F236003E016
:101B40000023F64C241F23600123F44C236043063A
:101B5000180E4B1CD9B20829E8DB0123EE4C236098
:101B600010BD30B500241CE004F1B001C8B2002162
:101B7000FFF7D0FF00210846FFF7CCFF002110201F
:101B8000FFF7C8FF002508E0E54901EBC501085D46
:101B90000121FFF7BFFF681CC5B2802DF4DB601C7C
:101BA000C4B2082CE0DB30BD00B500218D20FFF76A
:101BB000B1FF00211420FFF7ADFF0021AF20FFF798
:101BC000A9FF00BD00B500218D20FFF7A3FF002174
:101BD0001020FFF79FFF0021AE20FFF79BFF00BD05
:101BE00030B500240CE0002506E00020CC4901EBD4
:101BF000C5010855681CC5B2802DF6DB601CC4B257
:101C0000082CF0DBFFF7ADFF30BDF0B51446002621
:101C10007F2801DC3F2900DDF0BD0B46CF1701EB2B
:101C20005777FF10C7F10707FAB2CF1701EB5777C5
:101C3000FF10A1EBC707FDB2C5F107070123BB40A9
:101C4000DEB24CB1B64B03EBC0039B5C3343B44FE5
:101C500007EBC007BB5408E0B14B03EBC0039B5C30
:101C6000B343AF4F07EBC007BB5400BFD4E72DE928
:101C7000F84F80460E4617461C46B2462046E317EC
:101C800004EB5373DB1021464FEAE47C04EB5C7CED
:101C90004FEAEC0CA4EBCC0CBCF1000F02D04FF0DF
:101CA000010C01E04FF0000C6344224604EBD27CAF
:101CB0004FEA6C0C03FB0CF303F0FF0BA7F12000C1
:101CC000C7B2002544E00C2C07D107EB470095492B
:101CD00001EB8000405D009009E0102C05D1924896
:101CE00000EB0710405D009001E0BDE8F88F4FF079
:101CF000000927E0009800F0800028B131464046F6
:101D00000A9AFFF782FF09E00A9808B9012000E06B
:101D10000020024631464046FFF777FF0098400614
:101D2000000E0090701CC6B2A6EB0A00A04205D1BE
:101D3000564608F1010000F0FF0806E009F1010035
:101D400000F0FF09B9F1080FD4DB00BF681CC5B271
:101D50005D45B8DB00BFC8E710B50246012000E0D2
:101D600050430B00A1F10104E1B2F9D110BD2DE9FE
:101D7000FF4F81B0074691461E460E9D4FF0000A68
:101D8000002439E0301B401EC1B20A20FFF7E4FFF7
:101D9000B9FBF0F00A21B0FBF1F201FB1208BAF135
:101DA000000F16D1701EA04213DDB8F1000F0ED146
:101DB0000120AB4605EBDB71491001FB047100907B
:101DC000C8B22B4620220299FFF751FF12E04FF0D4
:101DD000010A0120AB4605EBDB71491001FB0471E0
:101DE0000090C8B208F13001CAB22B460299FFF741
:101DF0003EFF00BF601CC4B2B442C3DB05B0BDE807
:101E0000F08FF8B506460F4615460C2421E004EB8A
:101E1000D4714910C1F18001B14202DA00263819AB
:101E2000C7B2C4F14000B84204DA002006460746B3
:101E3000FFF7D6FE0120E3B200902A7839463046FB
:101E4000FFF715FF204604EBD07106EB6101CEB21F
:101E50006D1C28787E2802DC28782028D7DAF8BD87
:101E600008B501210820FFF72FF83820ADF8000051
:101E700010208DF8030002208DF8020069462B48DF
:101E8000FEF700FD01210420FFF71EF84FF400408B
:101E9000ADF8000002208DF8020010208DF803003C
:101EA00069462348FEF7EEFC0120FEF744FE0020C1
:101EB000FEF777FF0020FEF72EFC0020FEF73BFE2A
:101EC00000201649083908606420FFF7A2FA0120B3
:101ED0001849C1F88C010021AE20FFF71BFE00213C
:101EE000D520FFF717FE00215020FFF713FE002139
:101EF000A820FFF70FFE00213F20FFF70BFE002177
:101F0000D320FFF707FE00210846FFF703FE00215C
:101F10004020FFF7FFFD0FE0BC01214294812142E8
:101F200054010020AE760008227B0008000C01401E
:101F3000000801400080214200218D20FFF7EAFDCA
:101F400000211420FFF7E6FD00212020FFF7E2FD2D
:101F500000210220FFF7DEFD0021A120FFF7DAFDBE
:101F60000021C020FFF7D6FD0021DA20FFF7D2FDC7
:101F700000211220FFF7CEFD00218120FFF7CAFDCE
:101F80000021EF20FFF7C6FD0021D920FFF7C2FD99
:101F90000021F120FFF7BEFD0021DB20FFF7BAFD95
:101FA00000213020FFF7B6FD0021A420FFF7B2FD8D
:101FB0000021A620FFF7AEFD0021AF20FFF7AAFD0C
:101FC000FFF70EFE08BD000010B586B004460121E3
:101FD0000820FEF779FF01218804FEF782FF4FF405
:101FE0008060ADF8140003208DF8160018208DF8DD
:101FF000170005A91F48FEF745FC4FF40060ADF837
:10200000140004208DF8170005A91A48FEF73AFCC1
:1020100027208DF8000000208DF8010001208DF8A8
:1020200002008DF803006846FEF701FB01940020D2
:10203000ADF80800ADF80A00ADF80C00ADF81000DE
:102040000C20ADF80E0001A90B48FEF7E4FF0122B9
:1020500040F225510848FFF776F801210648FFF7BE
:1020600066F806B010BD10B540F225510248FFF7E2
:102070004FF910BD000C01400048004070B5054606
:102080000C4600F0EBF9D02000F09CFA00F027FAA3
:1020900018B100F003FA012070BD284600F092FA52
:1020A00000F01DFA204600F08DFA00F018FA18B181
:1020B00000F0F4F90120EFE700F0F0F90020EBE781
:1020C00070B504460025BC2C01DB012510E0622C14
:1020D00001DB02250CE02A2C01DB032508E0142C8F
:1020E00001DB042504E00A2C01DB052500E00625C0
:1020F00029461A20FFF7C2FF70BD70B50446B4F53B
:102100007A7F01DD4FF47A74042C00DA04244FF452
:102110007A7090FBF4F0401EC5B229461920FFF7F3
:10212000ADFF0546264604EBD671C1F34F00FFF71D
:10213000C7FF70BD70B5044600F090F9D02000F0E4
:1021400041FA00F0CCF9204600F03CFA00F0C7F963
:1021500000F084F9D12000F035FA00F0C0F9002039
:1021600000F05BFA054600F099F9284670BD10B5FD
:102170000446E006010E1C20FFF780FF10BD10B5DD
:102180000446E006010E1B20FFF778FF10BD38B5AE
:1021900001210846FEF798FE01210420FEF794FE77
:1021A0004FF40040ADF8000010208DF8030003202C
:1021B0008DF8020069469448FEF764FB01219348BC
:1021C000FEF731FC00F031F980216B20FFF756FF5C
:1021D0006420FFF71EF900216B20FFF74FFF03205B
:1021E000FFF7CDFF0020FFF7C2FF3220FFF785FF8A
:1021F00000213820FFF742FF00216A20FFF73EFF51
:1022000000212320FFF73AFF80213720FFF736FF18
:102210007520FFF78FFF0446682C0BD101216B203E
:10222000FFF72CFF00216C20FFF728FF3220FFF77B
:1022300064FF01E0012038BD0020FCE72DE9F041FA
:1022400006460F4614461D4600F008F9002141EAF3
:102250004601C8B200F0B6F900F041F920B100F033
:102260001DF90120BDE8F081384600F0ABF900F01F
:1022700036F900F0F3F8012101EB4601C8B200F095
:10228000A1F900F02CF90DE0012C04D1002000F0A0
:10229000C4F9287003E0012000F0BFF92870601E27
:1022A000C4B26D1C002CEFD100F0F8F80020D9E783
:1022B0002DE9F84F6B46022241216820FFF7BEFF4F
:1022C0009DF801009DF8001040EA01200FFA80FA05
:1022D000504604F0E3FA804600224D4B04F086F9A4
:1022E00006464C4A4C4B04F0D1F8044604F09CF8E6
:1022F00083464A49584604F0EFFF044604F050FF75
:1023000000B2BDE8F88F2DE9FC4104460D461646A3
:102310006B46062243216820FFF790FF0746BFB9AE
:102320009DF801009DF8001040EA012000B22080D5
:102330009DF803009DF8021040EA012000B22880B9
:102340009DF805009DF8041040EA012000B230809D
:102350003846BDE8FC812DE9FC4104460D46164691
:102360006B4606223B216820FFF768FF0746BFB98E
:102370009DF801009DF8001040EA012000B2208085
:102380009DF803009DF8021040EA012000B2288069
:102390009DF805009DF8041040EA012000B230804D
:1023A0003846BDE8FC812DE9F04105460E4617464A
:1023B000984600F053F8002141EA4501C8B200F008
:1023C00001F900F08CF820B100F068F80120BDE8B8
:1023D000F081304600F0F6F800F081F800240CE0BF
:1023E00018F8040000F0EEF800F079F818B100F0E9
:1023F00055F80120EBE7601CC4B2BC42F0DB00F0F2
:102400004DF80020E3E70000000801400002300022
:1024100000407540A4703D0AD74342400000C842C6
:1024200010B50220FEF7D1FF10BD08B5012108202C
:10243000FEF74AFD4FF44060ADF8000010208DF823
:10244000030003208DF8020069468D48FEF71AFA52
:102450004FF440618A48FEF7C2FA08BD10B58848BB
:10246000001D006820F470408549091D0860084679
:10247000006840F4405008600120824908608249A9
:10248000C1F8A801FFF7CCFF00207E490860FFF7E4
:10249000C7FF00207C49C1F8A80110BD10B57848DD
:1024A000001D006820F470407549091D0860084649
:1024B000006840F44050086000207249091F08601D
:1024C0007149C1F8AC01FFF7ABFF01206D49091F4D
:1024D00008606D49C1F8AC01FFF7A2FF10BD10B54F
:1024E00000246748001D006820F470406449091DFD
:1024F00008600846006840F4004008600120614917
:102500000860FFF78DFF01205F49C1F8A801FFF7C0
:1025100087FF07E0601CC4B2FA2C03DDFFF7BEFFA3
:10252000012010BD5748803800680028F2D1554975
:10253000091F086000BFF4E710B500205149091FCA
:1025400008604F48001D006820F470404C49091D88
:1025500008600846006840F44050086000204A497E
:10256000C1F8AC01FFF75CFF01204649091F086074
:10257000FFF756FF00204449C1F8A80110BD10B56F
:1025800000204049091F08603D48001D006820F4F4
:1025900070403B49091D08600846006840F44050FF
:1025A000086001203849C1F8AC01FFF739FF01206C
:1025B0003449091F0860FFF733FF00203249C1F892
:1025C000A80110BD70B504462D48001D006820F418
:1025D00070402B49091D08600846006840F44050CF
:1025E000086000202749091F0860002512E0E00963
:1025F000244908606006040E01202349C1F8A8019F
:10260000FFF70EFF00201F49091F0860FFF708FFB2
:10261000681CC5B2082DEADB70BD70B50546002404
:102620001748001D006820F470401549091D086016
:102630000846006840F400400860002615E00020CD
:102640001049091F0860FFF7EBFE01200E49C1F891
:10265000A8016006040E0B488038006808B1601CB1
:10266000C4B2FFF7DDFE701CC6B2082EE7DB15B959
:10267000FFF785FF01E0FFF75FFF204670BD000018
:10268000000C0140AC8121420080214238B5044653
:10269000F74890F82400C0B114B10220009001E086
:1026A00000200090F24A1268D17BF14A52681078FB
:1026B0006B460122FFF777FE10B14FF0FF3038BDB7
:1026C0009DF80010EA48417423E0E948807A10B987
:1026D0004FF0FF30F3E724B1E548407C08B100201B
:1026E000EDE714B10120009001E000200090E04AE5
:1026F0001268D17BDE4A526810786B460122FFF7E0
:1027000052FE10B14FF0FF30D9E79DF80010D848C5
:1027100041740020D3E738B500241FE0D448006896
:10272000C07AA04204D0D2480068407DA04200D1C7
:1027300012E0CF49496808786B4601222146FFF72D
:102740007DFD10B14FF0FF3038BD9DF800202146CF
:10275000C8A002F0BFFF00BF601CC4B2C4484068FC
:102760000079A042DADC0020EEE770B504460D46A1
:10277000BF480068C07AA04204D0BD480068407DD0
:10278000A04202D14FF0FF3070BDB94840680079D7
:10279000A04202DC4FF0FF30F6E7B54949680878FF
:1027A0002B4601222146FFF749FDEDE738B50446E7
:1027B000AF4890F82300A04201D1002038BD14B1E9
:1027C0003020009001E000200090A948807C20B1DA
:1027D0009DF8000040F002000090A54890F822000B
:1027E00020B19DF8000040F080000090A04A1268DF
:1027F000117D9F4A526810786B460122FFF7D3FD86
:1028000010B14FF0FF30D9E7994880F823400020FD
:10281000D4E738B5044604F0700010B101200090F0
:1028200005E014B10020009001E040200090904AA3
:102830001268917C8E4A526810786B460122FFF72D
:10284000B2FD20B100218A488172481E38BD9DF832
:10285000000020F04001864801730020009004F041
:10286000400020B99DF8000040F00400009004F002
:10287000200020B99DF8000040F00200009004F014
:10288000100020B99DF8000040F00100009004F015
:10289000080020B99DF8000040F038000090744A0C
:1028A0001268D17C724A526810786B460122FFF799
:1028B0007AFD20B100216E488172481EC6E724B11E
:1028C000082C02D00020FFF771FF694884720021B4
:1028D00001753220FEF79DFD0020B7E738B50446AC
:1028E0006348807CA04201D1002038BD002C46D036
:1028F0005F4A126811795E4A526810786B4601226D
:10290000FFF79CFC10B14FF0FF30EEE79DF80000A0
:1029100020F020000090564A12681179544A5268FB
:1029200010786B460122FFF73EFD10B14FF0FF30EB
:10293000DBE70320FEF76DFD022000904C4890F885
:10294000220020B19DF8000040F08000009048482F
:1029500090F8230020B19DF8000040F03000009076
:10296000434A1268117D424A526810786B46012230
:10297000FFF719FD002851D04FF0FF30B5E73C4A72
:10298000126811793A4A526810786B460122FFF7B3
:1029900055FC10B14FF0FF30A7E73548807A00F0C2
:1029A000010028B19DF8000040F02000009004E0F4
:1029B0009DF8000020F0200000902D4A1268117947
:1029C0002B4A526810786B460122FFF7ECFC10B1DD
:1029D0004FF0FF3089E70320FEF71BFD244890F8F5
:1029E000220010B18020009001E0002000902048DB
:1029F00090F8230020B19DF8000040F030000090D6
:102A00001B4A1268117D1A4A526810786B460122DF
:102A1000FFF7C9FC10B14FF0FF3066E7144884742B
:102A2000002062E708B51248807A10B94FF0FF30F5
:102A300008BD002000900E4A1268D17B0C4A5268F3
:102A400010786B460122FFF7AEFC10B14FF0FF305B
:102A5000EEE7074A12685179054A526810786B46CA
:102A60000122FFF7A0FC68B14FF0FF30E0E7000063
:102A700054000020252335783A20252335780D0A87
:102A800000000000F84A12681179F74A526810787D
:102A90006B460122FFF787FC10B14FF0FF30C7E70C
:102AA000F14890F82400002853D00C200090EE4A02
:102AB00012681179EC4A526810786B460122FFF7D0
:102AC00072FC10B14FF0FF30B2E73220FEF7A1FCEC
:102AD000C0200090E448807A00F0010020B19DF809
:102AE000000040F020000090DF4A12681179DE4AB1
:102AF000526810786B460122FFF755FC10B14FF079
:102B0000FF3095E7D848407C10B10220009001E0EA
:102B100000200090D44A1268D17BD34A52681078C2
:102B20006B460122FFF73FFC10B14FF0FF307FE70B
:102B300000200090CC4A12685179CB4A5268107834
:102B40006B460122FFF72FFC002855D04FF0FF30D5
:102B50006EE704200090C44A12681179C24A526894
:102B600010786B460122FFF71EFC10B14FF0FF30CA
:102B70005EE7BD48807C20B9BB48807A00F0010048
:102B800010B94020009001E060200090B64A126821
:102B90001179B54A526810786B460122FFF703FCA1
:102BA00010B14FF0FF3043E73220FEF732FCAE4861
:102BB000407C10B10120009001E000200090AA4A62
:102BC0001268D17BA84A526810786B460122FFF741
:102BD000EAFB10B14FF0FF302AE7A34A126851799F
:102BE000A14A52681078A04B10330122FFF7DBFB9B
:102BF00010B14FF0FF301BE7002019E770B5044615
:102C0000002624F00104984890F8240008B1002020
:102C100070BD9548807A10B94FF0FF30F8E79248C0
:102C2000057C807A2040904908740846007CA042C8
:102C300002D04FF0FF3600E0002614B98A48007D2C
:102C400018B10120FFF722FD02E00020FFF71EFD72
:102C50003CB1FFF7E7FE20B1834805744FF0FF3029
:102C6000D6E73046D4E738B504467F48807A10B9B5
:102C70004FF0FF3038BDBC2C02DB0120009015E086
:102C8000622C02DB0220009010E02A2C02DB0320E1
:102C900000900BE0142C02DB0420009006E00A2CCC
:102CA00002DB0520009001E0062000906E48C07A0B
:102CB0009DF80010884201D10020DBE76A4A1268C3
:102CC0009178694A526810786B460122FFF76BFBD6
:102CD00010B14FF0FF30CDE79DF800106248C1728F
:102CE0000020C7E738B50446282C02DD4FF0FF303E
:102CF00038BDDCB90020FFF759FD00208DF8000039
:102D000007208DF80100584A1268917C564A526893
:102D100010786B460222FFF746FB10B14FF0FF30F0
:102D2000E6E70021504801750020E1E70120FFF7A8
:102D30003DFD20208DF80000012C06D100208DF8EB
:102D400001000520FFF78FFF17E0052C06DC0120AE
:102D50008DF801000520FFF786FF0EE0142C06DC3D
:102D600002208DF801000A20FFF77DFF05E0032017
:102D70008DF801001420FFF776FF9DF80100072170
:102D800001EB8010C0B28DF80100374A1268917CC7
:102D9000354A526810786B460222FFF704FB10B1E7
:102DA0004FF0FF30A4E708212F4881720021017302
:102DB000012101750020FFF721FF002098E738B5B9
:102DC00004462948807A10B94FF0FF3038BD2648B4
:102DD00090F8240010B14FF0FF30F7E72248007D53
:102DE00050B134B1282C04DCE0B2FFF77BFF0020A7
:102DF000ECE70020FFF776FF042C01DA042404E05E
:102E0000B4F57A7F01DD4FF47A744FF47A7090FB59
:102E1000F4F0401EC0B20090134A12685178124A72
:102E2000526810786B460122FFF7BDFA10B14FF0DF
:102E3000FF30CBE79DF80000401C4FF47A7191FB06
:102E4000F0F081B20848C1810146C9894810FFF7F6
:102E50000AFF0020BAE738B504460348807A28B94B
:102E60004FF0FF3038BD000054000020022C06D087
:102E7000042C07D0082C08D0102C0CD108E000201E
:102E800000900BE00820009008E01020009005E082
:102E90001820009002E04FF0FF30E3E700BFF94850
:102EA000407A9DF80010B0EBE10F01D10020D9E786
:102EB000F44A1268D179F34A526810786B460122BD
:102EC000FFF771FA10B14FF0FF30CBE79DF800002B
:102ED000C110EC4841720020C4E738B50446E94807
:102EE000807A10B94FF0FF3038BDFA2C09D0B4F514
:102EF000FA7F09D0B4F57A7F09D0B4F5FA6F0CD116
:102F000008E0002000900BE00820009008E010206E
:102F1000009005E01820009002E04FF0FF30E3E75A
:102F200000BFD848007A9DF80010B0EBE10F01D146
:102F30000020D9E7D34A12689179D24A52681078B2
:102F40006B460122FFF72FFA10B14FF0FF30CBE7AD
:102F50009DF80000C010CB4908720020C4E71CB5E2
:102F600080208DF80000C74A1268917CC54A5268DB
:102F700010786B460122FFF716FA10B14FF0FF30C0
:102F80001CBD6420FEF745FA00208DF80000BD4A04
:102F90001268917CBB4A526810786B460122FFF799
:102FA00002FA10B14FF0FF30EAE7B64A1268917D9D
:102FB000B44A526810786B460622FFF73FF910B109
:102FC0004FF0FF30DCE79DF80500C007400F9DF88B
:102FD000031001F0010140EA41009DF8011001F0E9
:102FE000010140EA010494B1012C03D10121A5485B
:102FF000C17431E0022C03D10021A248C1742BE03E
:103000002146A1A002F066FB4FF0FF30B8E79D4AD1
:103010001268D1789B4A526810786B460122FFF7FC
:103020000DF910B14FF0FF30AAE79DF8000000F055
:103030000F042CB99E4802F04DFB4FF0FF309FE784
:10304000042C06D19BA002F045FB01218D48C174E0
:1030500002E000218B48C174FF218A488172FF2061
:1030600088490872FF2187484172C1724FF6FF718B
:10307000C181FF21017481740121017380F8221044
:10308000002180F823104175017516300160416000
:103090008160163880F8241080F82510C1844FF420
:1030A000FA60FFF71AFF10B14FF0FF3068E7022017
:1030B000FFF7D1FE10B14FF0FF3061E72A20FFF794
:1030C000D2FD10B14FF0FF305AE73220FFF777FE04
:1030D00010B14FF0FF3053E70020FFF78FFD10B124
:1030E0004FF0FF304CE70020FFF7F8FB10B14FF036
:1030F000FF3045E70020FFF78CFB002040E77047DA
:103100007CB504460D465F48807A00F0700010B927
:103110004FF0FF307CBD5B4A1268117B594A526800
:1031200010786B460622FFF789F810B14FF0FF3098
:10313000F0E79DF801009DF8001040EA012000B280
:1031400020809DF803009DF8021040EA012000B2A3
:1031500060809DF805009DF8041040EA012000B24F
:10316000A08015B12846FFF7CAFF0020D2E77CB542
:1031700004460D464348807A00F0080010B94FF02D
:10318000FF307CBD3F4A1268517B3E4A526810783E
:103190006B460622FFF752F810B14FF0FF30F0E710
:1031A0009DF801009DF8001040EA012000B2208047
:1031B0009DF803009DF8021040EA012000B26080F3
:1031C0009DF805009DF8041040EA012000B2A0809F
:1031D00015B12846FFF793FF0020D2E72DE9FE4FF7
:1031E00005460C462748807A18B94FF0FF30BDE8F5
:1031F000FE8F244A1268917B224A5268107802ABF3
:103200000222FFF71BF810B14FF0FF30EFE79DF8F7
:1032100009009DF8081040EA012006B214B12046CA
:10322000FFF76DFF17494968C88804F00DF8154984
:1032300001904968B1F9080003F0EEFF834630467B
:1032400003F0EAFF5946009004F044F982460199E0
:1032500003F0B0FE81461F4903F03EFE80464FF06A
:103260008F4104F039F8074603F09AFF28600020E8
:10327000BDE710B588B004461CB94FF0FF3008B068
:1032800010BD29E054000020556E737570706F7288
:1032900074656420736F6674776172652070726FF5
:1032A00064756374207265762025642E0A00000020
:1032B000888E000848616C662073656E7369746956
:1032C00076697479207061727420666F756E642EF1
:1032D0000A00000000000C42206830B9606820B984
:1032E000A06810B9002008B010BDFA4949680878F4
:1032F00006AB03221146FEF7A1FF10B14FF0FF30DD
:10330000F1E79DF81800082101EB201000F00F00F4
:10331000ADF800009DF8190001EB201000F00F003F
:10332000ADF802009DF81A0001EB201000F00F002C
:10333000ADF8040020684100BDF90000403091FB69
:10334000F0F000B2ADF8100060684100BDF9020075
:10335000403091FBF0F000B2ADF81200A0684100DF
:10336000BDF90400403091FBF0F000B2ADF814005C
:10337000D8494968087806AB06221146FEF75EFF79
:1033800010B14FF0FF30AEE79DF819009DF818100E
:1033900040EA012000B2ADF808009DF81B009DF83E
:1033A0001A1040EA012000B2ADF80A009DF81D0095
:1033B0009DF81C1040EA012000B2ADF80C00BDF8E9
:1033C0001000BDF80810084400B2ADF81000BDF8B8
:1033D0001200BDF80A10084400B2ADF81200BDF8A2
:1033E0001400BDF80C10084400B2ADF81400BDF88C
:1033F0001000000A8DF81800BDF81000C0B28DF85A
:103400001900BDF81200000A8DF81A00BDF812006C
:10341000C0B28DF81B00BDF81400000A8DF81C0026
:10342000BDF81400C0B28DF81D00AA49496808789B
:1034300006AB06221146FEF7B6FF10B14FF0FF3083
:1034400051E700204FE70146A248007A30B1012839
:1034500007D0022809D003280FD10AE0FA200880FB
:103460000EE04FF4FA7008800AE04FF47A7008809A
:1034700006E04FF4FA60088002E00020088000BFF8
:1034800000BF0020704701469248407A30B10128C1
:1034900007D0022808D003280CD108E002200870C9
:1034A0000BE00420087008E00820087005E01020F8
:1034B000087002E04FF0FF30704700BF8548C07CC5
:1034C00018B108784006000E08700020F4E70146A5
:1034D0008048C07A082817D2DFE800F01704070AEE
:1034E0000D101318BC20088013E06220088010E043
:1034F0002A2008800DE0142008800AE00A200880B5
:1035000007E00520088004E000BF00BF002008801D
:1035100000BF00BF0020704701466E4890F82400AD
:1035200010B14FF0FF3070476A48C0890880002012
:10353000F9E7014600200880401E704701464FF021
:10354000FF30704701466348007A30B1012807D048
:10355000022808D003280CD108E05F4808600BE07F
:103560005E48086008E05E48086005E05D48086065
:1035700002E04FF0FF30704700BF0020FBE701463C
:103580005448407A30B1012808D002280AD00328D4
:1035900010D10BE04FF4804008800EE041F69C70A3
:1035A00008800AE04FF48050088006E04FF4006085
:1035B000088002E04FF0FF30704700BF4548C07CF4
:1035C00010B10888401008800020F5E70146414806
:1035D000007C08700020704701463E48807A10B198
:1035E0000120087001E0002008700020704738B505
:1035F00004463848807A10B94FF0FF3038BD354A5C
:103600001268117C334A526810786B460222FEF72A
:1036100015FE10B14FF0FF30F0E79DF801009DF866
:10362000001040EA012000B220800020E6E72DE9EA
:10363000FE4F0746884692461D46DDF830B000260C
:103640000024244890F8240010B1601EBDE8FE8FCD
:10365000002028701F48807A10B94FF0FF30F5E73E
:103660001C48007C10B94FF0FF30EFE71948007C90
:1036700000F0400008B1B01CC6B21648007C00F053
:10368000200008B1B01CC6B21248007C00F0100047
:1036900008B1B01CC6B20F48007C00F0080008B1A9
:1036A000B01DC6B20B4A1268917A0A4A5268107865
:1036B0006B460222FEF7C2FD10B14FF0FF30C5E7A6
:1036C0009DF801009DF8001040EA0129B1450BDA90
:1036D0000020BBE7540000200000034300008342A9
:1036E0003333034233338341FC4840684088B9EBAD
:1036F000600F17DDF94A1268517CF84A5268107859
:103700006B460122FEF79AFD10B14FF0FF309DE7A6
:103710009DF8000000F0100020B1FFF783F96FF072
:10372000010093E75046FFF7EAFCEC4A1268D17AB1
:10373000EA4A526810786B463246FEF77FFD10B1B8
:103740004FF0FF3082E799FBF6F0401E8BF8000047
:1037500000202870B4422AD0E048007C00F0080025
:1037600028B3601C1DF800001DF8041040EA012079
:1037700000B2A8F80000E01C1DF80010A01C1DF805
:10378000000041EA002000B2A8F80200601D1DF808
:103790000010201D1DF8000041EA002000B2A8F82A
:1037A0000400287840F008002870A01D84B2B442BC
:1037B00013D0CA48007C00F0400070B1601C1DF8B6
:1037C00000001DF8041040EA012000B2388028787B
:1037D00040F040002870A01C84B2B44213D0BF480F
:1037E000007C00F0200070B1601C1DF800001DF886
:1037F000041040EA012000B27880287840F02000D0
:103800002870A01C84B2B44213D0B448007C00F0ED
:10381000100070B1601C1DF800001DF8041040EA93
:10382000012000B2B880287840F010002870A01C59
:1038300084B200200AE7F8B504460F461646A748AA
:1038400090F8240010B94FF0FF30F8BDA348807AFB
:1038500010B94FF0FF30F8E7A04A1268917A9F4AFA
:10386000526810786B460222FEF7E8FC10B14FF068
:10387000FF30EAE79DF801009DF8001040EA0125BD
:10388000A54203DA00203070401EDEE7934840680E
:103890004088B5EB600F17DD904A1268517C8F4A63
:1038A000526810786B460122FEF7C8FC10B14FF049
:1038B000FF30CAE79DF8000000F0100020B1FFF7CC
:1038C000B1F86FF00100C0E7E2B2844B1B68D97A0F
:1038D000824B5B6818783B46FEF7B0FC10B14FF0A6
:1038E000FF30B2E795FBF4F0401E30700020ACE7EB
:1038F00001467A4880F82210002070477CB50546C2
:1039000076494968087801AB04220D21FEF796FC40
:1039100008B107207CBD9DF80700C0F301109DF899
:10392000041001F0E00140EAE1008DF800009DF88C
:103930000700C0F381009DF8051001F0E00140EAA6
:10394000E1008DF801009DF8070000F003009DF8EC
:10395000061001F0E00140EAE1008DF802000024C9
:103960001CE01DF8040018B9002045F8240013E0FD
:103970005B4845F8240006E055F82400594903F057
:10398000ABFC45F824001DF80400401EC0B20DF841
:1039900004000028F0D100BF601CC4B2032CE0DB9F
:1039A0000020B7E72DE9FE4F06460F460025684682
:1039B000FFF7A4FF002442E056F8240057F8241033
:1039C000A0EB010ABAF1000F01DB514601E0CAF198
:1039D0000001084603F020FC83464FF08F4103F0BE
:1039E000E9FA80465DF82400002103F0A5FB16D01B
:1039F0005DF82410404603F0DDFA82464FF07E5118
:103A000003F068FD814629F0004A3748416A504674
:103A100003F02EFD12D20120A04005430EE03248F3
:103A2000C169404603F024FC05D32F48016A404693
:103A300003F01EFD02D20120A0400543641C032CAC
:103A4000BADB2846BDE8FE8F2DE9FC5F06460F462F
:103A5000002522494968087801AB03220D21FEF7B1
:103A6000EDFB10B10720BDE8FC9F9DF8040000F0BD
:103A70001F008DF804009DF8050000F01F008DF870
:103A800005009DF8060000F01F008DF806000024D8
:103A900062E056F8240057F82410A0EB010BBBF1AC
:103AA000000F01DB594601E0CBF10001084603F0AD
:103AB000B3FB4FF08F41009003F07CFA814601A8E0
:103AC000005DC0B30849086803F0BEFB8346594651
:103AD000064803F06FFA80460FE000005400002013
:103AE0007B14AE3E1D5A843F3C81000800B04C451B
:103AF000FE49404603F0F0FB804601A8005D401EF1
:103B0000C0B201A908550028F2D14146484603F049
:103B100051FA83464FF07E5103F0DCFC82462AF0D6
:103B2000004BF3488169584603F0A2FC13D20120F0
:103B3000A04005430FE0FFE7ED480169484603F068
:103B400097FB05D3EA484169484603F091FC02D24D
:103B50000120A0400543641C032C9ADB284682E721
:103B60002DE9F04F87B005460C46914601208DF8AF
:103B7000100000208DF81100DE4A1268917CDD4AA9
:103B80005268107804AB0222FEF70DFC20B14FF012
:103B9000FF3007B0BDE8F08FC820FDF73AFC0020E9
:103BA0008DF81000D34A1268D17BD24A526810783F
:103BB00004AB0122FEF7F7FB10B14FF0FF30E8E74E
:103BC000CC4A12685179CB4A5268107804AB012272
:103BD000FEF7E9FB10B14FF0FF30DAE7C54A126893
:103BE000917CC44A5268107804AB0122FEF7DBFBDB
:103BF00010B14FF0FF30CCE7BE4A1268D17DBD4A0C
:103C00005268107804AB0122FEF7CDFB10B14FF0E3
:103C1000FF30BEE7B74A12681179B64A5268107889
:103C200004AB0122FEF7BFFB10B14FF0FF30B0E74D
:103C30000C208DF81000AF4A12681179AD4A526815
:103C4000107804AB0122FEF7AEFB10B14FF0FF304D
:103C50009FE70F20FDF7DDFBA648806A407A8DF8CC
:103C60001000A44A12689178A24A5268107804ABF6
:103C70000122FEF798FB10B14FF0FF3089E79D4815
:103C8000806A007A8DF810009A4A12685178994A31
:103C90005268107804AB0122FEF785FB10B14FF09B
:103CA000FF3076E7B9F1000F07D09248806A807A3A
:103CB00040F0E0008DF8100004E08E48806A807AC1
:103CC0008DF810008B4A126891798A4A52681078F0
:103CD00004AB0122FEF767FB10B14FF0FF3058E74D
:103CE000B9F1000F07D08348806AC07A40F0E00045
:103CF0008DF8100003E07E48C07A8DF810007D4AF0
:103D00001268D1797B4A5268107804AB0122FEF721
:103D10004AFB10B14FF0FF303BE7B9F1000F02D082
:103D2000C820FDF776FB40208DF81000714A12681C
:103D30001179704A5268107804AB0122FEF733FB08
:103D400010B14FF0FF3024E778208DF81000694A59
:103D500012685179674A5268107804AB0122FEF765
:103D600022FB10B14FF0FF3013E761498889FDF75E
:103D700050FB00208DF810005E4A126851795D4AB0
:103D80005268107804AB0122FEF70DFB10B14FF022
:103D9000FF30FEE6574A1268917A564A5268107808
:103DA00004AB0222FEF74AFA10B14FF0FF30F0E602
:103DB0009DF811009DF8101040EA012B0C209BFB90
:103DC000F0F0C6B20020A86068602860A060606063
:103DD0002060824665E0474A1268D17A454A5268B7
:103DE000107804AB0C22FEF729FA10B14FF0FF3027
:103DF000CFE69DF811009DF8101040EA012000B2B6
:103E0000ADF808009DF813009DF8121040EA01205B
:103E100000B2ADF80A009DF815009DF8141040EAB4
:103E2000012000B2ADF80C00BDF90810206808446C
:103E30002060BDF90A10606808446060BDF90C108C
:103E4000A0680844A0609DF817009DF8161040EA8D
:103E5000012000B2ADF800009DF819009DF818107F
:103E600040EA012000B2ADF802009DF81B009DF869
:103E70001A1040EA012000B2ADF80400BDF90010AC
:103E8000286808442860BDF9021068680844686022
:103E9000BDF90410A8680844A8600AF1010000F008
:103EA000FF0AB24597DB1248D0F800C02868C11756
:103EB000090441EA1041070462460023384601F034
:103EC000E4FB32460023CDE9020101F0DEFB28606D
:103ED0000748D0F800C06868C117090441EA1041DA
:103EE000070462460023384606E0000054E3853F9D
:103EF0003C8100085400002001F0C7FB324600233B
:103F0000CDE9020101F0C1FB6860FE48D0F800C0B5
:103F1000A868C117090441EA10410704624600235A
:103F2000384601F0B2FB32460023CDE9020101F030
:103F3000ACFBA860F348D0F804C02168C81700049F
:103F400040EA11480F04624600233846414601F01A
:103F50009CFB32460023CDE9020101F096FB206074
:103F6000E848D0F804C06068C117090441EA10416C
:103F7000070462460023384601F087FB32460023DF
:103F8000CDE9020101F081FB6060DE48D0F804C099
:103F9000A068C117090441EA1041070462460023E2
:103FA000384601F072FB32460023CDE9020101F0F0
:103FB0006CFBA060A068002804DDA068A0F580303C
:103FC000A06003E0A06800F58030A0600020E0E57C
:103FD00038B50446CC4890F82400A04201D1002016
:103FE00038BD24B3C84890F8250010B94FF0FF3011
:103FF000F6E70020FEF74AFB0020FEF76FFCC249FF
:10400000C88CFEF7DCFE00200090BF4949680878A4
:104010006B4601222321FEF7C6F90121BA4880F838
:1040200024100120FEF732FBFEF7FCFC13E0002019
:10403000FEF72CFBB448007C0090B349496808782F
:104040006B4601222321FEF7AEF90021AE4880F82D
:104050002410FEF7E7FC0020C2E72DE9F04F8DB0F9
:1040600083460F4602200C90A74890F8240020B108
:104070000020FFF7ADFF012600E0002603A8FFF7B0
:10408000E2F905A8FFF7FFF901A8FFF720FA02A857
:10409000FFF742FA9C4890F80AA004A8FFF796FAA6
:1040A000002407E0002239465846FFF759FD00B9C1
:1040B00002E0641C022CF5DB00BF022C01D10025BC
:1040C00028E0002407E0012206A909A8FFF748FD1F
:1040D00000B902E0641C022CF5DB00BF022C01D108
:1040E000002517E006A93846FFF75CFC00F0FF0842
:1040F00009A95846FFF7A8FC00F0FF090025B9F10F
:10410000000F01D145F00105B8F1000F01D145F0D4
:10411000020500BFFF207C490872FF217A484172E6
:10412000C1724FF6FF71C181FF21817201740121BB
:104130000173BDF80C00FEF7D0FE9DF81400FEF7E9
:104140008AFEBDF80400FEF78EFDBDF80800FEF7FC
:1041500036FE5046FEF75DFB9DF81000FEF74EFD63
:1041600016B10120FFF734FF28460DB0BDE8F08FEF
:10417000F8B504460D46164616B94FF0FF30F8BDA7
:104180006148807A10B94FF0FF30F8E720128DF8BF
:104190000000E0B28DF801009DF8010028445A4962
:1041A00049684989884202DD4FF0FF30E7E7564A07
:1041B0001268117E544A526810786B460222FEF74C
:1041C000F2F810B14FF0FF30D9E7EAB24E4B1B685E
:1041D000597D4D4B5B6818783346FEF7E4F810B113
:1041E0004FF0FF30CBE70020C9E7F8B504460D4695
:1041F000164616B94FF0FF30F8BD4348807A10B923
:104200004FF0FF30F8E720128DF80000E0B28DF893
:1042100001009DF8010028443B49496849898842CA
:1042200002DD4FF0FF30E7E7374A1268117E364A69
:10423000526810786B460222FEF7B5F810B14FF0C5
:10424000FF30D9E7EAB2304B1B68597D2E4B5B68D3
:1042500018783346FDF7F2FF10B14FF0FF30CBE78F
:104260000020C9E72DE9F04385B005460E4690468B
:104270009946254890F8250020B14FF0FF3005B051
:10428000BDE8F08316B94FF0FF30F8E7002423E0D3
:10429000281B102801DD102000E0281B87B23219EE
:1042A00039462046FFF764FF10B14FF0FF30E6E7D4
:1042B00001AA39462046FFF798FF10B14FF0FF30B2
:1042C000DDE730193A4601A901F03CFB10B16FF06F
:1042D0000100D4E7E01984B2AC42D9DB4FEA2820D0
:1042E0008DF8000008F0FF008DF80100064A126802
:1042F000917E054A526810786B460222FEF753F809
:1043000038B103E03C810008540000204FF0FF303A
:10431000B5E70121FE4880F82510A0F8269000207E
:10432000ADE70146FA4890F8240008700020704775
:104330004FF0FF30704702464FF0FF3070470146A4
:104340004FF0FF307047F8B505460F461446002C75
:1043500070D0B5F5FF5F01DDFF2605E0202D01DA05
:10436000012601E0C5F3471607B90127282C02DD15
:104370004FF0FF30F8BDE648407D28BBE44890F898
:10438000240038B10020FFF723FE0121E04880F827
:10439000201003E00021DE4880F82010DC481630B1
:1043A000FFF751F8DA481830FFF76DF8D8481A309F
:1043B000FFF78DF8D6481C30FFF7AEF8D448817A65
:1043C00081771F30FFF702F90020FEF75FF9002028
:1043D000FEF788FC00208DF80000CD4A1268917825
:1043E000CB4A526810786B460122FDF7DCFF10B112
:1043F0004FF0FF30BEE740208DF80000C44A12683D
:10440000D17BC34A526810786B460122FDF7CBFF7F
:1044100000B165E08DF800608DF80170BC4A12684B
:10442000117ABB4A526810786B460222FDF7BBFF37
:1044300008B155E047E00520FCF7EBFFB448407AAF
:10444000072101EBC000C0B28DF80000B04A12682D
:10445000D179AF4A526810786B460122FDF7A3FF6D
:1044600000B13DE020208DF80000012C03D1002098
:104470008DF801000EE0052C03DC01208DF8010011
:1044800008E0142C03DC02208DF8010002E0032078
:104490008DF801009DF80100072101EB8010C0B2EA
:1044A0008DF801009A4A1268917C994A52681078F6
:1044B0006B460222FDF777FF00B111E0012194481D
:1044C0004175002056E7924A1632002103E0505C05
:1044D00000B105E0491C0C29F9D34FF0FF3049E742
:1044E000FF208B490872FF2189484172C1724FF643
:1044F000FF71C181FF2181720174012101730146A5
:10450000887FFEF786F98249C88AFEF7E6FC804973
:10451000087EFEF7A0FC7E49488BFEF7A4FB7C4991
:10452000888BFEF74CFC7A49C87FFEF767FB78481A
:1045300090F8200010B10120FFF74AFD00217448D7
:104540004175002016E770B588B002A905A8FFF7ED
:1045500084FD0446032C3ED101A8FEF7F3FF059825
:1045600002F05AFE0646019902F0B6FE054602F038
:1045700017FE0590069802F04FFE0646019902F0DC
:10458000ABFE054602F00CFE0690079802F044FED2
:104590000646019902F0A0FE054602F001FE0790D2
:1045A00005A800F054FA6846FEF7E9FFBDF80010D0
:1045B000029848430290BDF80010039848430390C6
:1045C000BDF8001004984843049002A800F0D2FA05
:1045D000002008B070BD0120FBE7014691F90020E2
:1045E000002A01DD00201EE091F90020002A01DAF6
:1045F000042018E091F90120002A01DD012012E0D9
:1046000091F90120002A01DA05200CE091F902203D
:10461000002A01DD022006E091F90220002A01DAD9
:10462000062000E00720704710B504462046FFF73B
:10463000D4FF0346E01CFFF7D0FF43EAC00083B27B
:10464000A01DFFF7CAFF43EA801083B2184610BDD1
:1046500070B50024FDF7E9FEFEF781FC002840D18B
:104660007820FEF7D6F8C4B20CB1012070BD7820D6
:10467000FEF7C4FAC4B20CB10220F7E76420FEF7DB
:104680009EFBC4B20CB10320F0E700F045F9C4B2C0
:104690000CB10420EAE71F48FFF7C6FF054600F00B
:1046A00045F9C4B20CB10520E0E740F2731000F008
:1046B0007EFDC4B20CB10620D8E7642000F0F0FA09
:1046C000C4B20CB10720D1E7FFF73DFF04460CB19F
:1046D0000820CBE70120FFF77BFCC4B21CB1092006
:1046E000C4E70A20C2E70020C0E72DE9F04F99B0E7
:1046F00004460D4616464FF07E574FF000084FF027
:1047000000094FF0000A12A813A918AB0EAA03E083
:104710005400002080000020CDE9001014A916A844
:1047200000F0A4FE18B1012019B0BDE8F08FBDF86B
:104730004C0000F4807000287ED00E9802F06CFDD2
:1047400083464FF09D4102F035FC07460F9802F07A
:1047500063FD83464FF09D4102F02CFC804610988B
:1047600002F05AFD83464FF09D4102F023FC814642
:10477000119802F051FD83464FF09D4102F01AFC62
:10478000824639464FF0804002F0A6FD494605902A
:1047900002F0A2FD414607904FF0404002F09CFD20
:1047A0005146059002F098FD0690079902F094FB9F
:1047B000834602F065FBCDE9080101F007FB4FF0ED
:1047C0006632544BCDE90A0102F080F8CDE90C01C4
:1047D00001F02AFE206049464FF0804002F07CFD47
:1047E0004946029002F078FD414604904FF0404067
:1047F00002F072FD4146029002F06EFD03900499B2
:1048000002F068FE83464FF07E5102F065FB059092
:1048100002F036FBCDE9080139464FF0804002F046
:104820005BFD4146039002F057FD494604904FF06E
:10483000804002F051FD00E068E05146039002F034
:104840004BFD8346049902F047FB059002F018FBEC
:10485000CDE90601DDE9082301F000FD4FF06632E5
:104860002C4BCDE90A0102F031F8CDE90C0101F041
:10487000DBFD28605146504602F02EFD494604906B
:10488000484602F029FD41460390404602F024FDCF
:1048900039460190384602F01FFD0090019902F060
:1048A0001BFB0290039902F015FE8346049902F067
:1048B00011FE059002F0E4FACDE9080151463846B0
:1048C00002F00AFD49460490404602F005FD0390BF
:1048D000049902F001FB4FF08041059002F0FCFCCE
:1048E000834602F0CDFACDE90601DDE9082301F0A7
:1048F000B5FC4FF06632074BCDE90A0101F0E6FF47
:10490000CDE90C0101F090FD306001E002200BE7E1
:10491000002009E766A64C4010B5C8234FF480621A
:10492000F74940F6F630FFF79DFC10BD10B586B094
:104930000446F4A000680390F3A000680290F3A07E
:1049400000680190F2A00068009004F0030003A941
:10495000085C8DF8140003A8C4F3C101405C8DF815
:10496000150003A8C4F38111405C8DF8160004F013
:10497000030002A9085C8DF8100002A8C4F3C1016D
:10498000405C8DF8110002A8C4F38111405C8DF8E1
:10499000120005AA032140F22640FFF7E9FB18B1F7
:1049A0004FF0FF3006B010BD04AA032140F22A40A8
:1049B000FFF7DEFB10B14FF0FF30F3E701980590F1
:1049C0000098049004F0040058B19DF8140040F0E1
:1049D00001008DF814009DF8100040F001008DF8E2
:1049E000100004F0200058B19DF8150040F00100BF
:1049F0008DF815009DF8110040F001008DF81100B0
:104A000004F4807058B19DF8160040F001008DF854
:104A100016009DF8120040F001008DF8120005AA62
:104A200003214FF48860FFF7A3FB10B14FF0FF3074
:104A3000B8E704AA032140F23140FFF799FB10B117
:104A40004FF0FF30AEE7B34804810020AAE71FB55E
:104A50000446B048007A00F0030054F820000190AA
:104A6000AC48007A00F0040010B101984042019077
:104A7000A848007AC0F3C10054F820000290A5486D
:104A8000007A00F0200010B1029840420290A14844
:104A9000007AC0F3811054F8200003909D480089EB
:104AA00000F4807010B10398404203909A49019835
:104AB00080FB0101800F40EA810001909649029835
:104AC00080FB0110820042EA9170029092490398A3
:104AD00080FB0110820042EA917003900198000E61
:104AE0008DF800000198000C8DF801000198000A73
:104AF0008DF802000198C0B28DF803006A460421C7
:104B00004FF47470FFF734FB18B14FF0FF3004B06E
:104B100010BD0298000E8DF800000298000C8DF870
:104B200001000298000A8DF802000298C0B28DF8C8
:104B300003006A4604214FF47570FFF719FB10B1AA
:104B40004FF0FF30E3E70398000E8DF80000039864
:104B5000000C8DF801000398000A8DF802000398FC
:104B6000C0B28DF803006A4604214FF47670FFF757
:104B7000FFFACCE770B588B0064601A8FEF7FFFC47
:104B8000BDF804000021C90341EA5045C40361484F
:104B9000007A00F0030056F8200005905D48007A86
:104BA00000F0040010B10598404205905948007A81
:104BB000C0F3C10056F8200006905648007A00F075
:104BC000200010B10698404206905248007AC0F387
:104BD000811056F8200007904E48008900F480703C
:104BE00010B10798404207900598C117A0FB042315
:104BF00001FB043100FB0510810041EA9270059031
:104C00000698C117A0FB042301FB043100FB05102B
:104C1000810041EA927006900798C117A0FB042317
:104C200001FB043100FB0510810041EA92700790FE
:104C30000598000E8DF808000598000C8DF8090005
:104C40000598000A8DF80A000598C0B28DF80B008F
:104C50000698000E8DF80C000698000C8DF80D00DB
:104C60000698000A8DF80E000698C0B28DF80F0065
:104C70000798000E8DF810000798000C8DF81100B1
:104C80000798000A8DF812000798C0B28DF813003B
:104C900002AA0C214FF42570FFF76AFA08B070BD24
:104CA00030B585B004461DA207CA02AB07C3C82CA5
:104CB00003DD4FF0FF3005B030BDC82090FBF4F0AD
:104CC000401E85B2280A8DF80000E8B28DF8010078
:104CD0006A46022140F21620FFF74AFA10B14FF05F
:104CE000FF30E8E702AA0C2140F6C120FFF740FAA6
:104CF00010B14FF0FF30DEE7064884810020DAE78C
:104D0000648100084CCD6C000CC92C00365676002E
:104D1000264666005405002009E3CA02FEF2ABC431
:104D2000AAF1DFDFBBAFDFDF0146FC4880890880E6
:104D3000002070472DE9FC4706460F4606F00700A5
:104D400010B1B7F5C86F03DD4FF0FF30BDE8FC8749
:104D5000384602F079FA8146F14902F02BF9804693
:104D60006846FEF790FB9DF80000022806D0042854
:104D700016D0082826D0102848D135E04FF08D41B4
:104D8000404602F0A9FA814602F026FA84B2E549CB
:104D9000404602F0A1FA814602F01EFA85B238E0E0
:104DA0004FF08C41404602F097FA814602F014FA27
:104DB00084B2DD49404602F08FFA814602F00CFAD7
:104DC00085B226E04FF08B41404602F085FA8146DD
:104DD00002F002FA84B2D549404602F07DFA8146DB
:104DE00002F0FAF985B214E04FF08A41404602F031
:104DF00073FA814602F0F0F984B2CD49404602F0E0
:104E00006BFA814602F0E8F985B202E04FF0FF301C
:104E10009CE700BF20128DF80400E0B28DF8050079
:104E200028128DF80600E8B28DF8070006F00100A0
:104E3000A0B101AA02214FF4EA70FFF799F910B16D
:104E40004FF0FF3082E70DF1060202214FF492701D
:104E5000FFF78EF910B14FF0FF3077E706F0020050
:104E6000A0B101AA02214FF4EC70FFF781F910B153
:104E70004FF0FF306AE70DF1060202214FF4947003
:104E8000FFF776F910B14FF0FF305FE706F004004E
:104E9000A0B101AA02214FF4EE70FFF769F910B139
:104EA0004FF0FF3052E70DF1060202214FF49670E9
:104EB000FFF75EF910B14FF0FF3047E7002045E7FC
:104EC00038B504460020009004F0010020B19DF8A0
:104ED000000040F03000009004F0020020B19DF886
:104EE000000040F00C00009004F0040020B19DF898
:104EF000000040F0030000906A4601214FF4A470C6
:104F0000FFF736F938BD38B50446012C01DA012423
:104F100002E0042C00DD0424601EC0B200906A464A
:104F2000012140F24F10FFF723F938BD38B5044690
:104F3000052094FBF0F085B228128DF80000E8B24D
:104F40008DF801006A4602214FF4EF70FFF710F967
:104F500038BD38B50446052094FBF0F085B2281220
:104F60008DF80000E8B28DF801006A4602214FF486
:104F7000ED70FFF7FDF838BDF8B505460E464FF465
:104F80007A7095FBF0F000FB06F4200E8DF800001F
:104F9000200C8DF80100200A8DF80200E0B28DF897
:104FA00003006A4604214FF4AE70FFF7E1F8F8BD44
:104FB00038B50446052094FBF0F084B220128DF839
:104FC0000000E0B28DF801006A4602214FF4AD7096
:104FD000FFF7CEF838BD38B50446052094FBF0F055
:104FE00084B220128DF80000E0B28DF801006A460C
:104FF00002214FF4AC70FFF7BBF838BD38B504465A
:1050000014B94FF0FF3038BD6A4604214FF4587090
:10501000FFF7EBF810B14FF0FF30F4E79DF8000018
:1050200000069DF8011040EA01409DF8021040EA98
:1050300001209DF80310084320600020E3E738B505
:105040000446200E8DF80000200C8DF80100200A87
:105050008DF80200E0B28DF803006A4604214FF497
:105060005870FFF785F838BD38B5044614B94FF0CD
:10507000FF3038BD6A4604214FF47170FFF7B5F870
:1050800010B14FF0FF30F4E79DF8000000069DF8E6
:10509000011040EA01409DF8021040EA01209DF80D
:1050A0000310084300EB8000800020600020E0E750
:1050B00038B504461420B4FBF0F4200E8DF800003F
:1050C000200C8DF80100200A8DF80200E0B28DF866
:1050D00003006A4604214FF47170FFF749F838BDA8
:1050E00038B5044664B120208DF8000028208DF8E2
:1050F000010030208DF8020038208DF8030004E014
:10510000A3220421684600F049FC6A46042140F6C7
:105110009E20FFF72DF8FDF785FC38BD54050020D3
:1051200000004843000040460000C04500004045E4
:105130000000C04438B5044664B1C0208DF80000BA
:10514000C2208DF80100C4208DF80200C6208DF821
:10515000030004E08B220421684600F01FFC6A462D
:10516000042140F69820FFF703F8FDF75BFC38BDFB
:105170003EB504466CB1FDA1D1E900208968CDE9B6
:10518000002002916A4609214FF49760FEF7F0FF74
:105190003EBDF9A2D2E900109268CDE9010200916A
:1051A0006A4609214FF49760FEF7E2FFF0E73EB54B
:1051B000044602208DF80000CA208DF80100E3208B
:1051C0008DF8020009208DF803006A46042168204A
:1051D000FEF7CEFFA3208DF8000004F0400048B198
:1051E000C0208DF80100C8208DF80200C2208DF883
:1051F000030006E0A3208DF801008DF802008DF871
:10520000030004F4C07048B1C4208DF80400CC2021
:105210008DF80500C6208DF8060006E0A3208DF865
:1052200004008DF805008DF80600A3208DF8070016
:105230008DF808008DF809006A460A2140F6A7207B
:10524000FEF796FF04F0030018B120208DF800004F
:1052500002E0D8208DF800006A46012140F6B62011
:10526000FEF786FF04F0200018B10120FFF780FF51
:1052700002E00020FFF77CFF04F4C07008B304F4E0
:10528000807060B1B2208DF800008B208DF8010095
:10529000B6208DF802009B208DF803000BE0B020B3
:1052A0008DF8000080208DF80100B4208DF80200F8
:1052B00090208DF803006A46042140F6A220FEF7F4
:1052C00057FF04F0010020B3F8208DF800006A4673
:1052D00001214FF40B60FEF74BFFFA210720FFF787
:1052E00029FD0720FFF7ECFD0120FFF70CFE6420ED
:1052F000FFF71CFE4FF4FA70FFF72BFEC821A14800
:10530000FFF73AFE2820FFF753FE0A20FFF763FE5F
:1053100008E0D8208DF800006A4601214FF40B60A8
:10532000FEF726FF04F0020018B1D9208DF8000026
:1053300002E0D8208DF800006A46012140F23D705D
:10534000FEF716FF04F0040018B10120FFF7F2FE8B
:1053500002E00020FFF7EEFE04F0100018B101207B
:10536000FFF7BEFE02E00020FFF7BAFE44F008009F
:1053700085494881FDF756FB00208349887304F076
:10538000400018B10846807B801D887304F4C0700B
:1053900020B17D48807B801D7B49887304F0140018
:1053A00020B17948807B10307749887304F003007E
:1053B00020B17548807B001D7349887300203EBD75
:1053C0000146714840890880002070472DE9F0416E
:1053D0000446E07800F0C006E07800F03F05607811
:1053E00000F0010098B1EF102846E91705EB517164
:1053F000C910A5EBC101491C01F0FF086248006813
:1054000020B16148414602683846904700BF607845
:1054100000F0080030B15C48406818B1B0115A4A39
:10542000516888470020BDE8F08110B586B0044679
:1054300056A207CA03AB07C357A207CA8DE80700E5
:10544000012C09D0022C0ED103AA0B2140F6822098
:10545000FEF78EFE06B010BD6A460B2140F6822094
:10546000FEF786FEF6E74FF0FF30F3E72DE9F04F49
:105470008DB00746884615469946DDE9166B00242F
:10548000002030804049887B5A4605A9FEF7D3F9B1
:1054900018B1601E0DB0BDE8F08F3B48807A00F077
:1054A0001400002861D09DF8140000069DF8151026
:1054B00040EA01409DF8161040EA01209DF81710BF
:1054C000084328609DF8180000069DF8191040EA6E
:1054D00001409DF81A1040EA01209DF81B10084376
:1054E00068609DF81C0000069DF81D1040EA014010
:1054F0009DF81E1040EA01209DF81F100843A86087
:105500009DF8200000069DF8211040EA01409DF81A
:10551000221040EA01209DF823100843E86004F1BE
:105520001000C4B22868001401906868001402904A
:10553000A86800140390E8680014049001984043A0
:10554000029901FB0100039901FB0100049901FB91
:10555000010ABAF1706F02DBBAF1885F22DDFDF754
:1055600061FA00203080401E94E721E0B8AAB38D94
:10557000B4980D355D000000B8AAAAAAB088C3C5CA
:10558000C700000009E3CA0254050020D8B1B9F3EE
:105590008BA391B609B4D900DAB1B9F38BA391B654
:1055A000DAB4DA00B6F9000040F48070308000BF51
:1055B0003448807A00F0400020B305A9601C085CE4
:1055C000095D40EA012000B2A8F8000005A9E01C2E
:1055D000095C05AAA01C105C41EA002000B2A8F8F2
:1055E000020005A9601D095C201D105C41EA002035
:1055F00000B2A8F80400A01DC4B2B6F9000040F043
:10560000080030801F48408900F4C07008B305A925
:10561000601C085C095D40EA012000B2388005A9E1
:10562000E01C095C05AAA01C105C41EA002000B245
:10563000788005A9601D095C201D105C41EA0020EE
:1056400000B2B880A01DC4B2B6F9000040F07000EE
:1056500030800C48807A00F0030018B105A90819C1
:10566000FFF7B4FE4846FDF74AFD002012E7014669
:105670000448016000207047014602484160002054
:105680007047000054050020704710B54C1084EAA4
:10569000530404D54042C1F1000138BF491E1B42EA
:1056A00004D55242C3F1000338BF5B1E00F082F9FB
:1056B00014F0804F04D04042C1F1000138BF491EB0
:1056C00014F0004F04D05242C3F1000338BF5B1EF8
:1056D00010BD00000FB4044910B503AA029800F0F1
:1056E00045FA10BC5DF814FB3800002070B5044684
:1056F00085690068C10601D5302600E02026C00774
:1057000007D070BDD4E9012130469047206A401C83
:1057100020626D1EF6D570BD70B5044685690078AF
:10572000C00707D170BDD4E9012120209047206A2D
:10573000401C20626D1EF6D570BD00002DE9F041C1
:105740000646002410687529314616A510D0AFF31F
:105750000080002802DA404213A507E031688A077A
:1057600001D512A502E0490704D511A5012401E0E5
:10577000AFF3008000210A2206F1240709E0B0FB04
:10578000F2FCB0FBF2F302FB1C00303078541846F8
:10579000491C0028F3D123462A463046BDE8F04193
:1057A00000F08AB9000000002D0000002B0000006E
:1057B0002000000070B504460D4621461068AFF386
:1057C00000802188090502D50F4A7A4402E00E4A7A
:1057D0007A440E32002104F1240305E000F00F06A4
:1057E0000009965D5E54491C0028F7D120780023FB
:1057F000000704D5702D02D009B1022311322046D2
:10580000BDE8704000F058B98C3500002DE9F05F1C
:10581000894604464FF0000ADFF824B1FB44C0F883
:1058200020A02046E168884700287DD0252806D0A2
:10583000D4E901219047206A401C2062F1E700254D
:105840005F462046E16888472028064607DB312E60
:1058500005D2B81910F8200C08B10543F1E7A807E4
:1058600001D525F00405C4F81CA00027C4F818A031
:105870002A2E09D0304600F0A1FA38B304EB87088D
:10588000303EC8F8186019E059F8041B204604EBB4
:1058900087029161E1688847012F064618D1E069C7
:1058A000002820DA25F020051DE0D8F8180000EBCC
:1058B000800006EB40003038C8F818002046E16848
:1058C0008847064600F07AFA0028EED1012F0AD068
:1058D0002E2E08D12046E16888477F1C0646022FFD
:1058E00045F02005C4DBA069002803DA404245F0FA
:1058F0000105A061E80701D025F01005A6B1A6F1C9
:105900004100192802D8203645F400654A46314640
:10591000204625604D46FAF723FC60B1012807D0E8
:10592000ED1D25F0070000E007E000F1080978E729
:1059300005F1040975E730467AE7206ABDE8F09F73
:105940006235000040EA010310B59B070FD1042A1D
:105950000DD310C808C9121F9C42F8D020BA19BA3A
:10596000884201D9012010BD4FF0FF3010BD1AB19F
:10597000D30703D0521C07E0002010BD10F8013BF4
:1059800011F8014B1B1B07D110F8013B11F8014B1B
:105990001B1B01D1921EF1D1184610BD02F0FF036E
:1059A00043EA032242EA024200F0F4B8704770472B
:1059B0007047704753EA020C00F069802DE9F04B04
:1059C0004FF00006002B1FBFB3FA83F503FA05F46E
:1059D00024FA05F65E4012BF1643B2FA82F502FAC7
:1059E00005F4C5F120051EBF22FA05FC44EA0C04AB
:1059F000203556EA044C4FEA144418BF641C4FF09B
:105A000000084FF00009904271EB030C39D30029D4
:105A100019BFB1FA81F701FA07F6B0FA80F700FA78
:105A200007F6C7F120071EBF20FA07FC46EA0C065E
:105A30002037B6FBF4FCA7EB0507103F07F01F0B60
:105A4000CBF120060CFA0BFB2CFA06F644BFB3464A
:105A50000026202FA4BF5E464FF0000B5BEA060C29
:105A600008BF4FF0010B19EB0B09ABFB027C48EBB5
:105A70000608C01B06FB02CC0BFB03CC71EB0C0130
:105A8000C1E70B46024641464846BDE8F08B13B5D8
:105A90004FF000004FF00001AFF30080BDE81C4064
:105AA000704710B500F096F8006810BD10B50446B8
:105AB00000F090F8046010BD2DE9F0470D469946BE
:105AC0009246044600F124080168880604D5E0697E
:105AD00021F01001216000E00120A84201DD471BF8
